S00C00006661706F2E7372656372
S11300000C94B5000C94D2000C94D2000C942803E8
S11300100C944B030C94D2000C94D2000C94D20098
S11300200C94D2000C949F030C94D2000C94D20034
S11300300C94D2000C94D2000C94D2000C94D200F4
S11300400C94C6020C94D2000C94D2000C94D200EE
S11300500C94D2000C94D2000C94D2000C94D200D4
S11300600C94D2000C94D2006E616E00696E66002E
S113007000407A10F35A00A0724E18090010A5D45B
S1130080E80000E87648170000E40B54020000CAB8
S11300909A3B000000E1F5050000809698000000FE
S11300A040420F000000A08601000000102700005D
S11300B00000E803000000006400000000000A00E3
S11300C0000000000100000000002C76D888DC67E6
S11300D04F0823DFC1DFAE59E1B1B796E5E3E4533E
S11300E0C63AE651997696E8E6C28426EB898C9B5B
S11300F062ED407C6FFCEFBC9C9F40F2BAA56FA5FB
S1130100F490055A2AF75C936B6CF9676DC11BFC7C
S1130110E0E40D47FEF520E6B500D0ED902E030097
S1130120943577050080841E080000204E0A0000E4
S113013000C80C333333330F986E12831141EF8DA3
S11301402114893BE65516CFFEE6DB18D1844B38E3
S11301501BF77C1D901DA4BBE424203284725E2214
S11301608100C9F124ECA1E53D2711241FBECFEF86
S1130170D8E0DEBFCDBF11E0A0E0B1E0E6EFF0E2F1
S113018002C005900D92A632B107D9F721E0A6E28C
S1130190B1E001C01D92A135B207E1F70E946607E4
S11301A00C9479100C9400005F988F710E94BB012D
S11301B08FEF0E94BB015F9A0895CF93C62F5F987B
S11301C08F7180620E94BB018C2F0E94BB015F9AD9
S11301D0CF910895EF92FF920F931F93CF93DF93E4
S11301E07B01142F5F988F7180620E94BB011123E1
S11301F071F0E7011150012F10E00F5F1F4F0E0D3A
S11302001F1D89910E94BB01C017D107D1F75F9AC6
S1130210DF91CF911F910F91FF90EF90089545E0EA
S1130220BC018AE00E94EA0008955F9882EE0E9471
S1130230BB015F9A08955F9881EE0E94BB015F9AAB
S1130240089580E00E94D400682F616080E00E94DD
S1130250DD0080E00E94D400682F626080E00E948C
S1130260DD0060E787E00E94DD000E9415010E9426
S11302701B01289A8BE291E00197F1F700C000007E
S11302800895CF93C82F209A579A28985F9A8FE0A1
S113029097E20197F1F700C000006FE080E00E9450
S11302A0DD0061E081E00E94DD0061E082E00E9407
S11302B0DD0063E083E00E94DD006FEF84E00E94D4
S11302C0DD006C2F85E00E94DD0066E286E00E947E
S11302D0DD0060E281E10E94DD0060E08CE10E94CB
S11302E0DD000E942101CF910895289880E00E94AA
S11302F0D400682F6E7F80E00E94DD0080E00E94C1
S1130300D400682F626080E00E94DD0060E387E033
S11303100E94DD000E941B018BE291E00197F1F73E
S113032000C0000008950F931F93CF93DF938C01B7
S11303300E9475015F9880EA0E94BB01E801005E9B
S11303401F4F89910E94BB01C017D107D1F75F9A53
S1130350289A85E38A95F1F700002898DF91CF91D8
S11303601F910F9108952498239A259A229A83E540
S11303708CBD1DBC08958EBD0DB407FEFDCF8EB59A
S1130380089590E09093C5008093C40086E0809324
S1130390C20088E18093C100089580932F018823CF
S11303A031F0E1EBF0E08081826080830895E1EB3D
S11303B0F0E080818D7F80830895809134018111E4
S11303C0FCCF109239010895CF93C82F0E94DD010C
S11303D010923801109236011092350185E0809315
S11303E03701C0933901CF91089548E050E061E0AE
S11303F070E085E491E00E94511060914D0170918C
S11304004E0189E090E00E94731060914F01709159
S113041050018BE090E00E9473106AEA80E090E063
S11304200E9461100895CF92DF92EF92FF920F9392
S11304301F93CF93DF93CDB7DEB7A0970FB6F89491
S1130440DEBF0FBECDBFC0904F01D09050018C01D4
S113045020E030E0980111270027E12CF12C0C2931
S11304601D292E293F2909831A832B833C839E83CC
S11304708D8350E0CE0107960E94630FCE01019652
S11304800E94930180914F019091500101969093A5
S1130490500180934F010E94F5010E942101A09612
S11304A00FB6F894DEBF0FBECDBFDF91CF911F9181
S11304B00F91FF90EF90DF90CF9008952198299AA3
S11304C0EBE6F0E0808182608083E8E6F0E0808102
S11304D0816080833B98439AACE6B0E08C9188605D
S11304E08C93808182608083389A4098559A5D9875
S11304F0569A5E983D98EEE7F0E0808180628083B2
S11305003C988081806280833E9880818061808372
S11305103E983A988081846080830895009741F0E2
S1130520EFECF7E03197F1F700C000000197C1F755
S113053008955D9A8CE390E00E948E025D988CE3AE
S113054090E00E948E025D9A8CE390E00E948E02FD
S11305505D988CE390E00E948E0284EF91E00E940B
S11305608E025D9A8CE390E00E948E025D988CE38B
S113057090E00E948E025D9A8CE390E00E948E02CD
S11305805D988CE390E00E948E02089578941F9207
S11305900F920FB60F9211248F939F9381E0809353
S11305A0340180913901882309F449C080913501CF
S11305B090913601892B51F080913501909136014B
S11305C00197909336018093350139C080913701AA
S11305D0882331F08091370181508093370113C013
S11305E080913801882329F08091390181508093CA
S11305F039019091380181E0911180E080933801B4
S113060085E080933701809139018823B1F080918E
S11306103801882331F05E989BB180E289278BB939
S113062005C05D989BB180E489278BB985E090E093
S1130630909336018093350102C05D985E981092C4
S113064034019F918F910F900FBE0F901F901895BA
S113065078941F920F920FB60F9211248F93EF93F9
S1130660FF9383B78E7F83BFE8E6F0E080818E7FBF
S11306708083199903C081E080934101E8E6F0E0AA
S1130680808181608083FF91EF918F910F900FBEE5
S11306900F901F90189578941F920F920FB60F9297
S11306A011248F93EF93FF9383B78E7F83BFE8E684
S11306B0F0E080818D7F808381E08093420180819E
S11306C082608083FF91EF918F910F900FBE0F9006
S11306D01F901895AC0183709927892BA1F49A0176
S11306E03695279536952795ABE7B4E10E94D20D50
S11306F09695879564E6689F9001699F300D112453
S113070042175307D1F49A01329522952F7023276B
S11307103F702327AEE3BAE00E94D20D60E971E096
S1130720869F9001879F300D969F300D112481E0A4
S11307304217530719F080E0089581E008957894F2
S11307401F920F920FB60F921124AF92BF92CF92C5
S1130750DF92EF92FF920F931F932F933F934F9348
S11307605F936F937F938F939F93AF93BF93EF9315
S1130770FF9381E0809326018093400180912F01B3
S1130780882311F0E8E001C0E1E0A0E0B1E01596B3
S11307908C9115978E0F15968C93A0902701B0908D
S11307A02801C0902901D0902A01E0902B01F090FB
S11307B02C0100912D0110912E012E2F30E040E0EC
S11307C050E060E070E080E090E00E94770E2093BB
S11307D02701309328014093290150932A01609303
S11307E02B0170932C0180932D0190932E0133994A
S11307F014C080913C0190913D01A0913E01B091C3
S11308003F018E0F911DA11DB11D80933C0190935A
S11308103D01A0933E01B0933F01809105018C33CB
S113082080F180912F01882331F0E0E0F1E08581AF
S11308308C53858302C010920501E0E0F1E08481CD
S11308408F5F84838091300190913101A0913201B6
S1130850B0913301892B8A2B8B2B99F08091300135
S113086090913101A0913201B09133010197A10916
S1130870B1098093300190933101A0933201B09378
S11308803301809104018C3330F0E0E0F1E0148214
S113089083818F5F838380910301883178F0E0E066
S11308A0F1E0138282818F5F828386818F5F8683EA
S11308B08681883018F081E08093060180910201DE
S11308C0803268F5809102018F3181F480910101B9
S11308D0843029F180910101863009F18091010170
S11308E08930E9F0809101018B30C9F080910201D7
S11308F08E3121F480910101823089F080910201CE
S11309008D31A1F480910101823081F48091000144
S113091090E08053984F0E946A03811107C0E0E081
S1130920F1E081E0828381818F5F81838091010185
S11309308D3038F0E0E0F1E080818F5F808381E0EA
S1130940818310922601FF91EF91BF91AF919F9106
S11309508F917F916F915F914F913F912F911F9153
S11309600F91FF90EF90DF90CF90BF90AF900F90DA
S11309700FBE0F901F9018952F923F924F925F9247
S11309806F927F928F929F92AF92BF92CF92DF929B
S1130990EF92FF920F931F93CF93DF93CDB7DEB700
S11309A02C970FB6F894DEBF0FBECDBF4D835E8388
S11309B06F83788709831A832B833C834E2CE11041
S11309C082C0442443947FC08081806480839A855C
S11309D02985BB85AC85808186FDFDCF9A872987D3
S11309E0BB87AC87D1018D909C90282D392D40E098
S11309F050E060E070E080E090E0A72CB52CCA8461
S1130A00D984EB84FC840E94770E722E532E4A877D
S1130A1059876B877C87082F192F63946414A0F27D
S1130A20A42CB12CC12CD12CE12CF12C00E010E031
S1130A30272D0E94E30D0E94370920E030E14BE9A5
S1130A4050E40E94C609062F172F8A8799872D81A3
S1130A503E814F815885232B242B252B41F48981FA
S1130A609A81AB81BC81892B8A2B8B2B39F16981CB
S1130A707A818B819C810E94FA08202F312F4A852C
S1130A8059850E94C6096B017C016D817E818F812D
S1130A90988529813A814B815C81620F731F841F81
S1130AA0951F0E94FA089B01AC01C701B6010E9480
S1130AB08808062F172F8D83998321C03A853D839B
S1130AC0498549831CC080937C0086E880937A0022
S1130AD010927B00712C40E050E0B0E0A0E0512C7B
S1130AE0612CEAE7F0E00F2EF8E72F2E312CF02DE1
S1130AF04A875987BB87AC87052D162D65CF602F94
S1130B00712F8D8199812C960FB6F894DEBF0FBE9C
S1130B10CDBFDF91CF911F910F91FF90EF90DF90A8
S1130B20CF90BF90AF909F908F907F906F905F9089
S1130B304F903F902F900895EF920F931F93409AF8
S1130B4085E090E00E948E026894EE24E4F800E0D0
S1130B5010E0980140E050E0BA0182E00E94BC0439
S1130B60409820E030E048EC52E40E941B0820E06A
S1130B7030E040E251E40E94880820E030E040E2A6
S1130B8052E40E941B081F910F91EF900895EF9279
S1130B900F931F936894EE24E4F808E917EB20E020
S1130BA030E048E957EB60E070E085E00E94BC0467
S1130BB01F910F91EF900895EF920F931F936894F4
S1130BC0EE24E4F808E917EB20E030E048E957EBBD
S1130BD060E070E084E00E94BC041F910F91EF90EC
S1130BE00895EF920F931F936894EE24E4F800EABB
S1130BF016E821E030E048E957EB60E070E086E079
S1130C000E94BC041F910F91EF9008950F931F93BE
S1130C10CF93DF93CDB7DEB76A970FB6F894DEBFF4
S1130C200FBECDBF0E94C7050E94DC050E94F105DE
S1130C300E949C05339902C013E401C01EE4609134
S1130C403C0170913D0180913E0190913F012CE364
S1130C5030E040E050E00E94B00D20913A01683E3F
S1130C6083E0780710F067EE73E07F936F931F9231
S1130C702F9382E48F9388E08F9386E68F938F93EC
S1130C8081E48F9389E18F9329E92F939AE99F93C4
S1130C9080E48F9339EE3F932F939F938F938CEA45
S1130CA08F938CEC8F938DEC8F931F921F9387E01F
S1130CB091E09F938F938E010F5F1F4F1F930F93AC
S1130CC00E94B30F40E2B80186E098E70E94130245
S1130CD010923A010FB6F894DEBF0FBECDBF6A96EC
S1130CE00FB6F894DEBF0FBECDBFDF91CF911F9139
S1130CF00F910895460F571F6417750748F4681736
S1130D00790778F421E04817590770F420E00CC003
S1130D106817790740F021E04817590728F420E0C4
S1130D2003C020E001C021E0822F0895CF92DF921A
S1130D30EF92FF920F931F93CF93DF93EC018A817D
S1130D40CB80D12CE12CF12CFC2CEE24DD24CC2402
S1130D50E82A8881A7019601282BDA01C901C980F4
S1130D60D12CDC2CCC24E12CF12CC82AD92AEA2A57
S1130D70FB2A60914D0170914E0140E450E0C601A0
S1130D800E947A06882309F46EC08C812D8190E03C
S1130D90922BE816F90609F066C0D0924E01C09273
S1130DA04D01D0924401C09243010E94F50139E102
S1130DB0E31635E5F30641F158F456E9E51654E235
S1130DC0F506C1F086E0E81687E4F806A1F175C0DF
S1130DD027E8E21620E6F20609F442C033E8E316F7
S1130DE036E7F30651F048E2E41646E5F40609F066
S1130DF064C007C00E94DD0160C08E810E94E401CE
S1130E005CC00E94990259C0809126018111FCCFD7
S1130E101092B10087E0FE013696A0E0B1E00190A7
S1130E200D928A95E1F780912F010E94CD0181E016
S1130E3080933B0142C07E816F81588549853A8504
S1130E402B859C858D85E5E4F1E070836183528375
S1130E50438334832583968387830E94F5012DC0C1
S1130E600E9406062AC060914301709144014FEF2D
S1130E705FE7C6010E947A068823A1F060914301CE
S1130E807091440141E050E0C6010E947A06882333
S1130E9021F0D0924E01C0924D01D0924401C092F3
S1130EA0430105C080913A018F5F80933A015D9AB6
S1130EB084EF91E00E948E025D98DF91CF911F91A3
S1130EC00F91FF90EF90DF90CF900895CF93DF9331
S1130ED0CDB7DEB7A5970FB6F894DEBF0FBECDBF72
S1130EE00E9406060E945E025098519A89E10E946F
S1130EF0C10180E090E00E9443108A3AC9F448E0BE
S1130F0050E061E070E085E491E00E94331089E0F4
S1130F1090E00E944B1090934E0180934D018BE022
S1130F2090E00E944B109093500180934F0124C095
S1130F3080E98093450189E88093460188E780939E
S1130F40470186E58093480185E48093490184E361
S1130F5080934A0183E280934B0182E180934C01A8
S1130F6088EE93E090934E0180934D01909350014D
S1130F7080934F010E94F50180914D0190914E01A3
S1130F8090934401809343010E94B3018DE48983CB
S1130F9082E48A838CE28B8381E28C8388E58D836F
S1130FA08EE00E944101CE0101960E940F010E9431
S1130FB0210114BC84E085BDEEE6F0E0808181600F
S1130FC080831092B200E1EBF0E080818560808341
S1130FD080E28093B600E0E7F0E080818160808366
S1130FE0789482E390E00E948E0281E00E94CD0119
S1130FF000914D0110914E010C591F4F0F2EF3E833
S1131000EF2EF02D0F2EF6E7FF2EF02D6894DD2441
S1131010D1F80F5F1F4F0E831F83E886F986EA8697
S1131020FB86DC86CE0106960E94960688E893E14C
S11310300E948E02EECF5058BB27AA270E94330885
S11310400C948C090E947E0938F00E94850920F0D6
S113105039F49F3F19F426F40C947B090EF4E095BF
S1131060E7FB0C947509E92F0E949D0958F3BA1700
S1131070620773078407950720F079F4A6F50C94AA
S1131080BF090EF4E0950B2EBA2FA02D0B01B90168
S113109090010C01CA01A0011124FF27591B99F0EA
S11310A0593F50F4503E68F11A16F040A22F232FF6
S11310B0342F4427585FF3CF469537952795A79546
S11310C0F0405395C9F77EF41F16BA0B620B730BED
S11310D0840BBAF09150A1F0FF0FBB1F661F771F5E
S11310E0881FC2F70EC0BA0F621F731F841F48F413
S11310F0879577956795B795F7959E3F08F0B0CF9C
S11311009395880F08F09927EE0F97958795089582
S11311100E949C080C948C090E94850958F00E9436
S11311207E0940F029F45F3F29F00C9475095111B0
S11311300C94C0090C947B090E949D0968F39923BF
S1131140B1F3552391F3951B550BBB27AA276217BF
S11311507307840738F09F5F5F4F220F331F441FCC
S1131160AA1FA9F335D00E2E3AF0E0E832D0915000
S11311705040E695001CCAF72BD0FE2F29D0660FED
S1131180771F881FBB1F261737074807AB07B0E830
S113119009F0BB0B802DBF01FF2793585F4F3AF036
S11311A09E3F510578F00C9475090C94C0095F3F7B
S11311B0E4F3983ED4F3869577956795B795F795BC
S11311C09F5FC9F7880F911D9695879597F90895A4
S11311D0E1E0660F771F881FBB1F62177307840740
S11311E0BA0720F0621B730B840BBA0BEE1F88F74F
S11311F0E0950895E89409C097FB3EF49095809596
S1131200709561957F4F8F4F9F4F9923A9F0F92FC8
S113121096E9BB279395F695879577956795B79546
S1131220F111F8CFFAF4BB0F11F460FF1BC06F5F2C
S11312307F4F8F4F9F4F16C0882311F096E911C03E
S1131240772321F09EE8872F762F05C0662371F05F
S113125096E8862F70E060E02AF09A95660F771F73
S1131260881FDAF7880F9695879597F90895E8947B
S1131270F92F96EBFF2381F0121613061406440B84
S11312809395F69587957795679557954040FF23F5
S1131290B9F71BC099270895882351F49850D2F7C1
S11312A0872B762F652F542F432F322F20E0B1F355
S11312B0121613061406440B88233AF09A95440F29
S11312C0551F661F771F881FCAF755234AF4440F1A
S11312D0551F11F460FF04C06F5F7F4F8F4F9F4F06
S11312E0880F9695879597F9089597F99F6780E8F1
S11312F070E060E008959FEF80EC089500240A9464
S11313001616170618060906089500240A941216DC
S11313101306140605060895092E0394000C11F40F
S1131320882352F0BB0F40F4BF2B11F460FF04C0BC
S11313306F5F7F4F8F4F9F4F089557FD9058440F15
S1131340551F59F05F3F71F04795880F97FB991F20
S113135061F09F3F79F087950895121613061406DD
S1131360551FF2CF4695F1DF08C01616170618066A
S1131370991FF1CF86957105610508940895E89445
S1131380BB2766277727CB0197F908950E94D909CF
S11313900C948C090E947E0938F00E94850920F083
S11313A0952311F00C9475090C947B0911240C9469
S11313B0C0090E949D0970F3959FC1F3950F50E0F9
S11313C0551F629FF001729FBB27F00DB11D639FF3
S11313D0AA27F00DB11DAA1F649F6627B00DA11D99
S11313E0661F829F2227B00DA11D621F739FB00D3F
S11313F0A11D621F839FA00D611D221F749F3327AF
S1131400A00D611D231F849F600D211D822F762F47
S11314106A2F11249F5750409AF0F1F088234AF024
S1131420EE0FFF1FBB1F661F771F881F9150504090
S1131430A9F79E3F510580F00C9475090C94C009DE
S11314405F3FE4F3983ED4F3869577956795B79517
S1131450F795E7959F5FC1F7FE2B880F911D969531
S1131460879597F90895A0E1B0E0E9E3FAE00C94D8
S1131470400E7C011B016A01FC01178216828381E4
S113148081FF44C39E012F5F3F4F3901F7019381D0
S1131490F10193FD859193FF81911F01882309F444
S11314A031C3853239F493FD859193FF81911F01F6
S11314B0853239F4B70190E00E94770F5601650137
S11314C0E5CF10E0512C912CFFE1F915D8F08B32C7
S11314D079F038F4803279F08332A1F4F92DF06197
S11314E02EC08D3261F0803369F4292D21602DC026
S11314F0392D3260932E892D8460982E2AC0E92DCF
S1131500E86015C097FC2DC020ED280F2A3088F420
S113151096FE06C03AE0139F200D1124122F19C025
S11315208AE0589E200D1124522EE92DE0629E2E51
S113153010C08E3231F496FCE5C2F92DF0649F2E72
S113154008C08C3621F4292D2068922E02C08836DA
S113155041F4F10193FD859193FF81911F01811164
S1131560B3CF9BEB980F933020F4992D9061805E5C
S113157007C09BE9980F933008F066C1992D9F7EB0
S113158096FF16E09F73992E853619F49064992E70
S113159008C0863621F4392F3068932E02C0111109
S11315A0115097FE07C01C3350F444244394410E59
S11315B027E00BC0183038F027E017E005C027E01B
S11315C09CE3492E02C0212F412C560184E0A80E31
S11315D0B11CF6016081718182819381042DA30184
S11315E00E94800E6C01F981FC87F0FF02C0F3FFBA
S11315F006C091FC06C092FE06C000E205C00DE2E2
S113160003C00BE201C000E08C858C7019F001115D
S11316105AC29BC297FE10C04C0CFC85F4FF04C058
S11316208A81813309F44A94141474F528E024154A
S113163078F588E0482E2CC096FC2AC0812F90E0D3
S11316408C159D059CF03CEFC3163FEFD30674F058
S1131650892D8068982E0AC0E2E0F0E0EC0FFD1FAF
S1131660E10FF11D8081803319F411501111F4CF71
S113167097FE0EC044244394410E812F90E0C81677
S1131680D9062CF41C1904C04424439401C010E06E
S113169097FE06C01C141D0434F4C601019605C04F
S11316A085E090E002C081E090E0011101961123F1
S11316B031F0212F30E02F5F3F4F820F931F252DF4
S11316C030E08217930714F4581A01C0512C892D65
S11316D0897049F4552039F0B70180E290E00E9406
S11316E0770F5A94F7CF002329F0B701802F90E0A9
S11316F00E94770F93FC09C0552039F0B70180E3AD
S113170090E00E94770F5A94F7CF97FE4CC04601A1
S1131710D7FE02C0812C912CC60188199909F301C6
S1131720E80FF91FFE87ED87960124193109388BDC
S11317302F87012F10E01195019511093FEF8316B2
S1131740930629F4B7018EE290E00E94770FC81443
S1131750D9044CF08F8598898815990524F4ED8572
S1131760FE85818101C080E3F1E08F1A91082D8507
S11317703E852F5F3F4F3E872D87801691062CF0C4
S1131780B70190E00E94770FD9CFC814D90441F46F
S11317909A81963320F4953319F43C8534FF81E320
S11317A0B70190E04EC08A81813319F09C859F7EF9
S11317B09C87B70190E00E94770F111105C094FC3B
S11317C018C085E690E017C0B7018EE290E00E9451
S11317D0770F1E5F82E001E0080FF301E80FF11DAF
S11317E08081B70190E00E94770F802F0113F3CF1F
S11317F0E6CF85E490E0B7010E94770FD7FC06C0DE
S1131800C114D10441F4EC85E4FF05C0D194C19422
S1131810D1088DE201C08BE2B70190E00E94770FFE
S113182080E32AE0C216D1042CF08F5FFAE0CF1ACD
S1131830D108F7CFB70190E00E94770FB701C60136
S1131840C0960E94770F54C1833631F0833779F004
S1131850833509F056C020C0560132E0A30EB11CF6
S1131860F6018081898301E010E0630112C0560112
S1131870F2E0AF0EB11CF601C080D18096FE03C029
S1131880612F70E002C06FEF7FEFC6010E946C0F02
S11318908C01F92DFF7714C0560122E0A20EB11C71
S11318A0F601C080D18096FE03C0612F70E002C0B3
S11318B06FEF7FEFC6010E94580F8C01F92DF0687D
S11318C09F2EF3FD1AC0852D90E008171907A8F480
S11318D0B70180E290E00E94770F5A94F4CFF601AA
S11318E097FC859197FE81916F01B70190E00E946A
S11318F0770F51105A94015011090115110579F708
S1131900F7C0843611F0893661F5560197FE09C097
S113191024E0A20EB11CF601608171818281938161
S11319200AC0F2E0AF0EB11CF60160817181072E8E
S1131930000C880B990BF92DFF769F2E97FF09C099
S113194090958095709561957F4F8F4F9F4FF0686C
S11319509F2E2AE030E0A3010E94D50FC82EC6189E
S11319603FC0092D853721F40F7E2AE030E01DC0E9
S1131970097F8F3691F018F4883559F0C3C0803749
S113198019F0883711F0BEC0006104FF09C004607B
S113199007C094FE08C0066006C028E030E005C019
S11319A020E130E002C020E132E0560107FF09C027
S11319B084E0A80EB11CF60160817181828193815B
S11319C008C0F2E0AF0EB11CF6016081718180E0C5
S11319D090E0A3010E94D50FC82EC6180F77902E51
S11319E096FE0BC0092D0E7FC11650F494FE0AC05A
S11319F092FC08C0092D0E7E05C0DC2C092D03C005
S1131A00DC2C01C0D12E04FF0DC0FE01EC0DF11D34
S1131A108081803311F4097E09C002FF06C0D3948B
S1131A20D39404C0802F867809F0D39403FD11C0A9
S1131A3000FF06C01C2DD51480F4150D1D190DC012
S1131A40D51458F4B70180E290E00E94770FD39444
S1131A50F7CFD51410F45D1801C0512C04FF10C049
S1131A60B70180E390E00E94770F02FF17C001FDE9
S1131A7003C088E790E002C088E590E0B7010CC09D
S1131A80802F867859F001FF02C08BE201C080E20A
S1131A9007FD8DE2B70190E00E94770FC11638F47C
S1131AA0B70180E390E00E94770F1150F7CFCA94FA
S1131AB0F301EC0DF11D8081B70190E00E94770FD6
S1131AC0C110F5CF15C0F4E0F51560F584E0581A9F
S1131AD093FE1FC0011127C02C8523FF2AC008E6EE
S1131AE010E0392D3071932EF8018491811124C0B6
S1131AF0552009F4E4CCB70180E290E00E94770F0E
S1131B005A94F6CFF7018681978126C08FEF9FEF15
S1131B1023C0B70180E290E00E94770F5A945110DD
S1131B20F8CFD8CF512CB701802F90E00E94770FC7
S1131B30D3CF0CE610E0D5CF91108052B70190E0DE
S1131B400E94770F0F5F1F4FCFCF23E0251510F4AE
S1131B5083E0BDCF512CC0CF6096E2E10C945C0EC3
S1131B60A1E21A2EAA1BBB1BFD010DC0AA1FBB1F9D
S1131B70EE1FFF1FA217B307E407F50720F0A21B0F
S1131B80B30BE40BF50B661F771F881F991F1A947C
S1131B9069F760957095809590959B01AC01BD01A6
S1131BA0CF010895A29FB001B39FC001A39F700D00
S1131BB0811D1124911DB29F700D811D1124911D51
S1131BC00895689401C0E8948F929F92CF93DF9315
S1131BD00E94EF0DDF91CF919F908F9008958824FC
S1131BE09924F401E401B0E49F93AA279A158B0485
S1131BF09C04ED05FE05CF05D007A10798F4AD2F91
S1131C00DC2FCF2FFE2FE92D982C892E982F872F8C
S1131C10762F652F542F432F322F2227B85031F7B8
S1131C20BF9127C01B2EBF91BB27220F331F441F18
S1131C30551F661F771F881F991F881C991CEE1F4C
S1131C40FF1FCC1FDD1FAA1FBB1F8A149B04EC05BA
S1131C50FD05CE05DF05A007B10748F08A189B08EB
S1131C60EC09FD09CE09DF09A00BB10B21601A9420
S1131C70E1F62EF49401AF01BE01CD01000C0895EC
S1131C802F923F924F925F926F927F928F929F9288
S1131C90AF92BF92CF92DF92EF92FF920F931F9376
S1131CA0CF93DF93CDB7DEB7CA1BDB0B0FB6F89427
S1131CB0DEBF0FBECDBF09942A88398848885F8467
S1131CC06E847D848C849B84AA84B984C884DF80D8
S1131CD0EE80FD800C811B81AA81B981CE0FD11DBC
S1131CE00FB6F894DEBF0FBECDBFED0108952A0DE7
S1131CF03B1D4C1D5D1D6E1D7F1D801F911F089592
S1131D00283008F027E03327DA01990F311D87FDC9
S1131D10916000966105710539F432602E5F3D9340
S1131D2030E32A95E1F708959F3F30F0803871053C
S1131D30610509F03C5F3C5F3D93913008F0806899
S1131D40911DDF93CF931F930F93FF92EF92192F5F
S1131D50987F9695E92F96959695E90FFF27E65378
S1131D60FF4F99273327EE24FF24A701E7010590AD
S1131D700894079428F4360FE71EF81E491F511DD6
S1131D80660F771F881F991F0694A1F70590079483
S1131D9028F4E70EF81E491F561FC11D770F881F30
S1131DA0991F661F0694A1F70590079428F4F80E6E
S1131DB0491F561FC71FD11D880F991F661F771F04
S1131DC00694A1F70590079420F4490F561FC71FE6
S1131DD0D81F990F661F771F881F0694A9F784914F
S1131DE01095177041F0D695C79557954795F79478
S1131DF0E7941A95C1F7E0E7F0E06894159015911F
S1131E0035916591959105907FE27395E118F10AFA
S1131E10430B560BC90BD009C0F7E10CF11E431F4D
S1131E20561FC91FD01D7EF4703311F48A95E6CF76
S1131E30E894015030F0080F0AF40027021708F460
S1131E40202F2395022F7A3328F079E37D932A9566
S1131E50E9F710C07D932A9589F6069497956795BE
S1131E60379517951794E118F10A430B560BC90BD4
S1131E70D00998F023957E9173957A3308F070E336
S1131E807C932013B8F77E9170617D9330F0839535
S1131E9071E37D9370E32A95E1F71124EF90FF90AD
S1131EA00F911F91CF91DF91992787FD9095089508
S1131EB0FC010590615070400110D8F78095909511
S1131EC08E0F9F1F0895FB01DC0102C001900D924B
S1131ED041505040D8F70895FC0161507040019082
S1131EE00110D8F7809590958E0F9F1F08950F933A
S1131EF01F93CF93DF93FB01238121FD03C08FEF59
S1131F009FEF2CC022FF16C0468157812481358162
S1131F104217530744F4A081B1819D012F5F3F4FC5
S1131F20318320838C93268137812F5F3F4F378302
S1131F30268314C08B01EC01FB010084F185E02DA4
S1131F400995892BE1F6D80116968D919C911797E6
S1131F50019617969C938E931697CE01DF91CF919D
S1131F601F910F910895AEE0B0E0E9EBFFE00C940F
S1131F704E0E0D891E8986E08C831A8309838FEFA8
S1131F809FE79E838D83AE01475E5F4F6F89788D97
S1131F90CE0101960E94330AEF81F885E00FF11F0C
S1131FA010822E96E4E00C946A0EFA01AA272830D7
S1131FB051F1203181F1E8946F936E7F6E5F7F4F12
S1131FC08F4F9F4FAF4FB1E03ED0B4E03CD0670F8E
S1131FD0781F891F9A1FA11D680F791F8A1F911DE1
S1131FE0A11D6A0F711D811D911DA11D20D009F431
S1131FF068943F912AE0269F11243019305D319373
S1132000DEF6CF010895462F4770405D4193B3E05B
S11320100FD0C9F7F6CF462F4F70405D4A3318F002
S1132020495D31FD4052419302D0A9F7EACFB4E0B3
S1132030A6959795879577956795BA95C9F700976B
S11320406105710508959B01AC010A2E069457950C
S1132050479537952795BA95C9F7620F731F841F63
S1132060951FA01D0895DC01CB01FC01F999FECF59
S113207006C0F2BDE1BDF89A319600B40D9241500C
S11320805040B8F70895F999FECF92BD81BDF89AF2
S1132090992780B50895A8E1B0E042E050E00C949F
S11320A03510DC01A40FB51F4150504048F0CB015E
S11320B0840F951F2E910E94621041505040D0F71A
S11320C00895262FF999FECF92BD81BDF89A019704
S11320D000B4021639F01FBA20BD0FB6F894FA9A6C
S11320E0F99A0FBE08950196272F0E9462100C944E
S10920F06110F894FFCF1B
S11320F61606090C000004256323252E31662325C4
S11321062E316623252E316623252E30662325643B
S1092116232564232400CC
S9030000FC
