:100000000C9434000C9451000C9451000C94040492
:100010000C9427040C9451000C9451000C94510042
:100020000C9451000C947E040C9451000C945100DB
:100030000C9451000C9451000C9451000C945100FC
:100040000C94A2030C9451000C9451000C94510098
:100050000C9451000C9451000C9451000C945100DC
:100060000C9451000C94510011241FBECFEFD8E026
:10007000DEBFCDBF11E0A0E0B1E0ECEBFCE102C0DF
:1000800005900D92AE32B107D9F721E0AEE2B1E0B2
:1000900001C01D92A235B207E1F70E9467070C94D8
:1000A0005C0E0C9400002F923F924F925F926F92E1
:1000B0007F928F929F92AF92BF92CF92DF92EF92F8
:1000C000FF920F931F93CF93DF93CDB7DEB72C979B
:1000D0000FB6F894DEBF0FBECDBF9A838983FB01B4
:1000E000B081BB83B181BC83B281BD83B381BE8348
:1000F000B481BF83B581B887B681B987B781BA8724
:10010000BB80CC80DD80EE80FF80188589852B2E1A
:10011000A0E1B0E08B872B2D3C2D4D2D5E2D6F2D5A
:10012000712F8B85922D01E00E94050B322E432EFC
:10013000542E652E762E872E982EA92E2B2D3C2DF3
:100140004D2D5E2D6F2D712F8B85922D0FE30E940B
:10015000140BB22EB328C42CD52CE62CF72C182D5A
:100160009B862A2C1197B9F6B08241825282638213
:10017000748285829682A7826894EE24E4F8FF2434
:10018000F1F8A981BA814D905D906D907C90D3017A
:10019000C201B695A79597958795482F417051FC58
:1001A000426064FC4460D301C201072E7AE1B69537
:1001B000A795979587957A95D1F7702D81707720BF
:1001C0000CF48260A82FB0E0A55FBE4F2C9130E008
:1001D000190102C0359427944A95E2F7B1E02B2229
:1001E000332410818180B2819380A480B580C68041
:1001F000D7804B2F417020E030E050E060E070E0AD
:1002000080E090E0A0E00E942C0B11F42B8603C04C
:1002100021E022262B8640FE04C0AB8521E0A227E8
:10022000AB8760FE04C0AB8521E0A227AB87212FFE
:10023000217030E040E050E060E070E080E090E06D
:100240000FE30E94050B222E332E442E552E662ED0
:10025000772E8C87A92F212F382D4B2F592D6A2DC2
:100260007B2D8C2D9D2D01E00E94140B222A2082D3
:10027000332A3182442A4282552A5382662A648272
:10028000772A7582BC858B2B86839A2B9783AB85C7
:100290004A2F50E060E070E0772746957795662713
:1002A00055274427A981BA818D909D90AD90BC902F
:1002B000D501C401B695A79597958795482B592BDD
:1002C0006A2B7B2BA981BA814D935D936D937C93AF
:1002D0001397B1E0EB1AF10809F053CFBB81B0835B
:1002E000BC81B183BD81B283BE81B383BF81B4833E
:1002F000B885B583B985B683BA85B7832C960FB612
:10030000F894DEBF0FBECDBFDF91CF911F910F914B
:10031000FF90EF90DF90CF90BF90AF909F908F9025
:100320007F906F905F904F903F902F9008955F98CF
:100330008F710E947E028FEF0E947E025F9A089565
:10034000CF93C62F5F988F7180620E947E028C2FA0
:100350000E947E025F9ACF910895FF920F931F93A0
:10036000CF93DF93062F172FF42E5F988F71806243
:100370000E947E02FF2071F0C02FD12F8E010F5FEF
:100380001F4FFA940F0D111D89910E947E02C01714
:10039000D107D1F75F9ADF91CF911F910F91FF9015
:1003A000089545E0BC018AE00E94AD0108955F9880
:1003B00082EE0E947E025F9A08955F9881EE0E940D
:1003C0007E025F9A089580E00E949701682F616025
:1003D00080E00E94A00180E00E949701682F626087
:1003E00080E00E94A00160E787E00E94A0010E94D7
:1003F000D7010E94DD01289A8BE291E00197F1F785
:1004000000C000000895CF93C82F209A579A2898CB
:100410005F9A8FE097E20197F1F700C000006FE06C
:1004200080E00E94A00161E081E00E94A00161E003
:1004300082E00E94A00163E083E00E94A0016FEFD0
:1004400084E00E94A0016C2F85E00E94A00166E27A
:1004500086E00E94A00160E281E10E94A00160E0CC
:100460008CE10E94A0010E94E301CF910895289899
:1004700080E00E949701682F6E7F80E00E94A001BB
:1004800080E00E949701682F626080E00E94A001D6
:1004900060E387E00E94A0010E94DD018BE291E011
:1004A0000197F1F700C0000008950F931F93CF93B9
:1004B000DF93082F192F0E9437025F9880EA0E946D
:1004C0007E02C02FD12F10E089910E947E021F5F13
:1004D0001032D1F75F9A289A85E38A95F1F70000E8
:1004E0002898DF91CF911F910F9108952498239A16
:1004F000259A229A83E58CBD1DBC08958EBD0DB44E
:1005000007FEFDCF8EB5089590E09093C5008093CF
:10051000C40086E08093C20088E18093C100089502
:1005200080933701882331F0E1EBF0E08081826035
:1005300080830895E1EBF0E080818D7F80830895D2
:10054000809144018111FCCF109249010895CF930D
:10055000C82F0E94A00210924801109246011092EA
:10056000450185E080934701C0934901CF910895EB
:10057000609107017091080186E190E00E947F0D73
:100580006091090170910A0182E190E00E947F0D63
:1005900048E050E061E070E088E391E00E945D0D8A
:1005A0006AEA80E090E00E946D0D0895BF92CF92BC
:1005B000DF92EF92FF920F931F93CF93DF93CDB70C
:1005C000DEB7A4970FB6F894DEBF0FBECDBF7C0197
:1005D000C62ED72EB42E4091070150910801A0E0FD
:1005E000B0E0DC019927882760E070E0842B952B30
:1005F000A62BB72B89839A83AB83BC8368E371E016
:10060000CE0101960E94530009811A812B813C8101
:100610000D831E832F833887FA86E9869E01255F26
:100620003F4F4B2D50E06C2D7D2D822F932F0E943C
:10063000380BCE0105960E945502809107019091DA
:100640000801019690930801809307010E94B80267
:100650000E94E301A4960FB6F894DEBF0FBECDBF93
:10066000DF91CF911F910F91FF90EF90DF90CF908E
:10067000BF9008952198299AEBE6F0E0808182608E
:100680008083E8E6F0E08081816080833B98439A34
:10069000ACE6B0E08C9188608C938081826080832E
:1006A000389A4098559A5D98569A5E983D98EEE72C
:1006B000F0E08081806280833C98808180628083CA
:1006C0003E988081806180833E983A9880818460E2
:1006D00080830895009741F0EFECF7E03197F1F750
:1006E00000C000000197C1F708955D9A8CE390E087
:1006F0000E946A035D988CE390E00E946A035D9A11
:100700008CE390E00E946A035D988CE390E00E9485
:100710006A0384EF91E00E946A035D9A8CE390E0A3
:100720000E946A035D988CE390E00E946A035D9AE0
:100730008CE390E00E946A035D988CE390E00E9455
:100740006A03089578941F920F920FB60F921124A6
:100750008F939F9381E08093440180914901882386
:1007600009F449C08091450190914601892B51F0CF
:1007700080914501909146010197909346018093A5
:10078000450139C080914701882331F080914701AC
:1007900081508093470113C080914801882329F03C
:1007A000809149018150809349019091480181E0F5
:1007B000911180E08093480185E08093470180910A
:1007C00049018823B1F080914801882331F05E9877
:1007D0009BB180E289278BB905C05D989BB180E40D
:1007E00089278BB985E090E090934601809345017D
:1007F00002C05D985E98109244019F918F910F9076
:100800000FBE0F901F90189578941F920F920FB6FD
:100810000F9211248F93EF93FF9383B78E7F83BF43
:10082000E8E6F0E080818E7F8083199903C081E043
:1008300080935001E8E6F0E0808181608083FF9141
:10084000EF918F910F900FBE0F901F901895789495
:100850001F920F920FB60F9211248F93EF93FF9375
:1008600083B78E7F83BFE8E6F0E080818D7F808351
:1008700081E080935101808182608083FF91EF91BC
:100880008F910F900FBE0F901F901895AC01837041
:100890009927892BA1F49A013695279536952795A6
:1008A000ABE7B4E10E949A0A9695879564E6689F43
:1008B0009001699F300D112442175307E1F49A010A
:1008C000329522952F7023273F702327AEE3BAE09D
:1008D0000E949A0A20E931E0829FB001839F700D47
:1008E000929F700D112481E090E04617570729F080
:1008F00080E090E0089581E090E0089578941F9260
:100900000F920FB60F921124AF92BF92CF92DF9247
:10091000EF92FF920F931F932F933F934F935F9309
:100920006F937F938F939F93AF93BF93CF93EF93E7
:10093000FF9381E080932E0180934F0180913701D6
:10094000811102C0C1E001C0C8E0E5E0F1E08081B2
:100950008C0F8083A0902F01B0903001C0903101A6
:10096000D0903201E0903301F090340100913501D4
:10097000109136012C2F30E040E050E060E070E054
:1009800080E090E00E94230B20932F0130933001F0
:1009900040933101509332016093330170933401DD
:1009A0008093350190933601339914C080914B01A7
:1009B00090914C01A0914D01B0914E018C0F911D71
:1009C000A11DB11D80934B0190934C01A0934D014B
:1009D000B0934E01809105018C3380F180913701F5
:1009E000882331F0E5E0F1E080818C53808302C000
:1009F00010920501E4E0F1E080818F5F80838091B7
:100A0000400190914101A0914201B0914301892B95
:100A10008A2B8B2B99F08091400190914101A091FC
:100A20004201B09143010197A109B10980934001AE
:100A300090934101A0934201B0934301809104013E
:100A40008C3338F010920401E3E0F1E080818F5F95
:100A5000808380910301883190F010920301E2E0DD
:100A6000F1E080818F5F8083E6E0F1E080818F5F3D
:100A700080838081883018F081E080930601809126
:100A80000201803268F5809102018F3181F48091FA
:100A90000101843029F180910101863009F18091B2
:100AA00001018930E9F0809101018B30C9F080911A
:100AB00002018E3121F480910101823089F0809110
:100AC00002018D31A9F480910101823089F4809175
:100AD000000190E08053984F0E944604811108C0A5
:100AE00081E080930201E1E0F1E080818F5F80830B
:100AF000809101018D3040F0E0E0F1E080818F5F76
:100B0000808381E08093010110922E01FF91EF918B
:100B1000CF91BF91AF919F918F917F916F915F9195
:100B20004F913F912F911F910F91FF90EF90DF9088
:100B3000CF90BF90AF900F900FBE0F901F90189561
:100B40002F923F924F925F926F927F928F929F92DD
:100B5000AF92BF92CF92DF92EF92FF920F931F93CB
:100B6000CF93DF93CDB7DEB72A970FB6F894DEBFE9
:100B70000FBECDBF4D835E836F83788709831A8351
:100B80002B833C83EE2009F46DC06EC0A081A0646D
:100B9000A083B9859A84A081A6FDFDCFB9879A86E6
:100BA000A8E7B0E02D903C90A22CB32CC12CD12C06
:100BB000E12CF12C00E010E00E94230BB985BF5F0F
:100BC000B987AA85BA1710F3AA2EB12CE12C0E947E
:100BD000A80A0E945E0920E030E14BE950E40E943F
:100BE000F109862E972EE82E792EF62FE72F972DD6
:100BF0002D813E814F815885232B242B252B49F4B1
:100C000029813A814B815C81232B242B252B09F4EC
:100C100040C069817A818B819C810E942109282DA5
:100C2000392D4E2D572D0E94F109862E972EE82E34
:100C3000792E69817A818B819C812D813E814F81C2
:100C40005885620F731F841F951F0E9421099B0105
:100C5000AC01682D792D8E2D972D0E94B908F62FA5
:100C6000E72F17C0EE24E39480937C0086E88093FE
:100C70007A0010927B00A0E020E030E040E050E0FD
:100C800060E070E080E090E0EAE7F0E0A987EA86C3
:100C90007DCF6F2F7E2F2A960FB6F894DEBF0FBE42
:100CA000CDBFDF91CF911F910F91FF90EF90DF901B
:100CB000CF90BF90AF909F908F907F906F905F90FC
:100CC0004F903F902F900895EF920F931F93689449
:100CD000EE24E4F800EA16E821E030E048E957EBBA
:100CE00060E070E086E00E94A0051F910F91EF90F8
:100CF0000895EF920F931F936894EE24E4F808E9A7
:100D000017EB20E030E048E957EB60E070E084E06A
:100D10000E94A0051F910F91EF900895EF920F93FD
:100D20001F936894EE24E4F808E917EB20E030E024
:100D300048E957EB60E070E085E00E94A0051F9154
:100D40000F91EF900895EF920F931F93409A85E0D3
:100D500090E00E946A036894EE24E4F800E010E05A
:100D6000980140E050E0BA0182E00E94A00540985E
:100D700020E030E048EC52E40E94540820E030E0EB
:100D800040E251E40E94B90820E030E040E252E441
:100D90000E9454081F910F91EF9008952F923F9257
:100DA0004F925F926F927F928F929F92AF92BF927B
:100DB000CF92DF92EF92FF920F931F93CF93DF9327
:100DC000CDB7DEB76B970FB6F894DEBF0FBECDBFC1
:100DD0000E948E06162F072FF82EE92E0E94790604
:100DE000D62EC72EB82EA92E0E946406962E872EC8
:100DF000782E692E0E94A306562E472E382E292EB5
:100E0000339B03C03EE43B8F02C083E48B8F609131
:100E10004B0170914C0180914D0190914E012CE35A
:100E200030E040E050E00E94780A20914A01862F8D
:100E3000972F883E33E0930710F087EE93E09F935F
:100E40008F931F922F932F923F924F925F926F92A8
:100E50007F928F929F92AF92BF92CF92DF92EF924A
:100E6000FF920F931F931F928B8D8F938FE091E0D2
:100E70009F938F938E010F5F1F4F1F930F930E94BD
:100E8000410B40E2B80186E098E70E94D60210923A
:100E90004A010FB6F894DEBF0FBECDBF6B960FB6FA
:100EA000F894DEBF0FBECDBFDF91CF911F910F91A0
:100EB000FF90EF90DF90CF90BF90AF909F908F907A
:100EC0007F906F905F904F903F902F900895CF93B9
:100ED000DF9300D000D01F92CDB7DEB70E943A0357
:100EE0005098519A89E10E94840280E090E00E942B
:100EF0004F0D8A3AC9F448E050E061E070E088E3C1
:100F000091E00E943F0D82E190E00E94570D909386
:100F10000A018093090186E190E00E94570D9093A9
:100F200008018093070124C080E98093380189E893
:100F30008093390188E780933A0186E580933B01ED
:100F400085E480933C0184E380933D0183E28093B8
:100F50003E0182E180933F0188EE93E090930A0185
:100F60008093090190930801809307010E94B802C1
:100F70000E9476028DE4898382E48A838CE28B83EB
:100F800081E28C8388E58D838EE00E940302CE018E
:100F900001960E94D1010E94E30114BC84E085BD4A
:100FA000EEE6F0E08081816080831092B200E1EB98
:100FB000F0E080818560808380E28093B600E0E786
:100FC000F0E0808181608083789482E390E00E94E9
:100FD0006A030E94750381E00E9490020F2EFEE1D9
:100FE000CF2ED12CE12CF12CF02D809149018111D3
:100FF00019C05D985E985E9A8CE390E00E946A0347
:101000005E9883B7817F866083BF83B7816083BF2B
:10101000889583B78E7F83BF5E9A8CE390E00E94B1
:101020006A035E9880915101882371F0339B08C058
:1010300010924B0110924C0110924D0110924E01F2
:101040000E94CE061092510180915001882329F010
:101050008AE00E94A7021092500180914F018823DC
:1010600021F28091400190914101A0914201B09103
:101070004301892B8A2B8B2BA1F40E948E0620E042
:1010800030E84BE355E40E94ED09882314F00E94F8
:10109000CE06C0924001D0924101E0924201F0920E
:1010A000430110924F01A1CF5058BB27AA270ED061
:1010B0005AC14BD130F050D120F031F49F3F11F4A0
:1010C0001EF440C10EF4E095E7FB36C1E92F5CD178
:1010D00080F3BA17620773078407950718F071F455
:1010E0009EF574C10EF4E0950B2EBA2FA02D0B01C6
:1010F000B90190010C01CA01A0011124FF27591B5D
:1011000099F0593F50F4503E68F11A16F040A22F62
:10111000232F342F4427585FF3CF469537952795D3
:10112000A795F0405395C9F77EF41F16BA0B620BD2
:10113000730B840BBAF09150A1F0FF0FBB1F661F19
:10114000771F881FC2F70EC0BA0F621F731F841F5C
:1011500048F4879577956795B795F7959E3F08F082
:10116000B3CF9395880F08F09927EE0F9795879541
:1011700008950CD0F8C0F0D040F0E7D030F021F462
:101180005F3F19F0D9C0511122C1DCC0FDD098F3E6
:101190009923C9F35523B1F3951B550BBB27AA27F8
:1011A00062177307840738F09F5F5F4F220F331F6A
:1011B000441FAA1FA9F333D00E2E3AF0E0E830D036
:1011C00091505040E695001CCAF729D0FE2F27D039
:1011D000660F771F881FBB1F261737074807AB0707
:1011E000B0E809F0BB0B802DBF01FF2793585F4F7C
:1011F0002AF09E3F510568F09FC0E9C05F3FECF3C5
:10120000983EDCF3869577956795B795F7959F5F40
:10121000C9F7880F911D9695879597F90895E1E094
:10122000660F771F881FBB1F621773078407BA07F3
:1012300020F0621B730B840BBA0BEE1F88F7E0954E
:101240000895E89409C097FB3EF4909580957095B9
:1012500061957F4F8F4F9F4F9923A9F0F92F96E902
:10126000BB279395F695879577956795B795F11177
:10127000F8CFFAF4BB0F11F460FF1BC06F5F7F4F14
:101280008F4F9F4F16C0882311F096E911C0772326
:1012900021F09EE8872F762F05C0662371F096E82F
:1012A000862F70E060E02AF09A95660F771F881FFE
:1012B000DAF7880F9695879597F90895E894F92FAE
:1012C00096EBFF2381F0121613061406440B939538
:1012D000F69587957795679557954040FF23B9F721
:1012E0001BC099270895882351F49850D2F7872B73
:1012F000762F652F542F432F322F20E0B1F3121693
:1013000013061406440B88233AF09A95440F551F90
:10131000661F771F881FCAF755234AF4440F551FCD
:1013200011F460FF04C06F5F7F4F8F4F9F4F880F96
:101330009695879597F9089597F99F6780E870E0EB
:1013400060E008959FEF80EC089500240A9416163B
:10135000170618060906089500240A9412161306A3
:10136000140605060895092E0394000C11F4882331
:1013700052F0BB0F40F4BF2B11F460FF04C06F5F4D
:101380007F4F8F4F9F4F089557FD9058440F551F23
:1013900059F05F3F71F04795880F97FB991F61F0F7
:1013A0009F3F79F087950895121613061406551F6E
:1013B000F2CF4695F1DF08C0161617061806991FDA
:1013C000F1CF86957105610508940895E894BB27CF
:1013D00066277727CB0197F9089566D008F48FEF39
:1013E00008950BD0C0CFB1DF28F0B6DF18F09523F9
:1013F00009F0A2CFA7CF1124EACFC6DFA0F3959FB3
:10140000D1F3950F50E0551F629FF001729FBB27EB
:10141000F00DB11D639FAA27F00DB11DAA1F649F97
:101420006627B00DA11D661F829F2227B00DA11D4A
:10143000621F739FB00DA11D621F839FA00D611DD0
:10144000221F749F3327A00D611D231F849F600DF1
:10145000211D822F762F6A2F11249F5750408AF02A
:10146000E1F088234AF0EE0FFF1FBB1F661F771FB6
:10147000881F91505040A9F79E3F510570F05CCFF6
:10148000A6CF5F3FECF3983EDCF3869577956795A2
:10149000B795F795E7959F5FC1F7FE2B880F911DD4
:1014A0009695879597F90895990F0008550FAA0BFF
:1014B000E0E8FEEF16161706E807F907C0F0121667
:1014C0001306E407F50798F0621B730B840B950B6A
:1014D00039F40A2661F0232B242B252B21F40895BF
:1014E0000A2609F4A140A6958FEF811D811D08955C
:1014F000A1E21A2EAA1BBB1BFD010DC0AA1FBB1F18
:10150000EE1FFF1FA217B307E407F50720F0A21B89
:10151000B30BE40BF50B661F771F881F991F1A94F6
:1015200069F760957095809590959B01AC01BD0120
:10153000CF010895A29FB001B39FC001A39F01D026
:10154000B29F700D811D1124911D0895689401C0F2
:10155000E8948F929F92CF93DF930E94B40ADF9119
:10156000CF919F908F90089588249924F401E401ED
:10157000B0E49F93AA279A158B049C04ED05FE0501
:10158000CF05D007A10798F4AD2FDC2FCF2FFE2F6A
:10159000E92D982C892E982F872F762F652F542F81
:1015A000432F322F2227B85031F7BF9127C01B2E6F
:1015B000BF91BB27220F331F441F551F661F771F84
:1015C000881F991F881C991CEE1FFF1FCC1FDD1F51
:1015D000AA1FBB1F8A149B04EC05FD05CE05DF0581
:1015E000A007B10748F08A189B08EC09FD09CE094D
:1015F000DF09A00BB10B21601A94E1F62EF49401DF
:10160000AF01BE01CD01000C08950F930F7351F08F
:10161000220F331F441F551F661F771F881F991FF6
:101620000A95B1F70F9108950F930F7351F09695A6
:1016300087957795679557954795379527950A9597
:10164000B1F70F9108952A0D3B1D4C1D5D1D6E1DB8
:101650007F1D801F911F08950024A7FD00942A1765
:10166000300540055005600570058005900508951A
:10167000FB01DC0102C001900D9241505040D8F7AF
:101680000895AEE0B0E0E7E4FBE00C94330E0D8982
:101690001E8986E08C831A8309838FEF9FE79E83E0
:1016A0008D83CE014996AC016F89788DCE0101966C
:1016B0000E94630BEF81F885E00FF11F10822E96D8
:1016C000E4E00C944F0EACE0B0E0E9E6FBE00C94F3
:1016D000250E7C016B018A01FC0117821682838131
:1016E00081FFC6C188248394912C8C0E9D1EF70126
:1016F0009381F60193FD859193FF81916F0188237A
:1017000009F4B2C1853239F493FD859193FF81913B
:101710006F01853229F4B70190E00E949B0DE7CF5D
:10172000512C312C20E02032A8F48B3261F028F4C7
:10173000803251F0833271F40BC08D3239F0803336
:1017400049F4216028C02260246025C0286023C09D
:10175000206121C027FD27C0382F30533A3078F45C
:1017600026FF06C0FAE05F9E300D1124532E13C0F1
:101770008AE0389E300D1124332E20620CC08E3248
:1017800021F426FD71C1206406C08C3611F4206856
:1017900002C0883641F4F60193FD859193FF819153
:1017A0006F018111C0CF982F9554933018F090524B
:1017B000933028F40C5F1F4FFFE3F9830DC083368D
:1017C00031F0833771F0833509F05EC023C0F80132
:1017D000808189830E5F1F4F44244394512C540110
:1017E00015C03801F2E06F0E711CF801A080B180C5
:1017F00026FF03C0652D70E002C06FEF7FEFC501CB
:101800002C870E94900D2C0183012C856FE7262EDA
:10181000222218C03801F2E06F0E711CF801A0807E
:10182000B18026FF03C0652D70E002C06FEF7FEF2F
:10183000C5012C870E94850D2C012C8550E8252E92
:10184000222A830123FC1CC006C0B70180E290E07D
:101850000E949B0D3A94832D90E048165906A8F3F8
:101860000FC0F50127FC859127FE81915F01B7012B
:1018700090E00E949B0D31103A94F1E04F1A51080C
:101880004114510471F7EDC0843611F0893641F5E9
:10189000F80127FF07C060817181828193810C5F0D
:1018A0001F4F08C060817181882777FD8095982F30
:1018B0000E5F1F4F4FE6B42EB22297FF09C09095DE
:1018C0008095709561957F4F8F4F9F4FF0E8BF2AAD
:1018D0002AE030E0A4010E94C70DA82EA81843C03A
:1018E000853731F43FEEB32EB2222AE030E024C037
:1018F00099EFB92EB2228F36B9F020F4883509F06D
:10190000B3C00DC0803721F0883709F0ADC002C0E8
:1019100020E1B22AB4FE0BC084E0B82A08C024FF3C
:1019200009C0E6E0BE2A06C028E030E005C020E19C
:1019300030E002C020E132E0F801B7FE07C060816C
:101940007181828193810C5F1F4F06C0608171811C
:1019500080E090E00E5F1F4FA4010E94C70DA82EEB
:10196000A818FFE7BF22B6FE0BC02B2D2E7FA514B3
:1019700050F4B4FE0AC0B2FC08C02B2D2E7E05C068
:101980007A2C2B2D03C07A2C01C0752C24FF0DC09E
:10199000FE01EA0DF11D8081803311F4297E09C01A
:1019A00022FF06C07394739404C0822F867809F0D6
:1019B000739423FD14C020FF0FC05A2C731460F4DD
:1019C000530C5718732C08C0B70180E290E02C87A5
:1019D0000E949B0D73942C857314B0F304C0731490
:1019E00010F4371801C0312C24FF12C0B70180E376
:1019F00090E02C870E949B0D2C8522FF1EC021FFAA
:101A000003C088E590E002C088E790E0B7010CC011
:101A1000822F867891F021FD02C080E201C08BE226
:101A200027FD8DE2B70190E00E949B0D06C0B70133
:101A300080E390E00E949B0D5A94A514C0F3AA94F1
:101A4000F401EA0DF11DB701808190E00E949B0D29
:101A5000A110F5CF06C0B70180E290E00E949B0D77
:101A60003A943110F8CF43CEF7012681378102C076
:101A70002FEF3FEFC9012C96E2E10C94410EDC01FF
:101A8000CB01FC01F999FECF06C0F2BDE1BDF89A89
:101A9000319600B40D9241505040B8F70895F9992D
:101AA000FECF92BD81BDF89A992780B50895A8E12F
:101AB000B0E042E050E00C94410DDC01A40FB51FF2
:101AC0004150504048F0CB01840F951F2E910E9449
:101AD0006E0D41505040D0F70895262FF999FECF52
:101AE00092BD81BDF89A019700B4021639F01FBA71
:101AF00020BD0FB6F894FA9AF99A0FBE0895019690
:101B0000272F0E946E0D0C946D0DFC010590615005
:101B100070400110D8F7809590958E0F9F1F089503
:101B2000FC016150704001900110D8F780959095AC
:101B30008E0F9F1F08950F931F93CF93DF938C01F8
:101B4000EB018B8181FD03C00FEF1FEF1AC082FFF5
:101B50000DC02E813F818C819D812817390764F447
:101B6000E881F9810193F983E88306C0E885F98566
:101B7000802F0995892B41F78E819F8101969F8344
:101B80008E83C801DF91CF911F910F910895FA01C3
:101B9000AA27283051F1203181F1E8946F936E7FAC
:101BA0006E5F7F4F8F4F9F4FAF4FB1E03ED0B4E09D
:101BB0003CD0670F781F891F9A1FA11D680F791FDE
:101BC0008A1F911DA11D6A0F711D811D911DA11DEF
:101BD00020D009F468943F912AE0269F11243019FF
:101BE000305D3193DEF6CF010895462F4770405D9A
:101BF0004193B3E00FD0C9F7F6CF462F4F70405D49
:101C00004A3318F0495D31FD4052419302D0A9F7A3
:101C1000EACFB4E0A6959795879577956795BA959D
:101C2000C9F700976105710508959B01AC010A2E63
:101C300006945795479537952795BA95C9F7620F3A
:101C4000731F841F951FA01D08952F923F924F92DE
:101C50005F926F927F928F929F92AF92BF92CF923C
:101C6000DF92EF92FF920F931F93CF93DF93CDB745
:101C7000DEB7CA1BDB0B0FB6F894DEBF0FBECDBFBD
:101C800009942A88398848885F846E847D848C848E
:101C90009B84AA84B984C884DF80EE80FD800C8197
:101CA0001B81AA81B981CE0FD11D0FB6F894DEBF7A
:0C1CB0000FBECDBFED010895F894FFCFEA
:101CBC001606090C000005E80364002E745C3A2536
:101CCC006323252E316623252E316623252E31667E
:0E1CDC0023252E30662325642325642324004F
:00000001FF
