S00C00006661706F2E7372656372
S11300000C94B5000C94D2000C94D2000C94F1041E
S11300100C9414050C94D2000C94D2000C94D200CD
S11300200C94D2000C9468050C94D2000C94D20069
S11300300C94D2000C94D2000C94D2000C94D200F4
S11300400C948F040C94D2000C94D2000C94D20023
S11300500C94D2000C94D2000C94D2000C94D200D4
S11300600C94D2000C94D2006E616E00696E66002E
S113007000407A10F35A00A0724E18090010A5D45B
S1130080E80000E87648170000E40B54020000CAB8
S11300909A3B000000E1F5050000809698000000FE
S11300A040420F000000A08601000000102700005D
S11300B00000E803000000006400000000000A00E3
S11300C0000000000100000000002C76D888DC67E6
S11300D04F0823DFC1DFAE59E1B1B796E5E3E4533E
S11300E0C63AE651997696E8E6C28426EB898C9B5B
S11300F062ED407C6FFCEFBC9C9F40F2BAA56FA5FB
S1130100F490055A2AF75C936B6CF9676DC11BFC7C
S1130110E0E40D47FEF520E6B500D0ED902E030097
S1130120943577050080841E080000204E0A0000E4
S113013000C80C333333330F986E12831141EF8DA3
S11301402114893BE65516CFFEE6DB18D1844B38E3
S11301501BF77C1D901DA4BBE424203284725E2214
S11301608100C9F124ECA1E53D2711241FBECFEF86
S1130170D8E0DEBFCDBF11E0A0E0B1E0E4E3F6E2F9
S113018002C005900D92AA32B107D9F721E0AAE284
S1130190B1E001C01D92A535B207E1F70E94440900
S11301A00C9418130C9400002F923F924F925F927C
S11301B06F927F928F929F92AF92BF92CF92DF9273
S11301C0EF92FF920F931F93CF93DF93CDB7DEB7D8
S11301D060970FB6F894DEBF0FBECDBF4C017D878C
S11301E06C87DB01BC91BC83FB01F181FD83DB01E6
S11301F01296BC91BE83FB01F381FF83DB0114964D
S1130200BC91B887FB01F581F987DB011696BC9197
S1130210BA87FB01F781FB872C813D814E815F8189
S1130220688579858B2F9F2FE0E1F0E001E00E9443
S1130230EF103197D9F7EC85FD8520833183428314
S1130240538364837583868397836894222424F874
S1130250332431F8AA24A394D401CD90DD90ED90F9
S1130260FC90D701C601B695A79597958795282F39
S11302702170D1FC2260E4FC2460D701C601072E62
S11302807AE1B695A795979587957A95D1F7702DCC
S11302908170FF200CF48260E82FF0E0E95FFE4FEC
S11302A0808190E002C0959587952A95E2F7B82F52
S11302B0B170BE87EC85FD851081E181AC85BD857B
S11302C01296BC91BF87AC85BD8513964C9013974D
S11302D014965C90149715966C90159716967C90CE
S11302E016971796BC904F85417020E030E050E09F
S11302F060E070E080E090E0A0E00E94131119F04B
S1130300BE85BA25BE87C0FE03C0FE85FA25FE87DA
S1130310E0FE03C0BE85BA25BE87212F217030E0E0
S113032040E050E060E070E080E090E00FE30E9485
S1130330B810A22F3B83C42ED52EE62EF72E888B21
S1130340F92F212F3E2F4F85542D652D762D872D86
S11303509B2D0A2D0E94D3102A2BAC85BD852C938E
S1130360BB813B2BAC85BD8511963C9311974C29E1
S113037012964C9312975D2913965C9313976E29EA
S113038014966C9314977F2915967C93B8898B2BBC
S1130390AC85BD8516968C9316979F2B17969C93C8
S11303A0F40180819181A281B381AC01BD01769574
S11303B0679557954795FE858F2F90E0A0E0B0E0B4
S11303C0BB278695B795AA2799278827842B952B31
S11303D0A62BB72BF40180839183A283B383F1E02E
S11303E02F1A310809F038CFEC85FD85BC81B08324
S11303F0BD81B183BE81B283BF81B383B885B48329
S1130400B985B583BA85B683BB85B78360960FB6C5
S1130410F894DEBF0FBECDBFDF91CF911F910F9136
S1130420FF90EF90DF90CF90BF90AF909F908F9010
S11304307F906F905F904F903F902F9008955F98BA
S11304408F710E9464038FEF0E9464035F9A089582
S1130450CF93C62F5F988F7180620E9464038C2FA4
S11304600E9464035F9ACF910895EF92FF920F93D5
S11304701F93CF93DF937B01142F5F988F7180625A
S11304800E946403112371F0E7011150012F10E061
S11304900F5F1F4F0E0D1F1D89910E946403C0172B
S11304A0D107D1F75F9ADF91CF911F910F91FF9000
S11304B0EF90089545E0BC018AE00E94350208955A
S11304C0CF93DF93EC0145E0BC018AE00E94350242
S11304D045E0BE0180E10E943502DF91CF9108958D
S11304E05F9882EE0E9464035F9A08955F9881EE9C
S11304F00E9464035F9A089580E00E941F02682F9F
S1130500616080E00E94280280E00E941F02682F40
S1130510626080E00E94280260E787E00E9428026F
S113052080E00E941F02682F606180E00E94280220
S113053080E00E941F02682F606280E00E9428020F
S11305400E9470020E947602289A8BE291E0019741
S1130550F1F700C000000895CF93C82F209A579A4E
S113056028985F9A8FE097E20197F1F700C00000A6
S11305706FE080E00E94280261E081E00E9428028E
S113058061E082E00E94280263E083E00E94280286
S11305906FEF84E00E9428026C2F85E00E942802FD
S11305A066E286E00E94280260E281E10E9428025D
S11305B060E08CE10E9428020E947C02CF910895A1
S11305C0289880E00E941F02682F6E7F80E00E94BE
S11305D0280280E00E941F02682F626080E00E946F
S11305E0280260E387E00E9428020E9476028BE2E0
S11305F091E00197F1F700C0000008955F988FEF34
S11306000E9464035F9A08950F931F93CF93DF931F
S11306108C015F9881E60E946403E801005E1F4F2D
S11306208FEF0E9464038993C017D107C9F75F9ABB
S113063060E487E00E942802DF91CF911F910F911F
S113064008950F931F93CF93DF938C010E94E002D0
S11306505F9880EA0E946403E801005E1F4F89915D
S11306600E946403C017D107D1F75F9A289A85E3E3
S11306708A95F1F700002898DF91CF911F910F918F
S113068008950E94FE02807408950E94FE02807202
S113069008950E94FE028071089560E487E00E943C
S11306A02802089560E287E00E942802089560E12C
S11306B087E00E94280208952498239A259A229A72
S11306C083E58CBD1DBC08958EBD0DB407FEFDCF22
S11306D08EB5089590E09093C5008093C40086E0A1
S11306E08093C20088E18093C10008958093330110
S11306F0882331F0E1EBF0E080818260808308950B
S1130700E1EBF0E080818D7F808308958091380152
S11307108111FCCF10923D010895CF93C82F0E9400
S1130720860310923C0110923A011092390188E03C
S113073080933B01C0933D01CF91089548E050E080
S113074061E070E089E491E00E94F012609151014F
S11307507091520189E090E00E941213609153015C
S1130760709154018BE090E00E9412136AEA80E0D9
S113077090E00E9400130895DF92EF92FF920F938E
S11307801F93CF93DF93CDB7DEB7A4970FB6F8943A
S1130790DEBF0FBECDBF8C017B01D42E409153012F
S11307A050915401A0E0B0E0DC019927882760E073
S11307B070E0842B952BA62BB72B89839A83AB836C
S11307C0BC8369E471E0CE0101960E94D400898162
S11307D09A81AB81BC818D839E83AF83B8871A874E
S11307E009874D2D50E0B701CE010B960E940212ED
S11307F0CE0105960E94210306C08FEC97E0019775
S1130800F1F700C000000E944903811104C00E9456
S11308104503882391F30E944903882319F00E9419
S113082057030DC080915301909154010196909308
S11308305401809353010E949E030E9452030E941C
S11308407C02A4960FB6F894DEBF0FBECDBFDF9135
S1130850CF911F910F91FF90EF90DF900895219811
S1130860299AEBE6F0E0808182608083E8E6F0E09C
S11308708081816080833B98439A389A4098559A46
S11308805D98569A5E983D98EEE7F0E0808180622C
S113089080833C988081806280833E9880818061DF
S11308A080833E983A98808184608083089500977D
S11308B041F0EFECF7E03197F1F700C00000019749
S11308C0C1F708955D9A8CE390E00E9457045D9807
S11308D08CE390E00E9457045D9A8CE390E00E94C0
S11308E057045D988CE390E00E94570484EF91E0F4
S11308F00E9457045D9A8CE390E00E9457045D982F
S11309008CE390E00E9457045D9A8CE390E00E948F
S113091057045D988CE390E00E94570408957894FE
S11309201F920F920FB60F9211248F939F9381E021
S11309308093380180913D01882309F449C0809156
S1130940390190913A01892B51F0809139019091AC
S11309503A01019790933A018093390139C080910B
S11309603B01882331F080913B01815080933B010E
S113097013C080913C01882329F080913D0181506E
S113098080933D0190913C0181E0911180E080933E
S11309903C0188E080933B0180913D018823B1F0C4
S11309A080913C01882331F05E989BB180E28927D5
S11309B08BB905C05D989BB180E489278BB985E02C
S11309C090E090933A018093390102C05D985E985B
S11309D0109238019F918F910F900FBE0F901F902E
S11309E0189578941F920F920FB60F9211248F933B
S11309F0EF93FF9383B78E7F83BFE8E6F0E08081B7
S1130A008E7F8083199903C081E080934501E8E6D5
S1130A10F0E0808181608083FF91EF918F910F904E
S1130A200FBE0F901F90189578941F920F920FB6D7
S1130A300F9211248F93EF93FF9383B78E7F83BF1D
S1130A40E8E6F0E080818D7F808381E08093460139
S1130A50808182608083FF91EF918F910F900FBE10
S1130A600F901F901895AC0183709927892BA1F4DE
S1130A709A013695279536952795ABE7B4E10E9400
S1130A8013109695879564E6689F9001699F300DD1
S1130A90112442175307D1F49A01329522952F70ED
S1130AA023273F702327AEE3BAE00E94131060E9C6
S1130AB071E0869F9001879F300D969F300D112421
S1130AC081E04217530719F080E0089581E008950A
S1130AD078941F920F920FB60F921124AF92BF9287
S1130AE0CF92DF92EF92FF920F931F932F933F9336
S1130AF04F935F936F937F938F939F93AF93BF9322
S1130B00EF93FF9381E080932A01809344018091C5
S1130B103301882311F0E8E001C0E1E0A0E0B1E096
S1130B2015968C9115978E0F15968C93A0902B018A
S1130B30B0902C01C0902D01D0902E01E0902F0197
S1130B40F090300100913101109132012E2F30E0EC
S1130B5040E050E060E070E080E090E00E940A1124
S1130B6020932B0130932C0140932D0150932E019F
S1130B7060932F017093300180933101909332017F
S1130B80339914C08091400190914101A091420198
S1130B90B09143018E0F911DA11DB11D80934001A1
S1130BA090934101A0934201B093430180910501C8
S1130BB08C3380F180913301882331F0E0E0F1E05F
S1130BC085818C53858302C010920501E0E0F1E039
S1130BD084818F5F84838091340190913501A09149
S1130BE03601B0913701892B8A2B8B2B99F0809198
S1130BF0340190913501A0913601B09137010197EC
S1130C00A109B1098093340190933501A093360171
S1130C10B0933701809104018C3330F0E0E0F1E0CF
S1130C20148283818F5F838380910301883178F0FC
S1130C30E0E0F1E0138282818F5F828386818F5F9F
S1130C4086838681883018F081E080930601809144
S1130C500201803268F5809102018F3181F4809124
S1130C600101843029F180910101863009F18091DC
S1130C7001018930E9F0809101018B30C9F0809144
S1130C8002018E3121F480910101823089F080913A
S1130C9002018D31A1F480910101823081F48091AF
S1130CA0000190E08053984F0E943305811107C0E2
S1130CB0E0E0F1E081E0828381818F5F8183809134
S1130CC001018D3038F0E0E0F1E080818F5F8083B6
S1130CD081E0818310922A01FF91EF91BF91AF913E
S1130CE09F918F917F916F915F914F913F912F9140
S1130CF01F910F91FF90EF90DF90CF90BF90AF9036
S1130D000F900FBE0F901F9018952F923F924F9205
S1130D105F926F927F928F929F92AF92BF92CF9287
S1130D20DF92EF92FF920F931F93CF93DF93CDB790
S1130D30DEB72C970FB6F894DEBF0FBECDBF4D8340
S1130D405E836F83788709831A832B833C834E2CBD
S1130D50E11071C0442443946EC080818064808318
S1130D609A852985BB85AC85808186FDFDCF9A87D0
S1130D702987BB87AC87D1018D909C90282D392D74
S1130D8040E050E060E070E080E090E0A72CB52CFB
S1130D90CA84D984EB84FC840E940A11722E532ED7
S1130DA04A8759876B877C87082F192F63946414AB
S1130DB0A0F2A42CB12CC12CD12CE12CF12C00E0FC
S1130DC010E0272D0E9424100E944F0B20E030E4F5
S1130DD04EE450E40E94070C062F172F8A87998748
S1130DE020E030E0A90169817A818B819C810E9495
S1130DF0D80A8823D9F02D813E814F815885698195
S1130E007A818B819C810E946C0A29813A814B8171
S1130E105C810E94DD0A202F312F4A8559850E946A
S1130E20070C062F172F8D83998321C0BA85BD83A4
S1130E30898589831CC080937C0086E880937A002E
S1130E4010927B00712C40E050E0B0E0A0E0512C07
S1130E50612CEAE7F0E00F2EF8E72F2E312CF02D6D
S1130E604A875987BB87AC87052D162D76CF602F0F
S1130E70712F8D8199812C960FB6F894DEBF0FBE29
S1130E80CDBFDF91CF911F910F91FF90EF90DF9035
S1130E90CF90BF90AF909F908F907F906F905F9016
S1130EA04F903F902F900895EF920F931F93409A85
S1130EB085E090E00E9457046894EE24E4F800E092
S1130EC010E09801B901A80182E00E9485064098CB
S1130ED020E030E048EC52E40E946B0A20E030E06D
S1130EE040E251E40E94DD0A20E030E040E252E4B6
S1130EF00E946B0A1F910F91EF900895EF920F9348
S1130F001F936894EE24E4F800E018E927E337E43B
S1130F10B901A80185E00E9485061F910F91EF9009
S1130F200895EF920F931F936894EE24E4F800E081
S1130F3018E927E337E4B901A80184E00E94850693
S1130F401F910F91EF900895EF920F931F93689460
S1130F50EE24E4F800E010E523EC37E440E058E93F
S1130F6067E377E486E00E9485061F910F91EF9076
S1130F7008952F923F924F925F926F927F928F9239
S1130F809F92AF92BF92FF920F931F93CF93DF93E1
S1130F90CDB7DEB76E970FB6F894DEBF0FBECDBFE8
S1130FA00E947E076B8F7C8F8D8F9E8F0E9491078E
S1130FB04B015C010E94A4072B013C010E945407D1
S1130FC0F62E072F382E292E339902C013E401C0C0
S1130FD01EE4609140017091410180914201909121
S1130FE043012CE330E040E050E00E94F10F283E42
S1130FF083E0380710F027EE33E080913E01843619
S113100018F083E680933E0180913E013F932F9335
S11310101F928F932F923F920F93FF9220E030E024
S11310204AE754E4C301B2010E94DD0A9F938F93FF
S11310307F936F9320E030E04AE754E4C501B401A4
S11310400E94DD0A9F938F937F936F9320E030E09B
S11310504AE754E46B8D7C8D8D8D9E8D0E94DD0A54
S11310609F938F937F936F931F921F938BE091E0D5
S11310709F938F938E010F5F1F4F1F930F930E94B7
S113108052124AE1B80186E098E70E94BC0310922C
S11310903E010FB6F894DEBF0FBECDBF6E960FB6FD
S11310A0F894DEBF0FBECDBFDF91CF911F910F919A
S11310B0FF90BF90AF909F908F907F906F905F90C4
S11310C04F903F902F900895460F571F6417750750
S11310D048F46817790778F421E04817590770F441
S11310E020E00CC06817790740F021E04817590741
S11310F028F420E003C020E001C021E0822F0895FD
S1131100CF92DF92EF92FF920F931F93CF93DF93CF
S1131110EC018A81CB80D12CE12CF12CFC2CEE2427
S1131120DD24CC24E82A8881A7019601282BDA0142
S1131130C901C980D12CDC2CCC24E12CF12CC82A87
S1131140D92AEA2AFB2A8C812D8190E0922BE81679
S1131150F90609F066C0D0925201C0925101D092B2
S11311604801C09247010E949E0339E1E31635E528
S1131170F30641F158F456E9E51654E2F506C1F0D8
S113118086E0E81687E4F806A1F175C027E8E216C0
S113119020E6F20609F442C033E8E31636E7F30624
S11311A051F048E2E41646E5F40609F064C007C0CD
S11311B00E94860360C08E810E948D035CC00E94E1
S11311C0620459C080912A018111FCCF1092B100B0
S11311D087E0FE013696A0E0B1E001900D928A9579
S11311E0E1F7809133010E94760381E080933F010F
S11311F042C07E816F81588549853A852B859C85BF
S11312008D85E9E4F1E07083618352834383348301
S11312102583968387830E949E032DC00E94B9076D
S11312202AC060914701709148014FEF5FE7C60102
S11312300E9464088823A1F06091470170914801DD
S113124041E050E0C6010E946408882321F0D09256
S11312505201C0925101D0924801C092470105C089
S113126080913E018F5F80933E015D9A84EF91E00F
S11312700E9457045D98DF91CF911F910F91FF90C9
S1131280EF90DF90CF900895CF93DF93CDB7DEB783
S1131290A5970FB6F894DEBF0FBECDBF0E942F04F2
S11312A05098519A89E10E946A0380E090E00E947C
S11312B0E2128A3AC9F448E050E061E070E089E45F
S11312C091E00E94D21289E090E00E94EA12909389
S11312D05201809351018BE090E00E94EA129093B6
S11312E054018093530124C080E98093490189E823
S11312F080934A0188E780934B0186E580934C01F3
S113130085E480934D0184E380934E0183E28093CE
S11313104F0182E18093500188EE93E09093520153
S11313208093510190935401809353010E949E0332
S1131330809151019091520190934801809347010B
S11313400E945C038DE4898382E48A838CE28B832C
S113135081E28C8388E58D838EE00E94AC02CE010D
S113136001960E945A02CE0101960E9460020E94D8
S11313707C0214BC84E085BDEEE6F0E080818160EF
S113138080831092B200E1EBF0E08081856080837D
S113139080E28093B600E0E7F0E0808181608083A2
S11313A0789482E390E00E94570413E05E9A5D9A79
S11313B084E690E00E9457045E985D9884E690E08D
S11313C00E945704115091F788EC90E00E94570452
S11313D081E00E9476030F2EF3E0CF2ED12CE12C76
S11313E0F12CF02D80913D01811121C05D985E9812
S11313F05E9A82E390E00E9457045E9882E390E054
S11314000E94570483B7817F866083BF83B781605E
S113141083BF889583B78E7F83BF5E9A82E390E013
S11314200E9457045E9882E390E00E9457048091E2
S11314304601882371F0339B08C01092400110923A
S1131440410110924201109243010E94B907109287
S11314504601809145018823B1F00E944103811126
S11314600BC00FC0CE0106960E9404030E944D03D8
S1131470CE0106960E94800887E10E941F0280FF29
S1131480F1CF1092450180914401882309F4AACF39
S11314908091340190913501A0913601B0913701CA
S11314A0892B8A2B8B2BA1F40E947E0720E030E449
S11314B04CE155E40E94020C882314F00E94B90701
S11314C0C0923401D0923501E0923601F092370196
S11314D01092440187CF5058BB27AA270E94830A41
S11314E00C94C80B0E94BA0B38F00E94C10B20F078
S11314F039F49F3F19F426F40C94B70B0EF4E095DD
S1131500E7FB0C94B10BE92F0E94D90B58F3BA17DF
S1131510620773078407950720F079F4A6F50C9405
S1131520FB0B0EF4E0950B2EBA2FA02D0B01B90185
S113153090010C01CA01A0011124FF27591B99F045
S1131540593F50F4503E68F11A16F040A22F232F51
S1131550342F4427585FF3CF469537952795A795A1
S1131560F0405395C9F77EF41F16BA0B620B730B48
S1131570840BBAF09150A1F0FF0FBB1F661F771FB9
S1131580881FC2F70EC0BA0F621F731F841F48F46E
S1131590879577956795B795F7959E3F08F0B0CFF7
S11315A09395880F08F09927EE0F979587950895DE
S11315B00E948D0B08F481E008950E94F10A0C94B6
S11315C0C80B0E94C10B58F00E94BA0B40F029F4DA
S11315D05F3F29F00C94B10B51110C94FC0B0C944B
S11315E0B70B0E94D90B68F39923B1F3552391F3F8
S11315F0951B550BBB27AA2762177307840738F07E
S11316009F5F5F4F220F331F441FAA1FA9F335D0DA
S11316100E2E3AF0E0E832D091505040E695001C8E
S1131620CAF72BD0FE2F29D0660F771F881FBB1F48
S1131630261737074807AB07B0E809F0BB0B802D26
S1131640BF01FF2793585F4F3AF09E3F510578F052
S11316500C94B10B0C94FC0B5F3FE4F3983ED4F371
S1131660869577956795B795F7959F5FC9F7880F26
S1131670911D9695879597F90895E1E0660F771F78
S1131680881FBB1F621773078407BA0720F0621B09
S1131690730B840BBA0BEE1F88F7E0950895E8945A
S11316A0F92F96EBFF2381F0121613061406440B50
S11316B09395F69587957795679557954040FF23C1
S11316C0B9F71BC099270895882351F49850D2F78D
S11316D0872B762F652F542F432F322F20E0B1F321
S11316E0121613061406440B88233AF09A95440FF5
S11316F0551F661F771F881FCAF755234AF4440FE6
S1131700551F11F460FF04C06F5F7F4F8F4F9F4FD1
S1131710880F9695879597F90895990F0008550FA6
S1131720AA0BE0E8FEEF16161706E807F907C0F063
S113173012161306E407F50798F0621B730B840B6B
S1131740950B39F40A2661F0232B242B252B21F445
S113175008950A2609F4A140A6958FEF811D811DE5
S1131760089597F99F6780E870E060E008959FEF1F
S113177080EC089500240A94161617061806090624
S1131780089500240A9412161306140605060895F3
S1131790092E0394000C11F4882352F0BB0F40F47B
S11317A0BF2B11F460FF04C06F5F7F4F8F4F9F4FBB
S11317B0089557FD9058440F551F59F05F3F71F03D
S11317C04795880F97FB991F61F09F3F79F08795A4
S11317D00895121613061406551FF2CF4695F1DF2D
S11317E008C0161617061806991FF1CF86957105BD
S11317F0610508940895E894BB2766277727CB01F1
S113180097F908950E948D0B08F48FEF08950E94B4
S11318101A0C0C94C80B0E94BA0B38F00E94C10B2E
S113182020F0952311F00C94B10B0C94B70B1124F8
S11318300C94FC0B0E94D90B70F3959FC1F3950F88
S113184050E0551F629FF001729FBB27F00DB11D40
S1131850639FAA27F00DB11DAA1F649F6627B00DD0
S1131860A11D661F829F2227B00DA11D621F739FB9
S1131870B00DA11D621F839FA00D611D221F749FC7
S11318803327A00D611D231F849F600D211D822F0E
S1131890762F6A2F11249F5750409AF0F1F0882335
S11318A04AF0EE0FFF1FBB1F661F771F881F915062
S11318B05040A9F79E3F510580F00C94B10B0C9455
S11318C0FC0B5F3FE4F3983ED4F3869577956795D8
S11318D0B795F795E7959F5FC1F7FE2B880F911D8C
S11318E09695879597F90895A0E1B0E0EAE7FCE0C2
S11318F00C9481107C011B016A01FC011782168281
S1131900838181FF44C39E012F5F3F4F3901F7015B
S11319109381F10193FD859193FF81911F018823A8
S113192009F431C3853239F493FD859193FF819194
S11319301F01853239F4B70190E00E941612560156
S11319406501E5CF10E0512C912CFFE1F915D8F099
S11319508B3279F038F4803279F08332A1F4F92DA6
S1131960F0612EC08D3261F0803369F4292D21603D
S11319702DC0392D3260932E892D8460982E2AC073
S1131980E92DE86015C097FC2DC020ED280F2A3002
S113199088F496FE06C03AE0139F200D1124122FFE
S11319A019C08AE0589E200D1124522EE92DE062C0
S11319B09E2E10C08E3231F496FCE5C2F92DF064EF
S11319C09F2E08C08C3621F4292D2068922E02C047
S11319D0883641F4F10193FD859193FF81911F01B4
S11319E08111B3CF9BEB980F933020F4992D906124
S11319F0805E07C09BE9980F933008F066C1992D6B
S1131A009F7E96FF16E09F73992E853619F4906495
S1131A10992E08C0863621F4392F3068932E02C0DF
S1131A201111115097FE07C01C3350F44424439401
S1131A30410E27E00BC0183038F027E017E005C04E
S1131A4027E09CE3492E02C0212F412C560184E05B
S1131A50A80EB11CF6016081718182819381042DED
S1131A60A3010E941F116C01F981FC87F0FF02C0E1
S1131A70F3FF06C091FC06C092FE06C000E205C05A
S1131A800DE203C00BE201C000E08C858C7019F0FC
S1131A9001115AC29BC297FE10C04C0CFC85F4FF86
S1131AA004C08A81813309F44A94141474F528E03B
S1131AB0241578F588E0482E2CC096FC2AC0812F86
S1131AC090E08C159D059CF03CEFC3163FEFD306C8
S1131AD074F0892D8068982E0AC0E2E0F0E0EC0FE3
S1131AE0FD1FE10FF11D8081803319F41150111194
S1131AF0F4CF97FE0EC044244394410E812F90E00E
S1131B00C816D9062CF41C1904C04424439401C0FB
S1131B1010E097FE06C01C141D0434F4C60101969F
S1131B2005C085E090E002C081E090E001110196DB
S1131B30112331F0212F30E02F5F3F4F820F931F8D
S1131B40252D30E08217930714F4581A01C0512C44
S1131B50892D897049F4552039F0B70180E290E06D
S1131B600E9416125A94F7CF002329F0B701802F50
S1131B7090E00E94161293FC09C0552039F0B70179
S1131B8080E390E00E9416125A94F7CF97FE4CC05F
S1131B904601D7FE02C0812C912CC60188199909EF
S1131BA0F301E80FF91FFE87ED8796012419310927
S1131BB0388B2F87012F10E01195019511093FEF04
S1131BC08316930629F4B7018EE290E00E94161260
S1131BD0C814D9044CF08F8598898815990524F484
S1131BE0ED85FE85818101C080E3F1E08F1A9108C3
S1131BF02D853E852F5F3F4F3E872D8780169106AA
S1131C002CF0B70190E00E941612D9CFC814D90461
S1131C1041F49A81963320F4953319F43C8534FFCA
S1131C2081E3B70190E04EC08A81813319F09C852D
S1131C309F7E9C87B70190E00E941612111105C087
S1131C4094FC18C085E690E017C0B7018EE290E0DE
S1131C500E9416121E5F82E001E0080FF301E80FF4
S1131C60F11D8081B70190E00E941612802F0113AC
S1131C70F3CFE6CF85E490E0B7010E941612D7FCBB
S1131C8006C0C114D10441F4EC85E4FF05C0D1942D
S1131C90C194D1088DE201C08BE2B70190E00E94AB
S1131CA0161280E32AE0C216D1042CF08F5FFAE00A
S1131CB0CF1AD108F7CFB70190E00E941612B701EE
S1131CC0C601C0960E94161254C1833631F0833780
S1131CD079F0833509F056C020C0560132E0A30ED6
S1131CE0B11CF6018081898301E010E0630112C018
S1131CF05601F2E0AF0EB11CF601C080D18096FE11
S1131D0003C0612F70E002C06FEF7FEFC6010E9435
S1131D100B128C01F92DFF7714C0560122E0A20E9C
S1131D20B11CF601C080D18096FE03C0612F70E023
S1131D3002C06FEF7FEFC6010E94F7118C01F92DED
S1131D40F0689F2EF3FD1AC0852D90E0081719073F
S1131D50A8F4B70180E290E00E9416125A94F4CFDE
S1131D60F60197FC859197FE81916F01B70190E090
S1131D700E94161251105A940150110901151105AF
S1131D8079F7F7C0843611F0893661F5560197FE6C
S1131D9009C024E0A20EB11CF60160817181828128
S1131DA093810AC0F2E0AF0EB11CF601608171812B
S1131DB0072E000C880B990BF92DFF769F2E97FFA9
S1131DC009C090958095709561957F4F8F4F9F4F77
S1131DD0F0689F2E2AE030E0A3010E947412C82EFE
S1131DE0C6183FC0092D853721F40F7E2AE030E064
S1131DF01DC0097F8F3691F018F4883559F0C3C09F
S1131E00803719F0883711F0BEC0006104FF09C0A3
S1131E10046007C094FE08C0066006C028E030E0F5
S1131E2005C020E130E002C020E132E0560107FFA6
S1131E3009C084E0A80EB11CF60160817181828121
S1131E40938108C0F2E0AF0EB11CF601608171818C
S1131E5080E090E0A3010E947412C82EC6180F7788
S1131E60902E96FE0BC0092D0E7FC11650F494FEE1
S1131E700AC092FC08C0092D0E7E05C0DC2C092D79
S1131E8003C0DC2C01C0D12E04FF0DC0FE01EC0DFB
S1131E90F11D8081803311F4097E09C002FF06C060
S1131EA0D394D39404C0802F867809F0D39403FD8F
S1131EB011C000FF06C01C2DD51480F4150D1D198A
S1131EC00DC0D51458F4B70180E290E00E941612B8
S1131ED0D394F7CFD51410F45D1801C0512C04FF2E
S1131EE010C0B70180E390E00E94161202FF17C0F1
S1131EF001FD03C088E790E002C088E590E0B701E7
S1131F000CC0802F867859F001FF02C08BE201C01B
S1131F1080E207FD8DE2B70190E00E941612C1161F
S1131F2038F4B70180E390E00E9416121150F7CF05
S1131F30CA94F301EC0DF11D8081B70190E00E9479
S1131F401612C110F5CF15C0F4E0F51560F584E064
S1131F50581A93FE1FC0011127C02C8523FF2AC0E5
S1131F6008E610E0392D3071932EF8018491811127
S1131F7024C0552009F4E4CCB70180E290E00E942B
S1131F8016125A94F6CFF7018681978126C08FEFF7
S1131F909FEF23C0B70180E290E00E9416125A948A
S1131FA05110F8CFD8CF512CB701802F90E00E9468
S1131FB01612D3CF0CE610E0D5CF91108052B701A2
S1131FC090E00E9416120F5F1F4FCFCF23E025151C
S1131FD010F483E0BDCF512CC0CF6096E2E10C94A5
S1131FE09D10A1E21A2EAA1BBB1BFD010DC0AA1F46
S1131FF0BB1FEE1FFF1FA217B307E407F50720F06E
S1132000A21BB30BE40BF50B661F771F881F991FE8
S11320101A9469F760957095809590959B01AC0131
S1132020BD01CF010895A29FB001B39FC001A39F3A
S1132030700D811D1124911DB29F700D811D1124FD
S1132040911D0895689401C0E8948F929F92CF9354
S1132050DF930E943010DF91CF919F908F9008956D
S113206088249924F401E401B0E49F93AA279A15E3
S11320708B049C04ED05FE05CF05D007A10798F459
S1132080AD2FDC2FCF2FFE2FE92D982C892E982FE2
S1132090872F762F652F542F432F322F2227B850A6
S11320A031F7BF9127C01B2EBF91BB27220F331FCF
S11320B0441F551F661F771F881F991F881C991C72
S11320C0EE1FFF1FCC1FDD1FAA1FBB1F8A149B041A
S11320D0EC05FD05CE05DF05A007B10748F08A1819
S11320E09B08EC09FD09CE09DF09A00BB10B2160A7
S11320F01A94E1F62EF49401AF01BE01CD01000C57
S113210008952F923F924F925F926F927F928F9297
S11321109F92AF92BF92CF92DF92EF92FF920F9372
S11321201F93CF93DF93CDB7DEB7CA1BDB0B0FB67C
S1132130F894DEBF0FBECDBF09942A883988488839
S11321405F846E847D848C849B84AA84B984C884CF
S1132150DF80EE80FD800C811B81AA81B981CE0FC6
S1132160D11D0FB6F894DEBF0FBECDBFED010895AB
S11321700F93083090F0982F872F762F652F542FC8
S1132180432F322F22270850F4CF220F331F441F2E
S1132190551F661F771F881F991F0A95B2F70F9165
S11321A0089597FB10F8169400080F93083098F0E0
S11321B00850232F342F452F562F672F782F892F20
S11321C0902DF4CF059497958795779567955795B6
S11321D04795379527950A95AAF70F9108950F9378
S11321E00830A0F00850092E982F872F762F652FDE
S11321F0542F432F322F202DF3CF220F331F441F90
S1132200551F661F771F881F991F211D0A95AAF75E
S11322100F9108952A0D3B1D4C1D5D1D6E1D7F1DE4
S1132220801F911F08950024A7FD00942A173005EC
S11322304005500560057005800590050895283017
S113224008F027E03327DA01990F311D87FD9160EB
S113225000966105710539F432602E5F3D9330E3D9
S11322602A95E1F708959F3F30F0803871056105A4
S113227009F03C5F3C5F3D93913008F08068911D0C
S1132280DF93CF931F930F93FF92EF92192F987FB1
S11322909695E92F96959695E90FFF27E653FF4FFC
S11322A099273327EE24FF24A701E701059008941A
S11322B0079428F4360FE71EF81E491F511D660FB8
S11322C0771F881F991F0694A1F70590079428F497
S11322D0E70EF81E491F561FC11D770F881F991F4F
S11322E0661F0694A1F70590079428F4F80E491F79
S11322F0561FC71FD11D880F991F661F771F06948D
S1132300A1F70590079420F4490F561FC71FD81F43
S1132310990F661F771F881F0694A9F7849110955B
S1132320177041F0D695C79557954795F794E7945C
S11323301A95C1F7E0E7F0E068941590159135918E
S11323406591959105907FE27395E118F10A430B2D
S1132350560BC90BD009C0F7E10CF11E431F561FE1
S1132360C91FD01D7EF4703311F48A95E6CFE8942A
S1132370015030F0080F0AF40027021708F4202F48
S11323802395022F7A3328F079E37D932A95E9F790
S113239010C07D932A9589F606949795679537958D
S11323A017951794E118F10A430B560BC90BD00982
S11323B098F023957E9173957A3308F070E37C93BB
S11323C02013B8F77E9170617D9330F0839571E3AB
S11323D07D9370E32A95E1F71124EF90FF900F911C
S11323E01F91CF91DF91992787FD90950895FC0166
S11323F00590615070400110D8F7809590958E0F2C
S11324009F1F0895FB01DC0102C001900D92415011
S11324105040D8F70895FC016150704001900110BC
S1132420D8F7809590958E0F9F1F08950F931F9353
S1132430CF93DF93FB01238121FD03C08FEF9FEF37
S11324402CC022FF16C04681578124813581421752
S1132450530744F4A081B1819D012F5F3F4F318325
S113246020838C93268137812F5F3F4F37832683C8
S113247014C08B01EC01FB010084F185E02D09956A
S1132480892BE1F6D80116968D919C9117970196A8
S113249017969C938E931697CE01DF91CF911F913F
S11324A00F910895AEE0B0E0E8E5F2E10C948F10EE
S11324B00D891E8986E08C831A8309838FEF9FE739
S11324C09E838D83AE01475E5F4F6F89788DCE0109
S11324D001960E94740CEF81F885E00FF11F1082C1
S11324E02E96E4E00C94AB10FA01AA27283051F19F
S11324F0203181F1E8946F936E7F6E5F7F4F8F4F31
S11325009F4FAF4FB1E03ED0B4E03CD0670F781F8F
S1132510891F9A1FA11D680F791F8A1F911DA11D74
S11325206A0F711D811D911DA11D20D009F46894AD
S11325303F912AE0269F11243019305D3193DEF655
S1132540CF010895462F4770405D4193B3E00FD00B
S1132550C9F7F6CF462F4F70405D4A3318F0495DF6
S113256031FD4052419302D0A9F7EACFB4E0A695D9
S11325709795879577956795BA95C9F700976105FB
S1132580710508959B01AC010A2E06945795479551
S113259037952795BA95C9F7620F731F841F951F46
S11325A0A01D0895DC01CB01FC01F999FECF06C002
S11325B0F2BDE1BDF89A319600B40D9241505040FD
S11325C0B8F70895F999FECF92BD81BDF89A99277D
S11325D080B50895A8E1B0E042E050E00C94D41234
S11325E0DC01A40FB51F4150504048F0CB01840FCB
S11325F0951F2E910E94011341505040D0F7089529
S1132600262FF999FECF92BD81BDF89A019700B4A7
S1132610021639F01FBA20BD0FB6F894FA9AF99A47
S11326200FBE08950196272F0E9401130C940013E6
S1072630F894FFCF48
S11326341606090C0000042E745C3A256323252E27
S1132644316623252E316623252E326623252E302A
S10D26546623256423256423240073
S9030000FC
