:100000000C9434000C9451000C9451000C94AA02EE
:100010000C94CD020C9451000C9451000C9451009E
:100020000C9451000C9424030C9451000C94510036
:100030000C9451000C9451000C9451000C945100FC
:100040000C9448020C9451000C9451000C945100F3
:100050000C9451000C9451000C9451000C945100DC
:100060000C9451000C94510011241FBECFEFD8E026
:10007000DEBFCDBF11E0A0E0B1E0E8EEFAE102C0E2
:1000800005900D92A632B107D9F721E0A6E2B1E0C2
:1000900001C01D92A135B207E1F70E9409070C9437
:1000A000720D0C9400005F988F710E943A018FEFDF
:1000B0000E943A015F9A0895CF93C62F5F988F717F
:1000C00080620E943A018C2F0E943A015F9ACF9180
:1000D0000895FF920F931F93CF93DF93062F172F4F
:1000E000F42E5F988F7180620E943A01FF2071F0B8
:1000F000C02FD12F8E010F5F1F4FFA940F0D111DCE
:1001000089910E943A01C017D107D1F75F9ADF9118
:10011000CF911F910F91FF90089545E0BC018AE0B7
:100120000E94690008955F9882EE0E943A015F9AEA
:1001300008955F9881EE0E943A015F9A089580E0E9
:100140000E945300682F616080E00E945C0080E0A4
:100150000E945300682F626080E00E945C0060E7AC
:1001600087E00E945C000E9493000E949900289AF8
:100170008BE291E00197F1F700C000000895CF9362
:10018000C82F209A579A28985F9A8FE097E2019794
:10019000F1F700C000006FE080E00E945C0061E0C9
:1001A00081E00E945C0061E082E00E945C0063E00C
:1001B00083E00E945C006FEF84E00E945C006C2F83
:1001C00085E00E945C0066E286E00E945C0060E2DE
:1001D00081E10E945C0060E08CE10E945C000E9472
:1001E0009F00CF910895289880E00E945300682FC7
:1001F0006E7F80E00E945C0080E00E945300682FC8
:10020000626080E00E945C0060E387E00E945C0026
:100210000E9499008BE291E00197F1F700C0000085
:1002200008950F931F93CF93DF93082F192F0E94E8
:10023000F3005F9880EA0E943A01C02FD12F10E0AE
:1002400089910E943A011F5F1032D1F75F9A289A74
:1002500085E38A95F1F700002898DF91CF911F91EF
:100260000F9108952498239A259A229A83E58CBDAC
:100270001DBC08958EBD0DB407FEFDCF8EB508954B
:1002800090E09093C5008093C40086E08093C20004
:1002900088E18093C100089580932F01882331F075
:1002A000E1EBF0E08081826080830895E1EBF0E093
:1002B00080818D7F80830895809134018111FCCFEE
:1002C000109239010895CF93C82F0E945C011092BB
:1002D0003801109236011092350185E08093370184
:1002E000C0933901CF91089548E050E061E070E09B
:1002F00085E491E00E94730C60914D0170914E0174
:1003000089E090E00E94950C60914F01709150013E
:100310008BE090E00E94950C6AEA80E090E00E94F9
:10032000830C0895CF92DF92EF92FF920F931F9369
:10033000CF93DF93CDB7DEB7A0970FB6F894DEBFAB
:100340000FBECDBFC0904F01D09050018C0120E076
:1003500030E0980111270027E12CF12C0C291D29F0
:100360002E293F2909831A832B833C839E838D8307
:100370009E01295F3F4F50E0822F932F0E944E0A2B
:10038000CE0101960E94110180914F019091500180
:1003900001969093500180934F010E9474010E9436
:1003A0009F00A0960FB6F894DEBF0FBECDBFDF91C1
:1003B000CF911F910F91FF90EF90DF90CF90089514
:1003C0002198299AEBE6F0E0808182608083E8E65C
:1003D000F0E08081816080833B98439AACE6B0E096
:1003E0008C9188608C93808182608083389A409859
:1003F000559A5D98569A5E983D98EEE7F0E08081B8
:10040000806280833C988081806280833E98808176
:10041000806180833E983A988081846080830895CB
:10042000009741F0EFECF7E03197F1F700C00000E2
:100430000197C1F708955D9A8CE390E00E94100245
:100440005D988CE390E00E9410025D9A8CE390E04E
:100450000E9410025D988CE390E00E94100284EFED
:1004600091E00E9410025D9A8CE390E00E941002DD
:100470005D988CE390E00E9410025D9A8CE390E01E
:100480000E9410025D988CE390E00E941002089593
:1004900078941F920F920FB60F9211248F939F930F
:1004A00081E08093340180913901882309F449C0A7
:1004B0008091350190913601892B51F08091350161
:1004C000909136010197909336018093350139C0A0
:1004D00080913701882331F08091370181508093DA
:1004E000370113C080913801882329F080913901A8
:1004F0008150809339019091380181E0911180E021
:100500008093380185E080933701809139018823F9
:10051000B1F080913801882331F05E989BB180E280
:1005200089278BB905C05D989BB180E489278BB979
:1005300085E090E0909336018093350102C05D988C
:100540005E98109234019F918F910F900FBE0F9083
:100550001F90189578941F920F920FB60F92112446
:100560008F93EF93FF9383B78E7F83BFE8E6F0E02E
:1005700080818E7F8083199903C081E0809341013F
:10058000E8E6F0E0808181608083FF91EF918F91B8
:100590000F900FBE0F901F90189578941F920F9296
:1005A0000FB60F9211248F93EF93FF9383B78E7F33
:1005B00083BFE8E6F0E080818D7F808381E08093D7
:1005C0004201808182608083FF91EF918F910F9033
:1005D0000FBE0F901F901895AC0183709927892B3F
:1005E000A1F49A013695279536952795ABE7B4E1A6
:1005F0000E94DA099695879564E6689F9001699F45
:10060000300D112442175307E1F49A0132952295D7
:100610002F7023273F702327AEE3BAE00E94DA0948
:1006200020E931E0829FB001839F700D929F700D91
:10063000112481E090E04617570729F080E090E010
:10064000089581E090E0089578941F920F920FB67C
:100650000F921124AF92BF92CF92DF92EF92FF924E
:100660000F931F932F933F934F935F936F937F93BA
:100670008F939F93AF93BF93CF93EF93FF9381E0BB
:10068000809326018093400180912F01811102C047
:10069000C1E001C0C8E0E5E0F1E080818C0F80831B
:1006A000A0902701B0902801C0902901D0902A0184
:1006B000E0902B01F0902C0100912D0110912E0162
:1006C0002C2F30E040E050E060E070E080E090E00F
:1006D0000E94450A20932701309328014093290165
:1006E00050932A0160932B0170932C0180932D016C
:1006F00090932E01339914C080913C0190913D015B
:10070000A0913E01B0913F018C0F911DA11DB11D23
:1007100080933C0190933D01A0933E01B0933F0133
:10072000809105018C3380F180912F01882331F075
:10073000E5E0F1E080818C53808302C010920501D6
:10074000E4E0F1E080818F5F8083809130019091BF
:100750003101A0913201B0913301892B8A2B8B2B6F
:1007600099F08091300190913101A0913201B091C6
:1007700033010197A109B1098093300190933101B0
:10078000A0933201B0933301809104018C3338F08F
:1007900010920401E3E0F1E080818F5F808380911B
:1007A0000301883190F010920301E2E0F1E08081D2
:1007B0008F5F8083E6E0F1E080818F5F80838081BE
:1007C000883018F081E08093060180910201803228
:1007D00068F5809102018F3181F4809101018430AC
:1007E00029F180910101863009F180910101893060
:1007F000E9F0809101018B30C9F0809102018E31C6
:1008000021F480910101823089F0809102018D31C3
:10081000A9F480910101823089F48091000190E077
:100820008053984F0E94EC02811108C081E08093B0
:100830000201E1E0F1E080818F5F8083809101011E
:100840008D3040F0E0E0F1E080818F5F808381E0D7
:100850008093010110922601FF91EF91CF91BF91FA
:10086000AF919F918F917F916F915F914F913F9148
:100870002F911F910F91FF90EF90DF90CF90BF903D
:10088000AF900F900FBE0F901F9018952F923F9230
:100890004F925F926F927F928F929F92AF92BF9290
:1008A000CF92DF92EF92FF920F931F93CF93DF933C
:1008B000CDB7DEB72A970FB6F894DEBF0FBECDBF17
:1008C0004D835E836F83788709831A832B833C83F0
:1008D000EE2009F46DC06EC0A081A064A083B9852C
:1008E0009A84A081A6FDFDCFB9879A86A8E7B0E0DB
:1008F0002D903C90A22CB32CC12CD12CE12CF12CAE
:1009000000E010E00E94450AB985BF5FB987AA855B
:10091000BA1710F3AA2EB12CE12C0E94E8090E940C
:10092000C60820E030E14BE950E40E945509862ECC
:10093000972EE82E792EF62FE72F972D2D813E81C9
:100940004F815885232B242B252B49F429813A816B
:100950004B815C81232B242B252B09F440C069811A
:100960007A818B819C810E948908282D392D4E2DFA
:10097000572D0E945509862E972EE82E792E6981D3
:100980007A818B819C812D813E814F815885620FB8
:10099000731F841F951F0E9489089B01AC01682D5D
:1009A000792D8E2D972D0E942108F62FE72F17C045
:1009B000EE24E39480937C0086E880937A00109282
:1009C0007B00A0E020E030E040E050E060E070E03C
:1009D00080E090E0EAE7F0E0A987EA867DCF6F2F1C
:1009E0007E2F2A960FB6F894DEBF0FBECDBFDF91E3
:1009F000CF911F910F91FF90EF90DF90CF90BF901C
:100A0000AF909F908F907F906F905F904F903F90AE
:100A10002F900895EF920F931F936894EE24E4F8BB
:100A200000EA16E821E030E048E957EB60E070E0CA
:100A300086E00E9446041F910F91EF900895EF9277
:100A40000F931F936894EE24E4F808E917EB20E075
:100A500030E048E957EB60E070E084E00E94460433
:100A60001F910F91EF900895EF920F931F93689449
:100A7000EE24E4F808E917EB20E030E048E957EB12
:100A800060E070E085E00E9446041F910F91EF90B6
:100A90000895EF920F931F93409A85E090E00E9493
:100AA00010026894EE24E4F800E010E0980140E0C1
:100AB00050E0BA0182E00E944604409820E030E015
:100AC00048EC52E40E94BC0720E030E040E251E4F0
:100AD0000E94210820E030E040E252E40E94BC077E
:100AE0001F910F91EF9008952F923F924F925F9236
:100AF0006F927F928F929F92AF92BF92CF92DF922E
:100B0000EF92FF920F931F93CF93DF93CDB7DEB792
:100B10006B970FB6F894DEBF0FBECDBF0E943405B1
:100B2000162F072FF82EE92E0E941F05D62EC72E4E
:100B3000B82EA92E0E940A05962E872E782E692E91
:100B40000E944905562E472E382E292E339B03C06E
:100B50003EE43B8F02C083E48B8F60913C01709137
:100B60003D0180913E0190913F012CE330E040E057
:100B700050E00E94B80920913A01862F972F883EB5
:100B800033E0930710F087EE93E09F938F931F92CB
:100B90002F932F923F924F925F926F927F928F92FC
:100BA0009F92AF92BF92CF92DF92EF92FF920F93FC
:100BB0001F931F928B8D8F9387E091E09F938F936C
:100BC0008E010F5F1F4F1F930F930E94570A40E241
:100BD000B80186E098E70E94920110923A010FB6A0
:100BE000F894DEBF0FBECDBF6B960FB6F894DEBF94
:100BF0000FBECDBFDF91CF911F910F91FF90EF906E
:100C0000DF90CF90BF90AF909F908F907F906F902C
:100C10005F904F903F902F900895460F571F641795
:100C2000750748F46817790778F421E048175907E1
:100C300070F420E00CC06817790740F021E04817F5
:100C4000590728F420E003C020E001C021E0822FF2
:100C500008958F929F92AF92BF92CF92DF92EF92C0
:100C6000FF920F931F93CF93DF9300D0CDB7DEB7E2
:100C70008C01FC0180819281C380D12CE12CF12C6C
:100C8000FC2CEE24DD24CC24E92AC82A918180E0C2
:100C9000A0E0B0E0C82AD92AEA2AFB2A56019480AB
:100CA000858060914D0170914E0140E450E0C60195
:100CB0000E940D06882309F473C0982D80E08929CD
:100CC000E816F90609F06CC0D0924E01C0924D01B1
:100CD000D0924401C09243010E947401C80106965B
:100CE0009A838983F9E1EF16F5E5FF0651F160F487
:100CF000E6E9EE16E4E2FE06C9F0F6E0EF16F7E4E8
:100D0000FF0609F077C034C087E8E81680E6F806E9
:100D100009F443C0E3E8EE16E6E7FE0651F0F8E218
:100D2000EF16F6E5FF0609F065C008C00E945C01F9
:100D300061C0F80186810E9463015CC00E941B02B1
:100D400059C0809126018111FCCF1092B100E98138
:100D5000FA8187E0A0E0B1E001900D928A95E1F779
:100D600080912F010E944C0181E080933B0142C0A1
:100D7000E5E4F1E0898180838A8181838B818283AC
:100D80008C8183838D8184838E8185838F8186830B
:100D9000888587830E9474012DC00E9474052AC033
:100DA00060914301709144014FEF5FE7C5010E94DC
:100DB0000D068823A1F0609143017091440141E048
:100DC00050E0C5010E940D06882321F0B0924E012B
:100DD000A0924D01B0924401A092430105C08091C0
:100DE0003A018F5F80933A015D9A84EF91E00E940F
:100DF00010025D980F900F90DF91CF911F910F918E
:100E0000FF90EF90DF90CF90BF90AF909F908F902A
:100E10000895CF93DF93CDB7DEB7A5970FB6F894BB
:100E2000DEBF0FBECDBF0E94E0015098519A89E10C
:100E30000E94400180E090E00E94650C8A3AC9F46B
:100E400048E050E061E070E085E491E00E94550CDC
:100E500089E090E00E946D0C90934E0180934D01CB
:100E60008BE090E00E946D0C9093500180934F01B5
:100E700024C080E98093450189E88093460188E792
:100E80008093470186E58093480185E4809349017A
:100E900084E380934A0183E280934B0182E1809353
:100EA0004C0188EE93E090934E0180934D01909316
:100EB000500180934F010E94740180914D019091E7
:100EC0004E0190934401809343010E9432018DE4CE
:100ED000898382E48A838CE28B8381E28C8388E538
:100EE0008D838EE00E94BF00CE0101960E948D008E
:100EF0000E949F0014BC84E085BDEEE6F0E0808196
:100F0000816080831092B200E1EBF0E08081856027
:100F1000808380E28093B600E0E7F0E0808181602A
:100F20008083789482E390E00E94100281E00E9426
:100F30004C0100914D0110914E010C591F4F0F2E85
:100F4000F3E8EF2EF02D0F2EF6E7FF2EF02D68942C
:100F5000DD24D1F80F5F1F4F0E831F83E886F986CB
:100F6000EA86FB86DC86CE0106960E94290688E882
:100F700093E10E941002EECF5058BB27AA270ED053
:100F80005AC14BD130F050D120F031F49F3F11F4D1
:100F90001EF440C10EF4E095E7FB36C1E92F5CD1A9
:100FA00080F3BA17620773078407950718F071F486
:100FB0009EF574C10EF4E0950B2EBA2FA02D0B01F7
:100FC000B90190010C01CA01A0011124FF27591B8E
:100FD00099F0593F50F4503E68F11A16F040A22F94
:100FE000232F342F4427585FF3CF46953795279505
:100FF000A795F0405395C9F77EF41F16BA0B620B04
:10100000730B840BBAF09150A1F0FF0FBB1F661F4A
:10101000771F881FC2F70EC0BA0F621F731F841F8D
:1010200048F4879577956795B795F7959E3F08F0B3
:10103000B3CF9395880F08F09927EE0F9795879572
:1010400008950CD0F8C0F0D040F0E7D030F021F493
:101050005F3F19F0D9C0511122C1DCC0FDD098F317
:101060009923C9F35523B1F3951B550BBB27AA2729
:1010700062177307840738F09F5F5F4F220F331F9B
:10108000441FAA1FA9F333D00E2E3AF0E0E830D067
:1010900091505040E695001CCAF729D0FE2F27D06A
:1010A000660F771F881FBB1F261737074807AB0738
:1010B000B0E809F0BB0B802DBF01FF2793585F4FAD
:1010C0002AF09E3F510568F09FC0E9C05F3FECF3F6
:1010D000983EDCF3869577956795B795F7959F5F72
:1010E000C9F7880F911D9695879597F90895E1E0C6
:1010F000660F771F881FBB1F621773078407BA0725
:1011000020F0621B730B840BBA0BEE1F88F7E0957F
:101110000895E89409C097FB3EF4909580957095EA
:1011200061957F4F8F4F9F4F9923A9F0F92F96E933
:10113000BB279395F695879577956795B795F111A8
:10114000F8CFFAF4BB0F11F460FF1BC06F5F7F4F45
:101150008F4F9F4F16C0882311F096E911C0772357
:1011600021F09EE8872F762F05C0662371F096E860
:10117000862F70E060E02AF09A95660F771F881F2F
:10118000DAF7880F9695879597F90895E894F92FDF
:1011900096EBFF2381F0121613061406440B939569
:1011A000F69587957795679557954040FF23B9F752
:1011B0001BC099270895882351F49850D2F7872BA4
:1011C000762F652F542F432F322F20E0B1F31216C4
:1011D00013061406440B88233AF09A95440F551FC2
:1011E000661F771F881FCAF755234AF4440F551FFF
:1011F00011F460FF04C06F5F7F4F8F4F9F4F880FC8
:101200009695879597F9089597F99F6780E870E01C
:1012100060E008959FEF80EC089500240A9416166C
:10122000170618060906089500240A9412161306D4
:10123000140605060895092E0394000C11F4882362
:1012400052F0BB0F40F4BF2B11F460FF04C06F5F7E
:101250007F4F8F4F9F4F089557FD9058440F551F54
:1012600059F05F3F71F04795880F97FB991F61F028
:101270009F3F79F087950895121613061406551F9F
:10128000F2CF4695F1DF08C0161617061806991F0B
:10129000F1CF86957105610508940895E894BB2700
:1012A00066277727CB0197F908950BD0C4CFB5DF18
:1012B00028F0BADF18F0952309F0A6CFABCF1124A0
:1012C000EECFCADFA0F3959FD1F3950F50E0551FE5
:1012D000629FF001729FBB27F00DB11D639FAA278B
:1012E000F00DB11DAA1F649F6627B00DA11D661FDA
:1012F000829F2227B00DA11D621F739FB00DA11DFB
:10130000621F839FA00D611D221F749F3327A00DB4
:10131000611D231F849F600D211D822F762F6A2F50
:1013200011249F5750408AF0E1F088234AF0EE0FD5
:10133000FF1FBB1F661F771F881F91505040A9F7E2
:101340009E3F510570F060CFAACF5F3FECF3983E0F
:10135000DCF3869577956795B795F795E7959F5F49
:10136000C1F7FE2B880F911D9695879597F90895E3
:10137000A1E21A2EAA1BBB1BFD010DC0AA1FBB1F99
:10138000EE1FFF1FA217B307E407F50720F0A21B0B
:10139000B30BE40BF50B661F771F881F991F1A9478
:1013A00069F760957095809590959B01AC01BD01A2
:1013B000CF010895A29FB001B39FC001A39F01D0A8
:1013C000B29F700D811D1124911D0895689401C074
:1013D000E8948F929F92CF93DF930E94F409DF915C
:1013E000CF919F908F90089588249924F401E4016F
:1013F000B0E49F93AA279A158B049C04ED05FE0583
:10140000CF05D007A10798F4AD2FDC2FCF2FFE2FEB
:10141000E92D982C892E982F872F762F652F542F02
:10142000432F322F2227B85031F7BF9127C01B2EF0
:10143000BF91BB27220F331F441F551F661F771F05
:10144000881F991F881C991CEE1FFF1FCC1FDD1FD2
:10145000AA1FBB1F8A149B04EC05FD05CE05DF0502
:10146000A007B10748F08A189B08EC09FD09CE09CE
:10147000DF09A00BB10B21601A94E1F62EF4940160
:10148000AF01BE01CD01000C08952A0D3B1D4C1D7E
:101490005D1D6E1D7F1D801F911F0895FB01DC01E6
:1014A00002C001900D9241505040D8F70895AEE02F
:1014B000B0E0EDE5FAE00C94490D0D891E8986E057
:1014C0008C831A8309838FEF9FE79E838D83CE01E0
:1014D0004996AC016F89788DCE0101960E94790AF8
:1014E000EF81F885E00FF11F10822E96E4E00C9456
:1014F000650DACE0B0E0EFE7FAE00C943B0D7C0149
:101500006B018A01FC0117821682838181FFC6C1AB
:1015100088248394912C8C0E9D1EF7019381F601F3
:1015200093FD859193FF81916F01882309F4B2C1E6
:10153000853239F493FD859193FF81916F01853256
:1015400029F4B70190E00E94B10CE7CF512C312C67
:1015500020E02032A8F48B3261F028F4803251F080
:10156000833271F40BC08D3239F0803349F421603D
:1015700028C02260246025C0286023C0206121C0CB
:1015800027FD27C0382F30533A3078F426FF06C0A5
:10159000FAE05F9E300D1124532E13C08AE0389E6E
:1015A000300D1124332E20620CC08E3221F426FD22
:1015B00071C1206406C08C3611F4206802C08836E0
:1015C00041F4F60193FD859193FF81916F018111A3
:1015D000C0CF982F9554933018F09052933028F440
:1015E0000C5F1F4FFFE3F9830DC0833631F0833763
:1015F00071F0833509F05EC023C0F80180818983D2
:101600000E5F1F4F44244394512C540115C03801E0
:10161000F2E06F0E711CF801A080B18026FF03C0BC
:10162000652D70E002C06FEF7FEFC5012C870E942F
:10163000A60C2C0183012C856FE7262E222218C0D0
:101640003801F2E06F0E711CF801A080B18026FF16
:1016500003C0652D70E002C06FEF7FEFC5012C87DE
:101660000E949B0C2C012C8550E8252E222A8301F8
:1016700023FC1CC006C0B70180E290E00E94B10CC0
:101680003A94832D90E048165906A8F30FC0F5014F
:1016900027FC859127FE81915F01B70190E00E94B0
:1016A000B10C31103A94F1E04F1A51084114510431
:1016B00071F7EDC0843611F0893641F5F80127FF46
:1016C00007C060817181828193810C5F1F4F08C0C8
:1016D00060817181882777FD8095982F0E5F1F4F5D
:1016E0004FE6B42EB22297FF09C090958095709571
:1016F00061957F4F8F4F9F4FF0E8BF2A2AE030E07F
:10170000A4010E94DD0CA82EA81843C0853731F42F
:101710003FEEB32EB2222AE030E024C099EFB92E7A
:10172000B2228F36B9F020F4883509F0B3C00DC06D
:10173000803721F0883709F0ADC002C020E1B22A1D
:10174000B4FE0BC084E0B82A08C024FF09C0E6E05C
:10175000BE2A06C028E030E005C020E130E002C02B
:1017600020E132E0F801B7FE07C06081718182811B
:1017700093810C5F1F4F06C06081718180E090E013
:101780000E5F1F4FA4010E94DD0CA82EA818FFE7D2
:10179000BF22B6FE0BC02B2D2E7FA51450F4B4FE35
:1017A0000AC0B2FC08C02B2D2E7E05C07A2C2B2D32
:1017B00003C07A2C01C0752C24FF0DC0FE01EA0D78
:1017C000F11D8081803311F4297E09C022FF06C0FB
:1017D0007394739404C0822F867809F0739423FD68
:1017E00014C020FF0FC05A2C731460F4530C571808
:1017F000732C08C0B70180E290E02C870E94B10CE6
:1018000073942C857314B0F304C0731410F4371858
:1018100001C0312C24FF12C0B70180E390E02C8777
:101820000E94B10C2C8522FF1EC021FF03C088E559
:1018300090E002C088E790E0B7010CC0822F867864
:1018400091F021FD02C080E201C08BE227FD8DE214
:10185000B70190E00E94B10C06C0B70180E390E0B0
:101860000E94B10C5A94A514C0F3AA94F401EA0D95
:10187000F11DB701808190E00E94B10CA110F5CF5D
:1018800006C0B70180E290E00E94B10C3A9431109A
:10189000F8CF43CEF7012681378102C02FEF3FEF0B
:1018A000C9012C96E2E10C94570DDC01CB01FC013F
:1018B000F999FECF06C0F2BDE1BDF89A319600B4A9
:1018C0000D9241505040B8F70895F999FECF92BD5E
:1018D00081BDF89A992780B50895A8E1B0E042E06B
:1018E00050E00C94570CDC01A40FB51F4150504040
:1018F00048F0CB01840F951F2E910E94840C41501B
:101900005040D0F70895262FF999FECF92BD81BDA2
:10191000F89A019700B4021639F01FBA20BD0FB62D
:10192000F894FA9AF99A0FBE08950196272F0E940B
:10193000840C0C94830CFC010590615070400110E4
:10194000D8F7809590958E0F9F1F0895FC016150E8
:10195000704001900110D8F7809590958E0F9F1FD1
:1019600008950F931F93CF93DF938C01EB018B812D
:1019700081FD03C00FEF1FEF1AC082FF0DC02E8143
:101980003F818C819D812817390764F4E881F981B2
:101990000193F983E88306C0E885F985802F0995CE
:1019A000892B41F78E819F8101969F838E83C80189
:1019B000DF91CF911F910F910895FA01AA27283046
:1019C00051F1203181F1E8946F936E7F6E5F7F4F0C
:1019D0008F4F9F4FAF4FB1E03ED0B4E03CD0670F88
:1019E000781F891F9A1FA11D680F791F8A1F911DDB
:1019F000A11D6A0F711D811D911DA11D20D009F42B
:101A000068943F912AE0269F11243019305D31936C
:101A1000DEF6CF010895462F4770405D4193B3E055
:101A20000FD0C9F7F6CF462F4F70405D4A3318F0FC
:101A3000495D31FD4052419302D0A9F7EACFB4E0AD
:101A4000A6959795879577956795BA95C9F7009765
:101A50006105710508959B01AC010A2E0694579506
:101A6000479537952795BA95C9F7620F731F841F5D
:101A7000951FA01D08952F923F924F925F926F92F3
:101A80007F928F929F92AF92BF92CF92DF92EF920E
:101A9000FF920F931F93CF93DF93CDB7DEB7CA1B8F
:101AA000DB0B0FB6F894DEBF0FBECDBF09942A88BA
:101AB000398848885F846E847D848C849B84AA8462
:101AC000B984C884DF80EE80FD800C811B81AA81EF
:101AD000B981CE0FD11D0FB6F894DEBF0FBECDBFBA
:081AE000ED010895F894FFCF19
:101AE8001606090C000005256323252E31662325DB
:101AF8002E316623252E316623252E306623256454
:061B0800232564232400E4
:00000001FF
