S00C00006661706F2E7372656372
S11300000C9434000C9451000C9451000C94A702ED
S11300100C94CA020C9451000C9451000C9451009D
S11300200C9451000C941E030C9451000C94510038
S11300300C9451000C9451000C9451000C945100F8
S11300400C9445020C9451000C9451000C945100F2
S11300500C9451000C9451000C9451000C945100D8
S11300600C9451000C94510011241FBECFEFD8E022
S1130070DEBFCDBF11E0A0E0B1E0ECE2FBE102C0E5
S113008005900D92A632B107D9F721E0A6E2B1E0BE
S113009001C01D92A135B207E1F70E94F5060C9448
S11300A0940D0C9400005F988F710E943A018FEFB9
S11300B00E943A015F9A0895CF93C62F5F988F717B
S11300C080620E943A018C2F0E943A015F9ACF917C
S11300D00895EF92FF920F931F93CF93DF937B01C9
S11300E0142F5F988F7180620E943A01112371F07E
S11300F0E7011150012F10E00F5F1F4F0E0D1F1D60
S113010089910E943A01C017D107D1F75F9ADF9114
S1130110CF911F910F91FF90EF90089545E0BC019E
S11301208AE00E94690008955F9882EE0E943A0175
S11301305F9A08955F9881EE0E943A015F9A08954C
S113014080E00E945300682F616080E00E945C00A0
S113015080E00E945300682F626080E00E945C008F
S113016060E787E00E945C000E9494000E949A006D
S1130170289A8BE291E00197F1F700C000000895FE
S1130180CF93C82F209A579A28985F9A8FE097E2C6
S11301900197F1F700C000006FE080E00E945C006E
S11301A061E081E00E945C0061E082E00E945C000A
S11301B063E083E00E945C006FEF84E00E945C00D7
S11301C06C2F85E00E945C0066E286E00E945C0081
S11301D060E281E10E945C0060E08CE10E945C00CE
S11301E00E94A000CF910895289880E00E945300B7
S11301F0682F6E7F80E00E945C0080E00E945300C4
S1130200682F626080E00E945C0060E387E00E94E7
S11302105C000E949A008BE291E00197F1F700C024
S1130220000008950F931F93CF93DF938C010E94D6
S1130230F4005F9880EA0E943A01E801005E1F4FD3
S113024089910E943A01C017D107D1F75F9A289A81
S113025085E38A95F1F700002898DF91CF911F91EB
S11302600F9108952498239A259A229A83E58CBDA8
S11302701DBC08958EBD0DB407FEFDCF8EB5089547
S113028090E09093C5008093C40086E08093C20000
S113029088E18093C100089580932F01882331F071
S11302A0E1EBF0E08081826080830895E1EBF0E08F
S11302B080818D7F80830895809134018111FCCFEA
S11302C0109239010895CF93C82F0E945C011092B7
S11302D03801109236011092350185E08093370180
S11302E0C0933901CF91089548E050E061E070E097
S11302F085E491E00E94350D60914D0170914E01AD
S113030089E090E00E94570D60914F017091500177
S11303108BE090E00E94570D6AEA80E090E00E9432
S1130320450D0895CF92DF92EF92FF920F931F93A2
S1130330CF93DF93CDB7DEB7A0970FB6F894DEBFA7
S11303400FBECDBFC0904F01D09050018C0120E072
S113035030E0980111270027E12CF12C0C291D29EC
S11303602E293F2909831A832B833C839E838D8303
S113037050E0CE0107960E945B0ACE0101960E94CE
S1130380120180914F019091500101969093500178
S113039080934F010E9474010E94A000A0960FB6A2
S11303A0F894DEBF0FBECDBFDF91CF911F910F91A7
S11303B0FF90EF90DF90CF9008952198299AEBE673
S11303C0F0E0808182608083E8E6F0E080818160F3
S11303D080833B98439AACE6B0E08C9188608C9320
S11303E0808182608083389A4098559A5D98569AA5
S11303F05E983D98EEE7F0E08081806280833C98CF
S11304008081806280833E988081806180833E9871
S11304103A988081846080830895009741F0EFECDE
S1130420F7E03197F1F700C000000197C1F7089594
S11304305D9A8CE390E00E940D025D988CE390E05D
S11304400E940D025D9A8CE390E00E940D025D987B
S11304508CE390E00E940D0284EF91E00E940D0273
S11304605D9A8CE390E00E940D025D988CE390E02D
S11304700E940D025D9A8CE390E00E940D025D984B
S11304808CE390E00E940D02089578941F920F92DD
S11304900FB60F9211248F939F9381E080933401C0
S11304A080913901882309F449C0809135019091E4
S11304B03601892B51F080913501909136010197D5
S11304C0909336018093350139C080913701882398
S11304D031F08091370181508093370113C08091AE
S11304E03801882329F080913901815080933901A2
S11304F09091380181E0911180E08093380185E08A
S113050080933701809139018823B1F080913801BB
S1130510882331F05E989BB180E289278BB905C0AE
S11305205D989BB180E489278BB985E090E0909336
S113053036018093350102C05D985E9810923401B3
S11305409F918F910F900FBE0F901F9018957894E4
S11305501F920F920FB60F9211248F93EF93FF9374
S113056083B78E7F83BFE8E6F0E080818E7F80834F
S1130570199903C081E080934101E8E6F0E08081AD
S113058081608083FF91EF918F910F900FBE0F9048
S11305901F90189578941F920F920FB60F92112402
S11305A08F93EF93FF9383B78E7F83BFE8E6F0E0EA
S11305B080818D7F808381E080934201808182608D
S11305C08083FF91EF918F910F900FBE0F901F903A
S11305D01895AC0183709927892BA1F49A0136955B
S11305E0279536952795ABE7B4E10E94E4099695E3
S11305F0879564E6689F9001699F300D1124421726
S11306005307D1F49A01329522952F7023273F7016
S11306102327AEE3BAE00E94E40960E971E0869F13
S11306209001879F300D969F300D112481E0421771
S1130630530719F080E0089581E0089578941F929B
S11306400F920FB60F921124AF92BF92CF92DF9206
S1130650EF92FF920F931F932F933F934F935F93C8
S11306606F937F938F939F93AF93BF93EF93FF9376
S113067081E0809326018093400180912F0188239B
S113068011F0E8E001C0E1E0A0E0B1E015968C9142
S113069015978E0F15968C93A0902701B090280182
S11306A0C0902901D0902A01E0902B01F0902C01F8
S11306B000912D0110912E012E2F30E040E050E0EA
S11306C060E070E080E090E00E94520A20932701ED
S11306D0309328014093290150932A0160932B0100
S11306E070932C0180932D0190932E01339914C0A3
S11306F080913C0190913D01A0913E01B0913F0158
S11307008E0F911DA11DB11D80933C0190933D015D
S1130710A0933E01B0933F01809105018C3380F199
S113072080912F01882331F0E0E0F1E085818C5342
S1130730858302C010920501E0E0F1E084818F5FBF
S113074084838091300190913101A0913201B09164
S11307503301892B8A2B8B2B99F080913001909156
S11307603101A0913201B09133010197A109B1097E
S11307708093300190933101A0933201B0933301FF
S1130780809104018C3330F0E0E0F1E01482838145
S11307908F5F838380910301883178F0E0E0F1E09A
S11307A0138282818F5F828386818F5F86838681B5
S11307B0883018F081E08093060180910201803234
S11307C068F5809102018F3181F4809101018430B8
S11307D029F180910101863009F18091010189306C
S11307E0E9F0809101018B30C9F0809102018E31D2
S11307F021F480910101823089F0809102018D31D0
S1130800A1F480910101823081F48091000190E093
S11308108053984F0E94E902811107C0E0E0F1E0A3
S113082081E0828381818F5F8183809101018D309A
S113083038F0E0E0F1E080818F5F808381E08183A4
S113084010922601FF91EF91BF91AF919F918F91EB
S11308507F916F915F914F913F912F911F910F91D4
S1130860FF90EF90DF90CF90BF90AF900F900FBEAE
S11308700F901F9018952F923F924F925F926F9214
S11308807F928F929F92AF92BF92CF92DF92EF921C
S1130890FF920F931F93CF93DF93CDB7DEB72C97BF
S11308A00FB6F894DEBF0FBECDBF4D835E836F835A
S11308B0788709831A832B833C834E2CE11082C0F2
S11308C0442443947FC08081806480839A852985F1
S11308D0BB85AC85808186FDFDCF9A872987BB8740
S11308E0AC87D1018D909C90282D392D40E050E0AB
S11308F060E070E080E090E0A72CB52CCA84D98435
S1130900EB84FC840E94520A722E532E4A87598724
S11309106B877C87082F192F63946414A0F2A42C8E
S1130920B12CC12CD12CE12CF12C00E010E0272DAE
S11309300E94F5090E94C60820E030E14BE950E42A
S11309400E945509062F172F8A8799872D813E818A
S11309504F815885232B242B252B41F489819A819F
S1130960AB81BC81892B8A2B8B2B39F169817A81EC
S11309708B819C810E948908202F312F4A855985BB
S11309800E9455096B017C016D817E818F81988560
S113099029813A814B815C81620F731F841F951FEB
S11309A00E9489089B01AC01C701B6010E94170887
S11309B0062F172F8D83998321C03A853D8349855E
S11309C049831CC080937C0086E880937A0010924F
S11309D07B00712C40E050E0B0E0A0E0512C612C91
S11309E0EAE7F0E00F2EF8E72F2E312CF02D4A879E
S11309F05987BB87AC87052D162D65CF602F712FC6
S1130A008D8199812C960FB6F894DEBF0FBECDBFB1
S1130A10DF91CF911F910F91FF90EF90DF90CF90D6
S1130A20BF90AF909F908F907F906F905F904F900A
S1130A303F902F900895EF920F931F93409A85E073
S1130A4090E00E940D026894EE24E4F800E010E0C7
S1130A50980140E050E0BA0182E00E943B044098D3
S1130A6020E030E048EC52E40E94AA0720E030E0A5
S1130A7040E251E40E94170820E030E040E252E4F2
S1130A800E94AA071F910F91EF900895EF920F9380
S1130A901F936894EE24E4F808E917EB20E030E0B3
S1130AA048E957EB60E070E085E00E943B041F9149
S1130AB00F91EF900895EF920F931F936894EE2493
S1130AC0E4F808E917EB20E030E048E957EB60E090
S1130AD070E084E00E943B041F910F91EF90089511
S1130AE0EF920F931F936894EE24E4F800EA16E85B
S1130AF021E030E048E957EB60E070E086E00E94D6
S1130B003B041F910F91EF9008950F931F93CF9380
S1130B10DF93CDB7DEB76A970FB6F894DEBF0FBE8A
S1130B20CDBF0E9446050E945B050E9470050E948D
S1130B301B05339902C013E401C01EE460913C011B
S1130B4070913D0180913E0190913F012CE330E092
S1130B5040E050E00E94C20920913A01683E83E0DF
S1130B60780710F067EE73E07F936F931F922F93D3
S1130B7082E48F9388E08F9386E68F938F9381E44A
S1130B808F9389E18F9329E92F939AE99F9380E4C6
S1130B908F9339EE3F932F939F938F938CEA8F9388
S1130BA08CEC8F938DEC8F931F921F9387E091E0D1
S1130BB09F938F938E010F5F1F4F1F930F930E947C
S1130BC0640A40E2B80186E098E70E94920110921C
S1130BD03A010FB6F894DEBF0FBECDBF6A960FB6CA
S1130BE0F894DEBF0FBECDBFDF91CF911F910F915F
S1130BF00895460F571F6417750748F46817790757
S1130C0078F421E04817590770F420E00CC0681705
S1130C10790740F021E04817590728F420E003C081
S1130C2020E001C021E0822F0895AF92BF92CF92BD
S1130C30DF92EF92FF920F931F93CF93DF9300D035
S1130C40CDB7DEB78C01FC018281C380D12CE12CAD
S1130C50F12CFC2CEE24DD24CC24E82A8081A7018D
S1130C609601282BDA01C901C180D12CDC2CCC24BB
S1130C70E12CF12CC82AD92AEA2AFB2A60914D01D9
S1130C8070914E0140E450E0C6010E94F9058823AA
S1130C9009F474C0F8018481258190E0922BE81650
S1130CA0F90609F06BC0D0924E01C0924D01D0926A
S1130CB04401C09243010E947401C80106969A83BC
S1130CC08983F9E1EF16F5E5FF0649F158F436E9B1
S1130CD0E31634E2F306C1F046E0E41647E4F40612
S1130CE0A9F176C057E8E51650E6F50609F443C0C5
S1130CF083E8E81686E7F80651F0E8E2EE16E6E542
S1130D00FE0609F065C008C00E945C0161C0F801DC
S1130D1086810E9463015CC00E94180259C08091C0
S1130D2026018111FCCF1092B100E981FA8187E09C
S1130D30A0E0B1E001900D928A95E1F780912F0136
S1130D400E944C0181E080933B0142C079816A8119
S1130D505B814C813D812E819F818885E5E4F1E0B2
S1130D60708361835283438334832583968387838B
S1130D700E9474012DC00E9485052AC06091430120
S1130D80709144014FEF5FE7C6010E94F905882383
S1130D90A1F0609143017091440141E050E0C6012B
S1130DA00E94F905882321F0D0924E01C0924D0192
S1130DB0D0924401C092430105C080913A018F5FF3
S1130DC080933A015D9A84EF91E00E940D025D9850
S1130DD00F900F90DF91CF911F910F91FF90EF90A3
S1130DE0DF90CF90BF90AF900895CF93DF93CDB7AE
S1130DF0DEB7A5970FB6F894DEBF0FBECDBF0E9435
S1130E0085050E94DD015098519A89E10E944001B4
S1130E1080E090E00E94270D8A3AC9F448E050E04F
S1130E2061E070E085E491E00E94170D89E090E0B4
S1130E300E942F0D90934E0180934D018BE090E022
S1130E400E942F0D9093500180934F0124C080E99C
S1130E508093450189E88093460188E780934701A0
S1130E6086E58093480185E48093490184E3809377
S1130E704A0183E280934B0182E180934C0188EE26
S1130E8093E090934E0180934D0190935001809391
S1130E904F010E94740180914D0190914E019093F5
S1130EA04401809343010E9432018DE4898382E4EA
S1130EB08A838CE28B8381E28C8388E58D838EE048
S1130EC00E94C000CE0101960E948E000E94A000E4
S1130ED014BC84E085BDEEE6F0E08081816080830F
S1130EE01092B200E1EBF0E080818560808380E2C3
S1130EF08093B600E0E7F0E080818160808378949D
S1130F0082E390E00E940D0281E00E944C01009176
S1130F104D0110914E010C591F4F0F2EF3E8EF2E87
S1130F20F02D0F2EF6E7FF2EF02D6894DD24D1F876
S1130F300F5F1F4F0E831F83E886F986EA86FB86C0
S1130F40DC86CE0106960E94150688E893E10E948D
S1130F500D02EECF5058BB27AA270E94C2070C945B
S1130F601B090E940D0938F00E94140920F039F47D
S1130F709F3F19F426F40C940A090EF4E095E7FB5C
S1130F800C940409E92F0E942C0958F3BA1762073C
S1130F9073078407950720F079F4A6F50C944E099D
S1130FA00EF4E0950B2EBA2FA02D0B01B901900180
S1130FB00C01CA01A0011124FF27591B99F0593FC4
S1130FC050F4503E68F11A16F040A22F232F342F0C
S1130FD04427585FF3CF469537952795A795F0405A
S1130FE05395C9F77EF41F16BA0B620B730B840B6F
S1130FF0BAF09150A1F0FF0FBB1F661F771F881F27
S1131000C2F70EC0BA0F621F731F841F48F487957E
S113101077956795B795F7959E3F08F0B0CF939570
S1131020880F08F09927EE0F9795879508950E94E9
S11310302B080C941B090E94140958F00E940D09F6
S113104040F029F45F3F29F00C94040951110C94E9
S11310504F090C940A090E942C0968F39923B1F3EF
S1131060552391F3951B550BBB27AA2762177307CA
S1131070840738F09F5F5F4F220F331F441FAA1F5E
S1131080A9F335D00E2E3AF0E0E832D0915050401A
S1131090E695001CCAF72BD0FE2F29D0660F771FC8
S11310A0881FBB1F261737074807AB07B0E809F0AE
S11310B0BB0B802DBF01FF2793585F4F3AF09E3F33
S11310C0510578F00C9404090C944F095F3FE4F344
S11310D0983ED4F3869577956795B795F7959F5F76
S11310E0C9F7880F911D9695879597F90895E1E0C2
S11310F0660F771F881FBB1F621773078407BA0721
S113110020F0621B730B840BBA0BEE1F88F7E0957B
S11311100895E89409C097FB3EF4909580957095E6
S113112061957F4F8F4F9F4F9923A9F0F92F96E92F
S1131130BB279395F695879577956795B795F111A4
S1131140F8CFFAF4BB0F11F460FF1BC06F5F7F4F41
S11311508F4F9F4F16C0882311F096E911C0772353
S113116021F09EE8872F762F05C0662371F096E85C
S1131170862F70E060E02AF09A95660F771F881F2B
S1131180DAF7880F9695879597F90895E894F92FDB
S113119096EBFF2381F0121613061406440B939565
S11311A0F69587957795679557954040FF23B9F74E
S11311B01BC099270895882351F49850D2F7872BA0
S11311C0762F652F542F432F322F20E0B1F31216C0
S11311D013061406440B88233AF09A95440F551FBE
S11311E0661F771F881FCAF755234AF4440F551FFB
S11311F011F460FF04C06F5F7F4F8F4F9F4F880FC4
S11312009695879597F9089597F99F6780E870E018
S113121060E008959FEF80EC089500240A94161668
S1131220170618060906089500240A9412161306D0
S1131230140605060895092E0394000C11F488235E
S113124052F0BB0F40F4BF2B11F460FF04C06F5F7A
S11312507F4F8F4F9F4F089557FD9058440F551F50
S113126059F05F3F71F04795880F97FB991F61F024
S11312709F3F79F087950895121613061406551F9B
S1131280F2CF4695F1DF08C0161617061806991F07
S1131290F1CF86957105610508940895E894BB27FC
S11312A066277727CB0197F908950E9468090C9463
S11312B01B090E940D0938F00E94140920F095239F
S11312C011F00C9404090C940A0911240C944F098C
S11312D00E942C0970F3959FC1F3950F50E0551FA0
S11312E0629FF001729FBB27F00DB11D639FAA2777
S11312F0F00DB11DAA1F649F6627B00DA11D661FC6
S1131300829F2227B00DA11D621F739FB00DA11DE6
S1131310621F839FA00D611D221F749F3327A00DA0
S1131320611D231F849F600D211D822F762F6A2F3C
S113133011249F5750409AF0F1F088234AF0EE0FA1
S1131340FF1FBB1F661F771F881F91505040A9F7CE
S11313509E3F510580F00C9404090C944F095F3FA3
S1131360E4F3983ED4F3869577956795B795F7950A
S1131370E7959F5FC1F7FE2B880F911D9695879582
S113138097F90895A1E21A2EAA1BBB1BFD010DC0FB
S1131390AA1FBB1FEE1FFF1FA217B307E407F50721
S11313A020F0A21BB30BE40BF50B661F771F881FFD
S11313B0991F1A9469F760957095809590959B0193
S11313C0AC01BD01CF010895A29FB001B39FC0013C
S11313D0A39F700D811D1124911DB29F700D811D5D
S11313E01124911D0895689401C0E8948F929F92EE
S11313F0CF93DF930E94010ADF91CF919F908F904A
S1131400089588249924F401E401B0E49F93AA2761
S11314109A158B049C04ED05FE05CF05D007A107A2
S113142098F4AD2FDC2FCF2FFE2FE92D982C892E89
S1131430982F872F762F652F542F432F322F222753
S1131440B85031F7BF9127C01B2EBF91BB27220F85
S1131450331F441F551F661F771F881F991F881C41
S1131460991CEE1FFF1FCC1FDD1FAA1FBB1F8A1470
S11314709B04EC05FD05CE05DF05A007B10748F088
S11314808A189B08EC09FD09CE09DF09A00BB10BF2
S113149021601A94E1F62EF49401AF01BE01CD014E
S11314A0000C08952A0D3B1D4C1D5D1D6E1D7F1DF6
S11314B0801F911F0895FB01DC0102C001900D9271
S11314C041505040D8F70895AEE0B0E0EAE6FAE0C3
S11314D00C946B0D0D891E8986E08C831A83098315
S11314E08FEF9FE79E838D83AE01475E5F4F6F89C9
S11314F0788DCE0101960E94860AEF81F885E00F6F
S1131500F11F10822E96E4E00C94870DABE0B0E05E
S1131510ECE8FAE00C945D0D6C017B018A01FC019E
S113152017821682838181FFCCC1CE0101963C01D2
S1131530F6019381F70193FD859193FF81917F01DA
S1131540882309F4BAC1853239F493FD859193FF58
S113155081917F01853229F4B60190E00E947D0CCF
S1131560E7CF912C212C312CFFE1F315D8F08B32ED
S113157079F038F4803279F08332A1F4232D20619C
S11315801DC08D3261F0803369F4232D216016C0B3
S1131590832D8260382EE32DE4603E2E2AC0F32D85
S11315A0F8601DC037FC2DC020ED280F2A3040F014
S11315B08E32B9F436FC81C1232D2064322E19C039
S11315C036FE06C08AE0989E200D1124922E11C08A
S11315D0EAE02E9E200D1124222EF32DF0623F2EE0
S11315E008C08C3621F4832D8068382E02C08836DA
S11315F041F4F70193FD859193FF81917F0181115E
S1131600B3CF982F9F7D9554933028F40C5F1F4FD0
S11316109FE399830DC0833631F0833771F08335AE
S113162009F059C021C0F801808189830E5F1F4FE2
S113163088248394912C530113C02801F2E04F0EA7
S1131640511CF801A080B18036FE03C0692D70E002
S113165002C06FEF7FEFC5010E94720C4C01820142
S1131660F32DFF773F2E16C0280122E0420E511CB5
S1131670F801A080B18036FE03C0692D70E002C07D
S11316806FEF7FEFC5010E94670C4C01F32DF068EA
S11316903F2E820133FC1BC0822D90E088169906F0
S11316A0B0F4B60180E290E00E947D0C2A94F4CF5D
S11316B0F50137FC859137FE81915F01B60190E019
S11316C00E947D0C21102A9421E0821A9108811431
S11316D0910471F7E8C0843611F0893641F5F801B8
S11316E037FE07C060817181828193810C5F1F4F37
S11316F008C060817181072E000C880B990B0E5F66
S11317001F4FF32DFF763F2E97FF09C090958095CC
S1131710709561957F4F8F4F9F4FF0683F2E2AE061
S113172030E0A3010E94B90C882E861845C0853785
S113173031F4232D2F7EB22E2AE030E025C0932DE4
S1131740997FB92E8F36C1F018F4883579F0B5C079
S1131750803719F0883721F0B0C0E92FE061BE2E40
S1131760B4FE0DC0FB2DF460BF2E09C034FE0AC0C8
S1131770292F2660B22E06C028E030E005C020E103
S113178030E002C020E132E0F801B7FE07C060811A
S11317907181828193810C5F1F4F06C060817181CA
S11317A080E090E00E5F1F4FA3010E94B90C882EC9
S11317B08618FB2DFF773F2E36FE0DC0232D2E7F7E
S11317C0A22E891458F434FE0BC032FC09C0832DB8
S11317D08E7EA82E05C0B82CA32C03C0B82C01C043
S11317E0B92CA4FE0FC0FE01E80DF11D80818033E9
S11317F021F49A2D997EA92E09C0A2FE06C0B394A5
S1131800B39404C08A2D867809F0B394A3FC11C064
S1131810A0FE06C0B21488F4280C922C9B180EC0AB
S1131820B21460F4B60180E290E00E947D0CB3949F
S1131830F7CFB21418F42B1802C0982C212CA4FE54
S113184010C0B60180E390E00E947D0CA2FE17C098
S1131850A1FC03C088E790E002C088E590E0B601EF
S11318600CC08A2D867859F0A1FE02C08BE201C01B
S113187080E2A7FC8DE2B60190E00E947D0C891401
S113188038F4B60180E390E00E947D0C9A94F7CF7F
S11318908A94F301E80DF11D8081B60190E00E9465
S11318A07D0C8110F5CF222009F442CEB60180E2EE
S11318B090E00E947D0C2A94F6CFF60186819781F0
S11318C002C08FEF9FEF2B96E2E10C94790DFC019F
S11318D00590615070400110D8F7809590958E0F57
S11318E09F1F0895FC016150704001900110D8F7CA
S11318F0809590958E0F9F1F08950F931F93CF93FC
S1131900DF93FB01238121FD03C08FEF9FEF2CC0E8
S113191022FF16C04681578124813581421753071F
S113192044F4A081B1819D012F5F3F4F3183208317
S11319308C93268137812F5F3F4F3783268314C0D2
S11319408B01EC01FB010084F185E02D0995892BC5
S1131950E1F6D80116968D919C91179701961796EA
S11319609C938E931697CE01DF91CF911F910F9187
S11319700895FA01AA27283051F1203181F1E89421
S11319806F936E7F6E5F7F4F8F4F9F4FAF4FB1E06E
S11319903ED0B4E03CD0670F781F891F9A1FA11D69
S11319A0680F791F8A1F911DA11D6A0F711D811D6A
S11319B0911DA11D20D009F468943F912AE0269F2F
S11319C011243019305D3193DEF6CF010895462F8E
S11319D04770405D4193B3E00FD0C9F7F6CF462F6F
S11319E04F70405D4A3318F0495D31FD40524193D8
S11319F002D0A9F7EACFB4E0A69597958795779595
S1131A006795BA95C9F700976105710508959B011B
S1131A10AC010A2E06945795479537952795BA95A4
S1131A20C9F7620F731F841F951FA01D0895DC0161
S1131A30CB01FC01F999FECF06C0F2BDE1BDF89AD5
S1131A40319600B40D9241505040B8F70895F99979
S1131A50FECF92BD81BDF89A992780B50895A8E17B
S1131A60B0E042E050E00C94190DDC01A40FB51F66
S1131A704150504048F0CB01840F951F2E910E9495
S1131A80460D41505040D0F70895262FF999FECFC6
S1131A9092BD81BDF89A019700B4021639F01FBABD
S1131AA020BD0FB6F894FA9AF99A0FBE08950196DC
S1131AB0272F0E94460D0C94450D2F923F924F9272
S1131AC05F926F927F928F929F92AF92BF92CF92CA
S1131AD0DF92EF92FF920F931F93CF93DF93CDB7D3
S1131AE0DEB7CA1BDB0B0FB6F894DEBF0FBECDBF4B
S1131AF009942A88398848885F846E847D848C841C
S1131B009B84AA84B984C884DF80EE80FD800C8124
S1131B101B81AA81B981CE0FD11D0FB6F894DEBF07
S10F1B200FBECDBFED010895F894FFCF77
S1131B2C1606090C000004256323252E3166232593
S1131B3C2E316623252E316623252E30662325640B
S1091B4C2325642324009C
S9030000FC
