S00C00006661706F2E7372656372
S11300000C94B5000C94D2000C94D2000C94A0056E
S11300100C94C3050C94D2000C94D2000C94D2001E
S11300200C94D2000C9417060C94D2000C94D200B9
S11300300C94D2000C94D2000C94D2000C94D200F4
S11300400C943E050C94D2000C94D2000C94D20073
S11300500C94D2000C94D2000C94D2000C94D200D4
S11300600C94D2000C94D2006E616E00696E66002E
S113007000407A10F35A00A0724E18090010A5D45B
S1130080E80000E87648170000E40B54020000CAB8
S11300909A3B000000E1F5050000809698000000FE
S11300A040420F000000A08601000000102700005D
S11300B00000E803000000006400000000000A00E3
S11300C0000000000100000000002C76D888DC67E6
S11300D04F0823DFC1DFAE59E1B1B796E5E3E4533E
S11300E0C63AE651997696E8E6C28426EB898C9B5B
S11300F062ED407C6FFCEFBC9C9F40F2BAA56FA5FB
S1130100F490055A2AF75C936B6CF9676DC11BFC7C
S1130110E0E40D47FEF520E6B500D0ED902E030097
S1130120943577050080841E080000204E0A0000E4
S113013000C80C333333330F986E12831141EF8DA3
S11301402114893BE65516CFFEE6DB18D1844B38E3
S11301501BF77C1D901DA4BBE424203284725E2214
S11301608100C9F124ECA1E53D2711241FBECFEF86
S1130170D8E0DEBFCDBF11E0A0E0B1E0E0E0F8E2FE
S113018002C005900D92AA32B107D9F721E0AAE284
S1130190B1E001C01D92A535B207E1F70E94190A2A
S11301A00C94FE130C9400002F923F924F925F9296
S11301B06F927F928F929F92AF92BF92CF92DF9273
S11301C0EF92FF920F931F93CF93DF93CDB7DEB7D8
S11301D029970FB6F894DEBF0FBECDBF5C01FB01BB
S11301E03080B181B983B281BA83B381BB83B481D6
S11301F0BC83B581BD83B681BE83B781BF8380E1F3
S113020092E09924939499878887D501CD90DD90C5
S1130210ED90FC902C2D2170D0FC2260E3FC246036
S1130220D701C601072E79E1B695A79597958795CD
S11302307A95D1F7702D8170F6FC8260A82FB0E01A
S1130240A95FBE4F8C9190E002C0959587952A9541
S1130250E2F7182F11702080B181428053806480AE
S11302607580868007813B2F307820E040E050E0A5
S113027060E070E080E090E0A0E00E94F91109F0F5
S11302801925FF200CF41925D7FC1925222D3B2F05
S1130290442D552D662D772D882D902F092D0E94E4
S11302A0D51120833183428353836483758386838A
S11302B09783D5014D915D916D917C91DB01CA01CC
S11302C0880F991FAA1FBB1FAC01BD01412BD5018B
S11302D04D935D936D937C931397888599850197CE
S11302E099878887892B09F090CF3082B981B183AF
S11302F0BA81B283BB81B383BC81B483BD81B5832E
S1130300BE81B683BF81B78329960FB6F894DEBF4A
S11303100FBECDBFDF91CF911F910F91FF90EF9052
S1130320DF90CF90BF90AF909F908F907F906F9011
S11303305F904F903F902F9008952F923F924F924D
S11303405F926F927F928F929F92AF92BF92CF9261
S1130350DF92EF92FF920F931F93CF93DF93CDB76A
S1130360DEB760970FB6F894DEBF0FBECDBF4C0169
S11303707D876C87DB01BC91BC83FB01F181FD832C
S1130380DB011296BC91BE83FB01F381FF83DB0189
S11303901496BC91B887FB01F581F987DB011696A9
S11303A0BC91BA87FB01F781FB872C813D814E818B
S11303B05F81688579858B2F9F2FE0E1F0E001E074
S11303C00E94D5113197D9F7EC85FD8520833183BF
S11303D0428353836483758386839783689422243A
S11303E024F8332431F8AA24A394D401CD90DD90C9
S11303F0ED90FC90D701C601B695A7959795879582
S1130400282F2170D1FC2260E4FC2460D701C601AE
S1130410072E7AE1B695A795979587957A95D1F7A2
S1130420702D8170FF200CF48260E82FF0E0E95F0A
S1130430FE4F808190E002C0959587952A95E2F75A
S1130440B82FB170BE87EC85FD851081E181AC8544
S1130450BD851296BC91BF87AC85BD8513964C9023
S1130460139714965C90149715966C90159716969E
S11304707C9016971796BC904F85417020E030E031
S113048050E060E070E080E090E0A0E00E94F911AC
S113049019F0BE85BA25BE87C0FE03C0FE85FA25C5
S11304A0FE87E0FE03C0BE85BA25BE87212F2170DA
S11304B030E040E050E060E070E080E090E00FE386
S11304C00E949E11A22F3B83C42ED52EE62EF72E1A
S11304D0888BF92F212F3E2F4F85542D652D762D96
S11304E0872D9B2D0A2D0E94B9112A2BAC85BD8521
S11304F02C93BB813B2BAC85BD8511963C93119706
S11305004C2912964C9312975D2913965C9313977A
S11305106E2914966C9314977F2915967C93B88949
S11305208B2BAC85BD8516968C9316979F2B1796AF
S11305309C93F40180819181A281B381AC01BD01BE
S11305407695679557954795FE858F2F90E0A0E0A7
S1130550B0E0BB278695B795AA2799278827842BCF
S1130560952BA62BB72BF40180839183A283B383AD
S1130570F1E02F1A310809F038CFEC85FD85BC81F4
S1130580B083BD81B183BE81B283BF81B383B8859B
S1130590B483B985B583BA85B683BB85B7836096C2
S11305A00FB6F894DEBF0FBECDBFDF91CF911F9180
S11305B00F91FF90EF90DF90CF90BF90AF909F90FE
S11305C08F907F906F905F904F903F902F90089501
S11305D05F988F710E941B048FEF0E941B045F9A27
S11305E00895CF93C62F5F988F7180620E941B0479
S11305F08C2F0E941B045F9ACF910895EF92FF9273
S11306000F931F93CF93DF937B01142F5F988F7108
S113061080620E941B04112371F0E7011150012F25
S113062010E00F5F1F4F0E0D1F1D89910E941B04C8
S1130630C017D107D1F75F9ADF91CF911F910F9126
S1130640FF90EF90089545E0BC018AE00E94FE020D
S11306500895CF93DF93EC0145E0BC018AE00E944A
S1130660FE0245E0BE0180E10E94FE02DF91CF91CF
S113067008955F9882EE0E941B045F9A08955F9824
S113068081EE0E941B045F9A089580E00E94E802B4
S1130690682F616080E00E94F10280E00E94E8021D
S11306A0682F626080E00E94F10260E787E00E94A8
S11306B0F10280E00E94E802682F606180E00E94FD
S11306C0F10280E00E94E802682F606280E00E94EC
S11306D0F1020E9439030E943F03289A8BE291E0C1
S11306E00197F1F700C000000895CF93C82F209A16
S11306F0579A28985F9A8FE097E20197F1F700C024
S113070000006FE080E00E94F10261E081E00E945D
S1130710F10261E082E00E94F10263E083E00E9462
S1130720F1026FEF84E00E94F1026C2F85E00E94D9
S1130730F10266E286E00E94F10260E281E10E9439
S1130740F10260E08CE10E94F1020E944503CF9126
S11307500895289880E00E94E802682F6E7F80E068
S11307600E94F10280E00E94E802682F626080E04B
S11307700E94F10260E387E00E94F1020E943F03BD
S11307808BE291E00197F1F700C0000008955F98B3
S11307908FEF0E941B045F9A08950F931F93CF93CA
S11307A0DF938C015F9881E60E941B04E801005EE0
S11307B01F4F8FEF0E941B048993C017D107C9F7FD
S11307C05F9A60E487E00E94F102DF91CF911F916C
S11307D00F9108950F931F93CF93DF938C010E9481
S11307E0A9035F9880EA0E941B04E801005E1F4F82
S11307F089910E941B04C017D107D1F75F9A289AE8
S113080085E38A95F1F700002898DF91CF911F9135
S11308100F9108950E94C7038074089560E487E0EF
S11308200E94F10208952498239A259A229A83E536
S11308308CBD1DBC08958EBD0DB407FEFDCF8EB5D5
S1130840089590E09093C5008093C40086E080935F
S1130850C20088E18093C100089580933301882306
S113086031F0E1EBF0E08081826080830895E1EB78
S1130870F0E080818D7F808308958091380181111B
S1130880FCCF10923D010895CF93C82F0E943D04E0
S113089010923C0110923A011092390185E0809344
S11308A03B01C0933D01CF91089548E050E061E0E1
S11308B070E089E491E00E94D61360915101709137
S11308C0520189E090E00E94F81360915301709105
S11308D054018BE090E00E94F8136AEA80E090E013
S11308E00E94E61308958F929F92AF92BF92DF9277
S11308F0EF92FF920F931F93CF93DF93CDB7DEB7A1
S1130900A4970FB6F894DEBF0FBECDBF8C017B0158
S1130910D42E8090530190905401A0E0B0E0DC010B
S113092099278827A12CB12C88299929AA29BB2980
S113093089839A83AB83BC8369E471E0CE01019619
S11309400E949D0189819A81AB81BC818D839E83A4
S1130950AF83B8871A8709874D2D50E0B701CE01C0
S11309600B960E94E812CE0105960E94EA0380913C
S11309705301909154010196909354018093530133
S11309800E9455040E944503A4960FB6F894DEBF56
S11309900FBECDBFDF91CF911F910F91FF90EF90CC
S11309A0DF90BF90AF909F908F9008952198299ADF
S11309B0EBE6F0E0808182608083E8E6F0E080810D
S11309C0816080833B98439AACE6B0E08C91886068
S11309D08C93808182608083389A4098559A5D9880
S11309E0569A5E983D98EEE7F0E0808180628083BD
S11309F03C988081806280833E988081806180837E
S1130A003E983A988081846080830895009741F0ED
S1130A10EFECF7E03197F1F700C000000197C1F760
S1130A2008955D9A8CE390E00E9406055D988CE33E
S1130A3090E00E9406055D9A8CE390E00E94060512
S1130A405D988CE390E00E94060584EF91E00E949B
S1130A5006055D9A8CE390E00E9406055D988CE3A0
S1130A6090E00E9406055D9A8CE390E00E940605E2
S1130A705D988CE390E00E940605089578941F9297
S1130A800F920FB60F9211248F939F9381E080935E
S1130A90380180913D01882309F449C080913901CE
S1130AA090913A01892B51F08091390190913A014A
S1130AB0019790933A018093390139C080913B01A9
S1130AC0882331F080913B01815080933B0113C016
S1130AD080913C01882329F080913D0181508093CD
S1130AE03D0190913C0181E0911180E080933C01B3
S1130AF085E080933B0180913D018823B1F0809192
S1130B003C01882331F05E989BB180E289278BB940
S1130B1005C05D989BB180E489278BB985E090E09E
S1130B2090933A018093390102C05D985E981092C7
S1130B3038019F918F910F900FBE0F901F901895C1
S1130B4078941F920F920FB60F9211248F93EF9304
S1130B50FF9383B78E7F83BFE8E6F0E080818E7FCA
S1130B608083199903C081E080934501E8E6F0E0B1
S1130B70808181608083FF91EF918F910F900FBEF0
S1130B800F901F90189578941F920F920FB60F92A2
S1130B9011248F93EF93FF9383B78E7F83BFE8E68F
S1130BA0F0E080818D7F808381E0809346018081A5
S1130BB082608083FF91EF918F910F900FBE0F9011
S1130BC01F901895AC0183709927892BA1F49A0181
S1130BD03695279536952795ABE7B4E10E94F91031
S1130BE09695879564E6689F9001699F300D11245E
S1130BF042175307D1F49A01329522952F70232777
S1130C003F702327AEE3BAE00E94F91060E971E077
S1130C10869F9001879F300D969F300D112481E0AF
S1130C204217530719F080E0089581E008957894FD
S1130C301F920F920FB60F921124AF92BF92CF92D0
S1130C40DF92EF92FF920F931F932F933F934F9353
S1130C505F936F937F938F939F93AF93BF93EF9320
S1130C60FF9381E080932A018093440180913301B2
S1130C70882311F0E8E001C0E1E0A0E0B1E01596BE
S1130C808C9115978E0F15968C93A0902B01B09094
S1130C902C01C0902D01D0902E01E0902F01F090F6
S1130CA0300100913101109132012E2F30E040E0EB
S1130CB050E060E070E080E090E00E94F01120934A
S1130CC02B0130932C0140932D0150932E016093FE
S1130CD02F01709330018093310190933201339945
S1130CE014C08091400190914101A0914201B091C2
S1130CF043018E0F911DA11DB11D8093400190935E
S1130D004101A0934201B0934301809105018C33CA
S1130D1080F180913301882331F0E0E0F1E08581B6
S1130D208C53858302C010920501E0E0F1E08481D8
S1130D308F5F84838091340190913501A0913601B5
S1130D40B0913701892B8A2B8B2B99F08091340138
S1130D5090913501A0913601B09137010197A10915
S1130D60B1098093340190933501A0933601B09377
S1130D703701809104018C3330F0E0E0F1E014821B
S1130D8083818F5F838380910301883178F0E0E071
S1130D90F1E0138282818F5F828386818F5F8683F5
S1130DA08681883018F081E08093060180910201E9
S1130DB0803268F5809102018F3181F480910101C4
S1130DC0843029F180910101863009F1809101017B
S1130DD08930E9F0809101018B30C9F080910201E2
S1130DE08E3121F480910101823089F080910201D9
S1130DF08D31A1F480910101823081F48091000150
S1130E0090E08053984F0E94E205811107C0E0E012
S1130E10F1E081E0828381818F5F81838091010190
S1130E208D3038F0E0E0F1E080818F5F808381E0F5
S1130E30818310922A01FF91EF91BF91AF919F910D
S1130E408F917F916F915F914F913F912F911F915E
S1130E500F91FF90EF90DF90CF90BF90AF900F90E5
S1130E600FBE0F901F9018952F923F924F925F9252
S1130E706F927F928F929F92AF92BF92CF92DF92A6
S1130E80EF92FF920F931F93CF93DF93CDB7DEB70B
S1130E902C970FB6F894DEBF0FBECDBF4D835E8393
S1130EA06F83788709831A832B833C834E2CE1104C
S1130EB082C0442443947FC08081806480839A8567
S1130EC02985BB85AC85808186FDFDCF9A872987DE
S1130ED0BB87AC87D1018D909C90282D392D40E0A3
S1130EE050E060E070E080E090E0A72CB52CCA846C
S1130EF0D984EB84FC840E94F011722E532E4A870D
S1130F0059876B877C87082F192F63946414A0F288
S1130F10A42CB12CC12CD12CE12CF12C00E010E03C
S1130F20272D0E940A110E94350C20E030E14BE984
S1130F3050E40E94C90C062F172F8A8799872D81A8
S1130F403E814F815885232B242B252B41F4898105
S1130F509A81AB81BC81892B8A2B8B2B39F16981D6
S1130F607A818B819C810E94F80B202F312F4A8536
S1130F7059850E94C90C6B017C016D817E818F8132
S1130F80988529813A814B815C81620F731F841F8C
S1130F90951F0E94F80B9B01AC01C701B6010E948A
S1130FA0860B062F172F8D83998321C03A853D83A5
S1130FB0498549831CC080937C0086E880937A002D
S1130FC010927B00712C40E050E0B0E0A0E0512C86
S1130FD0612CEAE7F0E00F2EF8E72F2E312CF02DEC
S1130FE04A875987BB87AC87052D162D65CF602F9F
S1130FF0712F8D8199812C960FB6F894DEBF0FBEA8
S1131000CDBFDF91CF911F910F91FF90EF90DF90B3
S1131010CF90BF90AF909F908F907F906F905F9094
S11310204F903F902F900895EF920F931F93409A03
S113103085E090E00E9406056894EE24E4F800E060
S113104010E0980140E050E0BA0182E00E943407C9
S1131050409820E030E048EC52E40E94190B20E074
S113106030E040E251E40E94860B20E030E040E2B0
S113107052E40E94190B1F910F91EF900895EF9283
S11310800F931F936894EE24E4F808E917EB20E02B
S113109030E048E957EB60E070E085E00E943407F7
S11310A01F910F91EF900895EF920F931F936894FF
S11310B0EE24E4F808E917EB20E030E048E957EBC8
S11310C060E070E084E00E9434071F910F91EF907C
S11310D00895EF920F931F936894EE24E4F800EAC6
S11310E016E821E030E048E957EB60E070E086E084
S11310F00E9434071F910F91EF9008952F923F9211
S11311004F925F926F927F928F929F92AF92BF9213
S1131110CF92DF92EF92FF920F931F93CF93DF93BF
S1131120CDB7DEB76B970FB6F894DEBF0FBECDBF59
S11311300E943F086B8F072FF82EE92E0E94540857
S1131140D62EC72EB82EA92E0E946908962E872E59
S1131150782E692E0E941408562E472E382E292EDA
S1131160339902C013E401C01EE460914001709100
S1131170410180914201909143012CE330E040E031
S113118050E00E94D71020913E01683E83E078072A
S113119010F067EE73E07F936F931F922F932F925B
S11311A03F924F925F926F927F928F929F92AF92F3
S11311B0BF92CF92DF92EF92FF920F939B8D9F93FA
S11311C01F921F938BE091E09F938F938E010F5F8B
S11311D01F4F1F930F930E94381340E2B80186E01B
S11311E098E70E94730410923E010FB6F894DEBF94
S11311F00FBECDBF6B960FB6F894DEBF0FBECDBF4A
S1131200DF91CF911F910F91FF90EF90DF90CF90DE
S1131210BF90AF909F908F907F906F905F904F9012
S11312203F902F900895460F571F6417750748F491
S11312306817790778F421E04817590770F420E01B
S11312400CC06817790740F021E04817590728F4C3
S113125020E003C020E001C021E0822F0895AF9276
S1131260BF92CF92DF92EF92FF920F931F93CF938F
S1131270DF9300D000D0CDB7DEB78C01FC01228112
S1131280838190E0A0E0B0E0B82FAA2799278827AF
S1131290A22B2081822B418150E0542F442760E00F
S11312A070E0842B952BA62BB72B89839A83AB8371
S11312B0BC8369E471E0CE0101960E94D400C98028
S11312C0DA80EB80FC80609151017091520140E41E
S11312D050E0C6010E941309882309F471C0F80183
S11312E08481258190E0922BE816F90609F068C004
S11312F0D0925201C0925101D0924801C09247014C
S11313000E945504F9E1EF16F5E5FF0649F158F49A
S1131310E6E9EE16E4E2FE06C1F0F6E0EF16F7E4C5
S1131320FF06A9F177C087E8E81680E6F80609F415
S113133044C0E3E8EE16E6E7FE0651F0F8E2EF16E5
S1131340F6E5FF0609F066C008C00E943D0462C0CD
S1131350F80186810E9444045DC00E9411055AC0B0
S113136080912A018111FCCF1092B10087E0F8012D
S11313703696A0E0B1E001900D928A95E1F7809154
S113138033010E942D0481E080933F0143C0F801A2
S1131390768167815085418532852385948585854D
S11313A0E9E4F1E0708361835283438334832583CA
S11313B0968387830E9455042DC00E947E082AC00C
S11313C060914701709148014FEF5FE7C6010E94A9
S11313D013098823A1F0609147017091480141E00D
S11313E050E0C6010E941309882321F0D0925201D3
S11313F0C0925101D0924801C092470105C080912A
S11314003E018F5F80933E015D9A84EF91E00E94DC
S113141006055D980F900F900F900F90DF91CF917C
S11314201F910F91FF90EF90DF90CF90BF90AF90FE
S11314300895CF93DF93CDB7DEB7A5970FB6F89491
S1131440DEBF0FBECDBF0E94D6045098519A89E1E9
S11314500E94210480E090E00E94C8138A3AC9F4F3
S113146048E050E061E070E089E491E00E94B81344
S113147089E090E00E94D01390935201809351012F
S11314808BE090E00E94D013909354018093530119
S113149024C080E98093490189E880934A0188E760
S11314A080934B0186E580934C0185E480934D0144
S11314B084E380934E0183E280934F0182E1809321
S11314C0500188EE93E090935201809351019093E0
S11314D05401809353010E945504809151019091CD
S11314E0520190934801809347010E9413048DE4B4
S11314F0898382E48A838CE28B8381E28C8388E50E
S11315008D838EE00E947503CE0101960E94230311
S1131510CE0101960E9429030E94450314BC84E075
S113152085BDEEE6F0E08081816080831092B20098
S1131530E1EBF0E080818560808380E28093B600F7
S1131540E0E7F0E0808181608083789482E390E03A
S11315500E94060581E00E942D040F2EFEE1CF2E8D
S1131560D12CE12CF12CF02D80913D0181110DC085
S11315705D985E9883B7817F866083BF83B78160FF
S113158083BF889583B78E7F83BF8091460188236C
S113159071F0339B08C010924001109241011092E7
S11315A04201109243010E947E08109246018091EC
S11315B045018823B1F00E940A0481110BC00FC0B9
S11315C0CE0106960E94CD030E940E04CE0106961B
S11315D00E942F0987E10E94E80280FFF1CF109258
S11315E0450180914401882309F4BECF80913401E0
S11315F090913501A0913601B0913701892B8A2B46
S11316008B2BA1F40E943F0820E030E84BE355E423
S11316100E94C40C882314F00E947E08C0923401F6
S1131620D0923501E0923601F092370110924401D4
S11316309BCF5058BB27AA270E94310B0C948A0CCD
S11316400E947C0C38F00E94830C20F039F49F3FF8
S113165019F426F40C94790C0EF4E095E7FB0C9441
S1131660730CE92F0E949B0C58F3BA176207730797
S11316708407950720F079F4A6F50C94BD0C0EF4BC
S1131680E0950B2EBA2FA02D0B01B90190010C018E
S1131690CA01A0011124FF27591B99F0593F50F4A6
S11316A0503E68F11A16F040A22F232F342F4427FE
S11316B0585FF3CF469537952795A795F0405395F6
S11316C0C9F77EF41F16BA0B620B730B840BBAF0C6
S11316D09150A1F0FF0FBB1F661F771F881FC2F731
S11316E00EC0BA0F621F731F841F48F48795779545
S11316F06795B795F7959E3F08F0B0CF9395880FFF
S113170008F09927EE0F9795879508950E949A0BF4
S11317100C948A0C0E94830C58F00E947C0C40F0BC
S113172029F45F3F29F00C94730C51110C94BE0CF6
S11317300C94790C0E949B0C68F39923B1F3552304
S113174091F3951B550BBB27AA27621773078407D0
S113175038F09F5F5F4F220F331F441FAA1FA9F366
S113176035D00E2E3AF0E0E832D091505040E69554
S1131770001CCAF72BD0FE2F29D0660F771F881FB5
S1131780BB1F261737074807AB07B0E809F0BB0BA8
S1131790802DBF01FF2793585F4F3AF09E3F5105BC
S11317A078F00C94730C0C94BE0C5F3FE4F3983EF9
S11317B0D4F3869577956795B795F7959F5FC9F7A5
S11317C0880F911D9695879597F90895E1E0660F26
S11317D0771F881FBB1F621773078407BA0720F09F
S11317E0621B730B840BBA0BEE1F88F7E095089508
S11317F0E89409C097FB3EF49095809570956195A7
S11318007F4F8F4F9F4F9923A9F0F92F96E9BB275C
S11318109395F695879577956795B795F111F8CFD8
S1131820FAF4BB0F11F460FF1BC06F5F7F4F8F4F43
S11318309F4F16C0882311F096E911C0772321F039
S11318409EE8872F762F05C0662371F096E8862FD1
S113185070E060E02AF09A95660F771F881FDAF728
S1131860880F9695879597F90895E894F92F96EB44
S1131870FF2381F0121613061406440B9395F69574
S113188087957795679557954040FF23B9F71BC017
S113189099270895882351F49850D2F7872B762FEF
S11318A0652F542F432F322F20E0B1F31216130665
S11318B01406440B88233AF09A95440F551F661F6B
S11318C0771F881FCAF755234AF4440F551F11F494
S11318D060FF04C06F5F7F4F8F4F9F4F880F9695B7
S11318E0879597F9089597F99F6780E870E060E01D
S11318F008959FEF80EC089500240A9416161706A5
S113190018060906089500240A94121613061406EC
S113191005060895092E0394000C11F4882352F04F
S1131920BB0F40F4BF2B11F460FF04C06F5F7F4F07
S11319308F4F9F4F089557FD9058440F551F59F0EE
S11319405F3F71F04795880F97FB991F61F09F3FA8
S113195079F087950895121613061406551FF2CFD1
S11319604695F1DF08C0161617061806991FF1CF21
S113197086957105610508940895E894BB27662748
S11319807727CB0197F908950E94360D08F48FEF5D
S113199008950E94DC0C0C948A0C0E947C0C38F094
S11319A00E94830C20F0952311F00C94730C0C947A
S11319B0790C11240C94BE0C0E949B0C70F3959F1F
S11319C0C1F3950F50E0551F629FF001729FBB2732
S11319D0F00DB11D639FAA27F00DB11DAA1F649FCE
S11319E06627B00DA11D661F829F2227B00DA11D81
S11319F0621F739FB00DA11D621F839FA00D611D07
S1131A00221F749F3327A00D611D231F849F600D27
S1131A10211D822F762F6A2F11249F5750409AF050
S1131A20F1F088234AF0EE0FFF1FBB1F661F771FDC
S1131A30881F91505040A9F79E3F510580F00C94A7
S1131A40730C0C94BE0C5F3FE4F3983ED4F386957C
S1131A5077956795B795F795E7959F5FC1F7FE2B47
S1131A60880F911D9695879597F90895990F000809
S1131A70550FAA0BE0E8FEEF16161706E807F9075C
S1131A80C0F012161306E407F50798F0621B730BF7
S1131A90840B950B39F40A2661F0232B242B252B78
S1131AA021F408950A2609F4A140A6958FEF811D1B
S1131AB0811D0895A0E1B0E0E0E6FDE00C9467111B
S1131AC07C011B016A01FC0117821682838181FF5C
S1131AD044C39E012F5F3F4F3901F7019381F10108
S1131AE093FD859193FF81911F01882309F431C3EC
S1131AF0853239F493FD859193FF81911F018532DD
S1131B0039F4B70190E00E94FC1256016501E5CF5B
S1131B1010E0512C912CFFE1F915D8F08B3279F0BB
S1131B2038F4803279F08332A1F4F92DF0612EC0BB
S1131B308D3261F0803369F4292D21602DC0392D57
S1131B403260932E892D8460982E2AC0E92DE86096
S1131B5015C097FC2DC020ED280F2A3088F496FE7E
S1131B6006C03AE0139F200D1124122F19C08AE0F9
S1131B70589E200D1124522EE92DE0629E2E10C095
S1131B808E3231F496FCE5C2F92DF0649F2E08C024
S1131B908C3621F4292D2068922E02C0883641F417
S1131BA0F10193FD859193FF81911F018111B3CFC1
S1131BB09BEB980F933020F4992D9061805E07C0C1
S1131BC09BE9980F933008F066C1992D9F7E96FF8C
S1131BD016E09F73992E853619F49064992E08C0E7
S1131BE0863621F4392F3068932E02C0111111501A
S1131BF097FE07C01C3350F444244394410E27E05D
S1131C000BC0183038F027E017E005C027E09CE34C
S1131C10492E02C0212F412C560184E0A80EB11C8C
S1131C20F6016081718182819381042DA3010E9458
S1131C3005126C01F981FC87F0FF02C0F3FF06C0B6
S1131C4091FC06C092FE06C000E205C00DE203C08E
S1131C500BE201C000E08C858C7019F001115AC2AE
S1131C609BC297FE10C04C0CFC85F4FF04C08A8113
S1131C70813309F44A94141474F528E0241578F592
S1131C8088E0482E2CC096FC2AC0812F90E08C1549
S1131C909D059CF03CEFC3163FEFD30674F0892DED
S1131CA08068982E0AC0E2E0F0E0EC0FFD1FE10F1F
S1131CB0F11D8081803319F411501111F4CF97FE76
S1131CC00EC044244394410E812F90E0C816D906D7
S1131CD02CF41C1904C04424439401C010E097FE62
S1131CE006C01C141D0434F4C601019605C085E029
S1131CF090E002C081E090E001110196112331F0DF
S1131D00212F30E02F5F3F4F820F931F252D30E0AE
S1131D108217930714F4581A01C0512C892D897025
S1131D2049F4552039F0B70180E290E00E94FC129A
S1131D305A94F7CF002329F0B701802F90E00E9436
S1131D40FC1293FC09C0552039F0B70180E390E000
S1131D500E94FC125A94F7CF97FE4CC04601D7FE5E
S1131D6002C0812C912CC60188199909F301E80F4E
S1131D70F91FFE87ED87960124193109388B2F87C7
S1131D80012F10E01195019511093FEF8316930679
S1131D9029F4B7018EE290E00E94FC12C814D90421
S1131DA04CF08F8598898815990524F4ED85FE8576
S1131DB0818101C080E3F1E08F1A91082D853E8571
S1131DC02F5F3F4F3E872D87801691062CF0B70179
S1131DD090E00E94FC12D9CFC814D90441F49A812E
S1131DE0963320F4953319F43C8534FF81E3B7012D
S1131DF090E04EC08A81813319F09C859F7E9C8738
S1131E00B70190E00E94FC12111105C094FC18C0A7
S1131E1085E690E017C0B7018EE290E00E94FC12C4
S1131E201E5F82E001E0080FF301E80FF11D8081DD
S1131E30B70190E00E94FC12802F0113F3CFE6CF8C
S1131E4085E490E0B7010E94FC12D7FC06C0C114DF
S1131E50D10441F4EC85E4FF05C0D194C194D108C8
S1131E608DE201C08BE2B70190E00E94FC1280E396
S1131E702AE0C216D1042CF08F5FFAE0CF1AD10801
S1131E80F7CFB70190E00E94FC12B701C601C096DB
S1131E900E94FC1254C1833631F0833779F08335C4
S1131EA009F056C020C0560132E0A30EB11CF60161
S1131EB08081898301E010E0630112C05601F2E0E1
S1131EC0AF0EB11CF601C080D18096FE03C0612F15
S1131ED070E002C06FEF7FEFC6010E94F1128C0127
S1131EE0F92DFF7714C0560122E0A20EB11CF601B1
S1131EF0C080D18096FE03C0612F70E002C06FEFF6
S1131F007FEFC6010E94DD128C01F92DF0689F2E2F
S1131F10F3FD1AC0852D90E008171907A8F4B7013E
S1131F2080E290E00E94FC125A94F4CFF60197FCF0
S1131F30859197FE81916F01B70190E00E94FC1298
S1131F4051105A94015011090115110579F7F7C080
S1131F50843611F0893661F5560197FE09C024E0F4
S1131F60A20EB11CF60160817181828193810AC045
S1131F70F2E0AF0EB11CF60160817181072E000CF6
S1131F80880B990BF92DFF769F2E97FF09C090952A
S1131F908095709561957F4F8F4F9F4FF0689F2E6E
S1131FA02AE030E0A3010E945A13C82EC6183FC08D
S1131FB0092D853721F40F7E2AE030E01DC0097F0A
S1131FC08F3691F018F4883559F0C3C0803719F072
S1131FD0883711F0BEC0006104FF09C0046007C067
S1131FE094FE08C0066006C028E030E005C020E189
S1131FF030E002C020E132E0560107FF09C084E06E
S1132000A80EB11CF601608171818281938108C0A0
S1132010F2E0AF0EB11CF6016081718180E090E0C6
S1132020A3010E945A13C82EC6180F77902E96FE4D
S11320300BC0092D0E7FC11650F494FE0AC092FC09
S113204008C0092D0E7E05C0DC2C092D03C0DC2C34
S113205001C0D12E04FF0DC0FE01EC0DF11D8081E5
S1132060803311F4097E09C002FF06C0D394D394CF
S113207004C0802F867809F0D39403FD11C000FFBB
S113208006C01C2DD51480F4150D1D190DC0D514D2
S113209058F4B70180E290E00E94FC12D394F7CF89
S11320A0D51410F45D1801C0512C04FF10C0B70101
S11320B080E390E00E94FC1202FF17C001FD03C000
S11320C088E790E002C088E590E0B7010CC0802F5B
S11320D0867859F001FF02C08BE201C080E207FD5F
S11320E08DE2B70190E00E94FC12C11638F4B701EA
S11320F080E390E00E94FC121150F7CFCA94F301E0
S1132100EC0DF11D8081B70190E00E94FC12C1101A
S1132110F5CF15C0F4E0F51560F584E0581A93FE88
S11321201FC0011127C02C8523FF2AC008E610E038
S1132130392D3071932EF8018491811124C05520DA
S113214009F4E4CCB70180E290E00E94FC125A94B6
S1132150F6CFF7018681978126C08FEF9FEF23C0CA
S1132160B70180E290E00E94FC125A945110F8CF1B
S1132170D8CF512CB701802F90E00E94FC12D3CF0E
S11321800CE610E0D5CF91108052B70190E00E9488
S1132190FC120F5F1F4FCFCF23E0251510F483E00F
S11321A0BDCF512CC0CF6096E2E10C948311A1E223
S11321B01A2EAA1BBB1BFD010DC0AA1FBB1FEE1FBD
S11321C0FF1FA217B307E407F50720F0A21BB30B08
S11321D0E40BF50B661F771F881F991F1A9469F784
S11321E060957095809590959B01AC01BD01CF01E0
S11321F00895A29FB001B39FC001A39F700D811DDC
S11322001124911DB29F700D811D1124911D0895FB
S1132210689401C0E8948F929F92CF93DF930E94B9
S11322201611DF91CF919F908F900895882499245F
S1132230F401E401B0E49F93AA279A158B049C044B
S1132240ED05FE05CF05D007A10798F4AD2FDC2FCF
S1132250CF2FFE2FE92D982C892E982F872F762F9C
S1132260652F542F432F322F2227B85031F7BF91B7
S113227027C01B2EBF91BB27220F331F441F551F9E
S1132280661F771F881F991F881C991CEE1FFF1F4C
S1132290CC1FDD1FAA1FBB1F8A149B04EC05FD0580
S11322A0CE05DF05A007B10748F08A189B08EC09A2
S11322B0FD09CE09DF09A00BB10B21601A94E1F6E8
S11322C02EF49401AF01BE01CD01000C08952F92AC
S11322D03F924F925F926F927F928F929F92AF92B2
S11322E0BF92CF92DF92EF92FF920F931F93CF93FF
S11322F0DF93CDB7DEB7CA1BDB0B0FB6F894DEBF96
S11323000FBECDBF09942A88398848885F846E84BB
S11323107D848C849B84AA84B984C884DF80EE8005
S1132320FD800C811B81AA81B981CE0FD11D0FB60E
S1132330F894DEBF0FBECDBFED0108950F930830B2
S113234090F0982F872F762F652F542F432F322FFD
S113235022270850F4CF220F331F441F551F661F36
S1132360771F881F991F0A95B2F70F91089597FB5D
S113237010F8169400080F93083098F00850232F93
S1132380342F452F562F672F782F892F902DF4CF78
S113239005949795879577956795579547953795BC
S11323A027950A95AAF70F9108950F930830A0F086
S11323B00850092E982F872F762F652F542F432FDF
S11323C0322F202DF3CF220F331F441F551F661FBA
S11323D0771F881F991F211D0A95AAF70F91089549
S11323E02A0D3B1D4C1D5D1D6E1D7F1D801F911F01
S11323F008950024A7FD00942A17300540055005D0
S113240060057005800590050895283008F027E0E0
S11324103327DA01990F311D87FD9160009661051C
S1132420710539F432602E5F3D9330E32A95E1F76C
S113243008959F3F30F080387105610509F03C5FD5
S11324403C5F3D93913008F08068911DDF93CF93FA
S11324501F930F93FF92EF92192F987F9695E92F70
S113246096959695E90FFF27E653FF4F9927332753
S1132470EE24FF24A701E70105900894079428F4AB
S1132480360FE71EF81E491F511D660F771F881F60
S1132490991F0694A1F70590079428F4E70EF81EF7
S11324A0491F561FC11D770F881F991F661F069469
S11324B0A1F70590079428F4F80E491F561FC71F6B
S11324C0D11D880F991F661F771F0694A1F70590E9
S11324D0079420F4490F561FC71FD81F990F661F72
S11324E0771F881F0694A9F784911095177041F0FF
S11324F0D695C79557954795F794E7941A95C1F7DC
S1132500E0E7F0E068941590159135916591959107
S113251005907FE27395E118F10A430B560BC90B42
S1132520D009C0F7E10CF11E431F561FC91FD01D6F
S11325307EF4703311F48A95E6CFE894015030F0BC
S1132540080F0AF40027021708F4202F2395022FFE
S11325507A3328F079E37D932A95E9F710C07D93C7
S11325602A9589F606949795679537951795179444
S1132570E118F10A430B560BC90BD00998F02395C7
S11325807E9173957A3308F070E37C932013B8F747
S11325907E9170617D9330F0839571E37D9370E358
S11325A02A95E1F71124EF90FF900F911F91CF919D
S11325B0DF91992787FD90950895FC01059061505E
S11325C070400110D8F7809590958E0F9F1F089545
S11325D0FB01DC0102C001900D9241505040D8F73C
S11325E00895FC016150704001900110D8F7809566
S11325F090958E0F9F1F08950F931F93CF93DF9392
S1132600FB01238121FD03C08FEF9FEF2CC022FF2C
S113261016C046815781248135814217530744F4FB
S1132620A081B1819D012F5F3F4F318320838C9323
S1132630268137812F5F3F4F3783268314C08B0158
S1132640EC01FB010084F185E02D0995892BE1F66D
S1132650D80116968D919C911797019617969C9385
S11326608E931697CE01DF91CF911F910F9108950C
S1132670AEE0B0E0EEE3F3E10C9475110D891E8930
S113268086E08C831A8309838FEF9FE79E838D8373
S1132690AE01475E5F4F6F89788DCE0101960E942F
S11326A05A0DEF81F885E00FF11F10822E96E4E0B9
S11326B00C949111FA01AA27283051F1203181F1AB
S11326C0E8946F936E7F6E5F7F4F8F4F9F4FAF4F36
S11326D0B1E03ED0B4E03CD0670F781F891F9A1F49
S11326E0A11D680F791F8A1F911DA11D6A0F711DFD
S11326F0811D911DA11D20D009F468943F912AE009
S1132700269F11243019305D3193DEF6CF010895F0
S1132710462F4770405D4193B3E00FD0C9F7F6CF21
S1132720462F4F70405D4A3318F0495D31FD4052E9
S1132730419302D0A9F7EACFB4E0A695979587957F
S113274077956795BA95C9F700976105710508955E
S11327509B01AC010A2E069457954795379527950A
S1132760BA95C9F7620F731F841F951FA01D0895A2
S1132770DC01CB01FC01F999FECF06C0F2BDE1BD3D
S1132780F89A319600B40D9241505040B8F708952C
S1132790F999FECF92BD81BDF89A992780B5089525
S11327A0A8E1B0E042E050E00C94BA13DC01A40FBD
S11327B0B51F4150504048F0CB01840F951F2E9116
S11327C00E94E71341505040D0F70895262FF999FD
S11327D0FECF92BD81BDF89A019700B4021639F07C
S11327E01FBA20BD0FB6F894FA9AF99A0FBE08954D
S11327F00196272F0E94E7130C94E613F894FFCF59
S11328001606090C0000042E745C3A256323252E59
S1132810316623252E316623252E316623252E305D
S10D282066232564232564232400A5
S9030000FC
