S00C00006661706F2E7372656372
S11300000C9434000C9451000C9451000C94D302C1
S11300100C94F6020C9451000C9451000C94510071
S11300200C9451000C944D030C9451000C94510009
S11300300C9451000C9451000C9451000C945100F8
S11300400C9471020C9451000C9451000C945100C6
S11300500C9451000C9451000C9451000C945100D8
S11300600C9451000C94510011241FBECFEFD8E022
S1130070DEBFCDBF11E0A0E0B1E0E0E7FCE102C0EB
S113008005900D92A433B107D9F721E0A4E3B1E0C0
S113009001C01D92A135B207E1F70E943A070C9402
S11300A0360E0C9400005F988F710E9463018FEFED
S11300B00E9463015F9A0895CF93C62F5F988F7152
S11300C080620E9463018C2F0E9463015F9ACF912A
S11300D00895FF920F931F93CF93DF93062F172F4B
S11300E0F42E5F988F7180620E946301FF2071F08B
S11300F0C02FD12F8E010F5F1F4FFA940F0D111DCA
S113010089910E946301C017D107D1F75F9ADF91EB
S1130110CF911F910F91FF90089545E0BC018AE0B3
S11301200E94690008955F9882EE0E9463015F9ABD
S113013008955F9881EE0E9463015F9A089580E0BC
S11301400E945300682F616080E00E945C0080E0A0
S11301500E945300682F626080E00E945C0060E7A8
S113016087E00E945C000E9493000E949900289AF4
S11301708BE291E00197F1F700C000000895CF935E
S1130180C82F209A579A28985F9A8FE097E2019790
S1130190F1F700C000006FE080E00E945C0061E0C5
S11301A081E00E945C0061E082E00E945C0063E008
S11301B083E00E945C006FEF84E00E945C006C2F7F
S11301C085E00E945C0066E286E00E945C0060E2DA
S11301D081E10E945C0060E08CE10E945C000E946E
S11301E09F00CF910895289880E00E945300682FC3
S11301F06E7F80E00E945C0080E00E945300682FC4
S1130200626080E00E945C0060E387E00E945C0022
S11302100E9499008BE291E00197F1F700C0000081
S113022008955F988FEF0E9463015F9A08950F937A
S11302301F93CF93DF93082F192F5F9881E60E94B5
S11302406301C02FD12F10E08FEF0E9463018993C7
S11302501F5F1032C9F75F9ADF91CF911F910F9101
S113026008950F931F93CF93DF93082F192F0E94A4
S1130270F3005F9880EA0E946301C02FD12F10E041
S113028089910E9463011F5F1032D1F75F9A289A07
S113029085E38A95F1F700002898DF91CF911F91AB
S11302A00F9108950E9411018074089560E487E01D
S11302B00E945C0008952498239A259A229A83E543
S11302C08CBD1DBC08958EBD0DB407FEFDCF8EB54B
S11302D0089590E09093C5008093C40086E08093D5
S11302E0C20088E18093C100089580933D01882372
S11302F031F0E1EBF0E08081826080830895E1EBEE
S1130300F0E080818D7F8083089580914201811186
S1130310FCCF109247010895CF93C82F0E94850106
S113032010924601109244011092430185E080939B
S11303304501C0934701CF91089548E050E061E042
S113034070E087E091E00E94370D60911301709195
S1130350140182E190E00E94590D60910F017091A7
S1130360100186E190E00E94590D6AEA80E090E075
S11303700E94470D0895CF92DF92EF92FF920F9360
S11303801F93CF93DF93CDB7DEB7A0970FB6F89442
S1130390DEBF0FBECDBFC0900F01D09010018C0105
S11303A020E030E0980111270027E12CF12C0C29E2
S11303B01D292E293F2909831A832B833C839E837D
S11303C08D839E01295F3F4F50E0822F932F0E941F
S11303D0120BCE0101960E94310180910F01909180
S11303E0100101969093100180930F010E949D01CA
S11303F00E949F00A0960FB6F894DEBF0FBECDBF3B
S1130400DF91CF911F910F91FF90EF90DF90CF90EC
S113041008952198299AEBE6F0E080818260808338
S1130420E8E6F0E08081816080833B98439AACE603
S1130430B0E08C9188608C93808182608083389A4C
S11304404098559A5D98569A5E983D98EEE7F0E08C
S11304508081806280833C988081806280833E9822
S11304608081806180833E983A9880818460808313
S11304700895009741F0EFECF7E03197F1F700C0F1
S113048000000197C1F708955D9A8CE390E00E9403
S113049039025D988CE390E00E9439025D9A8CE306
S11304A090E00E9439025D988CE390E00E9439024A
S11304B084EF91E00E9439025D9A8CE390E00E94FF
S11304C039025D988CE390E00E9439025D9A8CE3D6
S11304D090E00E9439025D988CE390E00E9439021A
S11304E0089578941F920F920FB60F9211248F9350
S11304F09F9381E08093420180914701882309F40E
S113050049C08091430190914401892B51F080911D
S113051043019091440101979093440180934301D6
S113052039C080914501882331F080914501815083
S11305308093450113C080914601882329F080915E
S113054047018150809347019091460181E09111C8
S113055080E08093460185E08093450180914701C6
S11305608823B1F080914601882331F05E989BB1D5
S113057080E289278BB905C05D989BB180E4892707
S11305808BB985E090E0909344018093430102C0CD
S11305905D985E98109242019F918F910F900FBECB
S11305A00F901F90189578941F920F920FB60F9288
S11305B011248F93EF93FF9383B78E7F83BFE8E675
S11305C0F0E080818E7F8083199903C081E080935D
S11305D04F01E8E6F0E0808181608083FF91EF9134
S11305E08F910F900FBE0F901F90189578941F92C3
S11305F00F920FB60F9211248F93EF93FF9383B74B
S11306008E7F83BFE8E6F0E080818D7F808381E088
S113061080935001808182608083FF91EF918F915C
S11306200F900FBE0F901F901895AC0183709927FF
S1130630892BA1F49A013695279536952795ABE732
S1130640B4E10E949E0A9695879564E6689F90019E
S1130650699F300D112442175307E1F49A01329532
S113066022952F7023273F702327AEE3BAE00E9420
S11306709E0A20E931E0829FB001839F700D929F12
S1130680700D112481E090E04617570729F080E0AF
S113069090E0089581E090E0089578941F920F927D
S11306A00FB60F921124AF92BF92CF92DF92EF92C6
S11306B0FF920F931F932F933F934F935F936F93E7
S11306C07F938F939F93AF93BF93CF93EF93FF93B6
S11306D081E08093340180934E0180913D0181112A
S11306E002C0C1E001C0C8E0E5E0F1E080818C0F08
S11306F08083A0903501B0903601C0903701D0902E
S11307003801E0903901F0903A0100913B011091D9
S11307103C012C2F30E040E050E060E070E080E0ED
S113072090E00E94090B20933501309336014093E9
S11307303701509338016093390170933A018093E3
S11307403B0190933C01339914C080914A019091EC
S11307504B01A0914C01B0914D018C0F911DA11D35
S1130760B11D80934A0190934B01A0934C01B09327
S11307704D01809105018C3380F180913D018823E6
S113078031F0E5E0F1E080818C53808302C0109267
S11307900501E4E0F1E080818F5F808380913E0178
S11307A090913F01A0914001B0914101892B8A2B86
S11307B08B2B99F080913E0190913F01A0914001D3
S11307C0B09141010197A109B10980933E01909331
S11307D03F01A0934001B0934101809104018C3307
S11307E038F010920401E3E0F1E080818F5F8083B0
S11307F080910301883190F010920301E2E0F1E06E
S113080080818F5F8083E6E0F1E080818F5F808369
S11308108081883018F081E0809306018091020184
S1130820803268F5809102018F3181F48091010159
S1130830843029F180910101863009F18091010110
S11308408930E9F0809101018B30C9F08091020177
S11308508E3121F480910101823089F0809102016E
S11308608D31A9F480910101823089F480910001D5
S113087090E08053984F0E941503811108C081E0D5
S113088080930201E1E0F1E080818F5F80838091B9
S113089001018D3040F0E0E0F1E080818F5F8083E2
S11308A081E08093010110923401FF91EF91CF9187
S11308B0BF91AF919F918F917F916F915F914F9174
S11308C03F912F911F910F91FF90EF90DF90CF9068
S11308D0BF90AF900F900FBE0F901F9018952F925E
S11308E03F924F925F926F927F928F929F92AF92BC
S11308F0BF92CF92DF92EF92FF920F931F93CF9309
S1130900DF93CDB7DEB72A970FB6F894DEBF0FBEDC
S1130910CDBF4D835E836F83788709831A832B83CE
S11309203C83EE2009F46DC06EC0A081A064A08356
S1130930B9859A84A081A6FDFDCFB9879A86A8E7D8
S1130940B0E02D903C90A22CB32CC12CD12CE12CE6
S1130950F12C00E010E00E94090BB985BF5FB98754
S1130960AA85BA1710F3AA2EB12CE12C0E94AC0A66
S11309700E94620920E030E14BE950E40E94F5094D
S1130980862E972EE82E792EF62FE72F972D2D8180
S11309903E814F815885232B242B252B49F4298113
S11309A03A814B815C81232B242B252B09F440C0F5
S11309B069817A818B819C810E942509282D392D9A
S11309C04E2D572D0E94F509862E972EE82E792E4E
S11309D069817A818B819C812D813E814F815885EB
S11309E0620F731F841F951F0E9425099B01AC0190
S11309F0682D792D8E2D972D0E94BD08F62FE72F97
S1130A0017C0EE24E39480937C0086E880937A00F8
S1130A1010927B00A0E020E030E040E050E060E095
S1130A2070E080E090E0EAE7F0E0A987EA867DCF15
S1130A306F2F7E2F2A960FB6F894DEBF0FBECDBF60
S1130A40DF91CF911F910F91FF90EF90DF90CF90A6
S1130A50BF90AF909F908F907F906F905F904F90DA
S1130A603F902F900895EF920F931F936894EE2474
S1130A70E4F800EA16E821E030E048E957EB60E0EA
S1130A8070E086E00E946F041F910F91EF9008952B
S1130A90EF920F931F936894EE24E4F808E917EBA0
S1130AA020E030E048E957EB60E070E084E00E9429
S1130AB06F041F910F91EF900895EF920F931F937E
S1130AC06894EE24E4F808E917EB20E030E048E904
S1130AD057EB60E070E085E00E946F041F910F9176
S1130AE0EF900895EF920F931F93409A85E090E062
S1130AF00E9439026894EE24E4F800E010E09801C2
S1130B0040E050E0BA0182E00E946F04409820E087
S1130B1030E048EC52E40E94580820E030E040E223
S1130B2051E40E94BD0820E030E040E252E40E941B
S1130B3058081F910F91EF9008952F923F924F9272
S1130B405F926F927F928F929F92AF92BF92CF9259
S1130B50DF92EF92FF920F931F93CF93DF93CDB762
S1130B60DEB76B970FB6F894DEBF0FBECDBF0E9401
S1130B705D05162F072FF82EE92E0E944805D62E64
S1130B80C72EB82EA92E0E943305962E872E782EB6
S1130B90692E0E947205562E472E382E292E339B1D
S1130BA003C03EE43B8F02C083E48B8F60914A0113
S1130BB070914B0180914C0190914D012CE330E0F8
S1130BC040E050E00E947C0A20914801862F972F34
S1130BD0883E33E0930710F087EE93E09F938F9362
S1130BE01F922F932F923F924F925F926F927F9218
S1130BF08F929F92AF92BF92CF92DF92EF92FF9229
S1130C000F931F931F928B8D8F9385E191E09F9398
S1130C108F938E010F5F1F4F1F930F930E941B0B27
S1130C2040E2B80186E098E70E94BB0110924801B7
S1130C300FB6F894DEBF0FBECDBF6B960FB6F89417
S1130C40DEBF0FBECDBFDF91CF911F910F91FF90FB
S1130C50EF90DF90CF90BF90AF909F908F907F9058
S1130C606F905F904F903F902F900895460F571FBD
S1130C706417750748F46817790778F421E0481772
S1130C80590770F420E00CC06817790740F021E0A0
S1130C904817590728F420E003C020E001C021E0F0
S1130CA0822F08958F929F92AF92BF92CF92DF923C
S1130CB0EF92FF920F931F93CF93DF9300D0CDB7A2
S1130CC0DEB78C01FC0180819281C380D12CE12CA0
S1130CD0F12CFC2CEE24DD24CC24E92AC82A9181B1
S1130CE080E0A0E0B0E0C82AD92AEA2AFB2A56010B
S1130CF094808580609113017091140140E450E068
S1130D00C6010E943606882309F477C0982D80E036
S1130D108929E816F90609F070C0D0921401C0922E
S1130D201301809113019091140190931201809307
S1130D3011010E949D01C80106969A838983F9E1F5
S1130D40EF16F5E5FF0651F160F4E6E9EE16E4E28C
S1130D50FE06C9F0F6E0EF16F7E4FF0609F07BC0E3
S1130D6034C087E8E81680E6F80609F443C0E3E8EF
S1130D70EE16E6E7FE0651F0F8E2EF16F6E5FF069A
S1130D8009F069C008C00E94850165C0F801868128
S1130D900E948C0160C00E9444025DC080913401B5
S1130DA08111FCCF1092B100E981FA8187E0A0E0C3
S1130DB0B1E001900D928A95E1F780913D010E9486
S1130DC0750181E08093490146C0E7E0F1E0898143
S1130DD080838A8181838B8182838C8183838D81CB
S1130DE084838E8185838F818683888587830E940F
S1130DF09D0131C00E949D052EC06091110170912A
S1130E0012014FEF5FE7C5010E9436068823C1F047
S1130E10609111017091120141E050E0C5010E94FE
S1130E203606882321F0B0921401A0921301809118
S1130E30130190911401909312018093110105C044
S1130E40809148018F5F809348015D9A84EF91E01F
S1130E500E9439025D980F900F90DF91CF911F91FE
S1130E600F91FF90EF90DF90CF90BF90AF909F9045
S1130E708F900895CF93DF93CDB7DEB7C554D109D2
S1130E800FB6F894DEBF0FBECDBF0E940902509882
S1130E90519A89E10E94690180E090E00E94290D45
S1130EA08A3AC9F448E050E061E070E087E091E0FC
S1130EB00E94190D82E190E00E94310D909314017B
S1130EC08093130186E190E00E94310D909310010C
S1130ED080930F0124C080E98093070189E88093FF
S1130EE0080188E78093090186E580930A0185E477
S1130EF080930B0184E380930C0183E280930D01C2
S1130F0082E180930E0188EE93E090931401809324
S1130F1013019093100180930F010E949D01809111
S1130F2013019091140190931201809311010E9476
S1130F305B018DE4898382E48A838CE28B8381E282
S1130F408C8388E58D838EE00E94BF00CE010196DC
S1130F500E948D000E949F0014BC84E085BDEEE6D3
S1130F60F0E08081816080831092B200E1EBF0E0D8
S1130F7080818560808380E28093B600E0E7F0E0C2
S1130F80808181608083789482E390E00E943902BA
S1130F900E94440281E00E947501809113019091A6
S1130FA0140101968E839F8393E8988786E7898747
S1130FB09A878B878AE08C87CE0106960E94520618
S1130FC00F2EFEE1CF2ED12CE12CF12CF02D8091AF
S1130FD04701811119C05D985E985E9A8CE390E098
S1130FE00E9439025E9883B7817F866083BF83B78E
S1130FF0816083BF889583B78E7F83BF5E9A8CE3BD
S113100090E00E9439025E9880915001882371F02B
S1131010339B08C010924A0110924B0110924C016C
S113102010924D010E949D051092500180914F0134
S11310308823B1F00E94520181110BC00FC0CE0170
S113104086960E9417010E945601CE0186960E9440
S1131050520687E10E94530080FFF1CF10924F01A6
S113106080914E01882309F4B2CF80913E01909182
S11310703F01A0914001B0914101892B8A2B8B2B18
S1131080A1F40E945D0520E030E84BE355E40E94A2
S1131090F109882314F00E949D05C0923E01D0926C
S11310A03F01E0924001F092410110924E018FCF36
S11310B05058BB27AA270ED05AC14BD130F050D17B
S11310C020F031F49F3F11F41EF440C10EF4E0957A
S11310D0E7FB36C1E92F5CD180F3BA1762077307C7
S11310E08407950718F071F49EF574C10EF4E09529
S11310F00B2EBA2FA02D0B01B90190010C01CA01CE
S1131100A0011124FF27591B99F0593F50F4503E78
S113111068F11A16F040A22F232F342F4427585F6A
S1131120F3CF469537952795A795F0405395C9F782
S11311307EF41F16BA0B620B730B840BBAF091503A
S1131140A1F0FF0FBB1F661F771F881FC2F70EC0D9
S1131150BA0F621F731F841F48F4879577956795AC
S1131160B795F7959E3F08F0B3CF9395880F08F095
S11311709927EE0F9795879508950CD0F8C0F0D075
S113118040F0E7D030F021F45F3F19F0D9C051119D
S113119022C1DCC0FDD098F39923C9F35523B1F3E0
S11311A0951B550BBB27AA2762177307840738F0D2
S11311B09F5F5F4F220F331F441FAA1FA9F333D031
S11311C00E2E3AF0E0E830D091505040E695001CE5
S11311D0CAF729D0FE2F27D0660F771F881FBB1FA1
S11311E0261737074807AB07B0E809F0BB0B802D7B
S11311F0BF01FF2793585F4F2AF09E3F510568F0C7
S11312009FC0E9C05F3FECF3983EDCF38695779589
S11312106795B795F7959F5FC9F7880F911D9695C8
S1131220879597F90895E1E0660F771F881FBB1F24
S1131230621773078407BA0720F0621B730B840BD1
S1131240BA0BEE1F88F7E0950895E89409C097FB60
S11312503EF490958095709561957F4F8F4F9F4F89
S11312609923A9F0F92F96E9BB279395F6958795CD
S113127077956795B795F111F8CFFAF4BB0F11F490
S113128060FF1BC06F5F7F4F8F4F9F4F16C0882337
S113129011F096E911C0772321F09EE8872F762F6D
S11312A005C0662371F096E8862F70E060E02AF0AE
S11312B09A95660F771F881FDAF7880F969587959A
S11312C097F90895E894F92F96EBFF2381F012160D
S11312D013061406440B9395F695879577956795B1
S11312E057954040FF23B9F71BC0992708958823D9
S11312F051F49850D2F7872B762F652F542F432F14
S1131300322F20E0B1F3121613061406440B88237F
S11313103AF09A95440F551F661F771F881FCAF726
S113132055234AF4440F551F11F460FF04C06F5F46
S11313307F4F8F4F9F4F880F9695879597F9089504
S113134097F99F6780E870E060E008959FEF80EC74
S1131350089500240A941616170618060906089517
S113136000240A9412161306140605060895092E7D
S11313700394000C11F4882352F0BB0F40F4BF2BEC
S113138011F460FF04C06F5F7F4F8F4F9F4F08952C
S113139057FD9058440F551F59F05F3F71F0479522
S11313A0880F97FB991F61F09F3F79F08795089507
S11313B0121613061406551FF2CF4695F1DF08C026
S11313C0161617061806991FF1CF86957105610543
S11313D008940895E894BB2766277727CB0197F9EB
S11313E0089566D008F48FEF08950BD0C0CFB1DF15
S11313F028F0B6DF18F0952309F0A2CFA7CF112467
S1131400EACFC6DFA0F3959FD1F3950F50E0551FA7
S1131410629FF001729FBB27F00DB11D639FAA2745
S1131420F00DB11DAA1F649F6627B00DA11D661F94
S1131430829F2227B00DA11D621F739FB00DA11DB5
S1131440621F839FA00D611D221F749F3327A00D6F
S1131450611D231F849F600D211D822F762F6A2F0B
S113146011249F5750408AF0E1F088234AF0EE0F90
S1131470FF1FBB1F661F771F881F91505040A9F79D
S11314809E3F510570F05CCFA6CF5F3FECF3983ED2
S1131490DCF3869577956795B795F795E7959F5F04
S11314A0C1F7FE2B880F911D9695879597F908959E
S11314B0990F0008550FAA0BE0E8FEEF1616170661
S11314C0E807F907C0F012161306E407F50798F0C9
S11314D0621B730B840B950B39F40A2661F0232BE2
S11314E0242B252B21F408950A2609F4A140A6955E
S11314F08FEF811D811D0895A1E21A2EAA1BBB1B2B
S1131500FD010DC0AA1FBB1FEE1FFF1FA217B307CB
S1131510E407F50720F0A21BB30BE40BF50B661FE1
S1131520771F881F991F1A9469F7609570958095A5
S113153090959B01AC01BD01CF010895A29FB0011C
S1131540B39FC001A39F01D0B29F700D811D1124D0
S1131550911D0895689401C0E8948F929F92CF934F
S1131560DF930E94B80ADF91CF919F908F900895E6
S113157088249924F401E401B0E49F93AA279A15DE
S11315808B049C04ED05FE05CF05D007A10798F454
S1131590AD2FDC2FCF2FFE2FE92D982C892E982FDD
S11315A0872F762F652F542F432F322F2227B850A1
S11315B031F7BF9127C01B2EBF91BB27220F331FCA
S11315C0441F551F661F771F881F991F881C991C6D
S11315D0EE1FFF1FCC1FDD1FAA1FBB1F8A149B0415
S11315E0EC05FD05CE05DF05A007B10748F08A1814
S11315F09B08EC09FD09CE09DF09A00BB10B2160A2
S11316001A94E1F62EF49401AF01BE01CD01000C51
S113161008952A0D3B1D4C1D5D1D6E1D7F1D801FF1
S1131620911F0895FB01DC0102C001900D9241500D
S11316305040D8F70895AEE0B0E0E1E2FBE00C944E
S11316400D0E0D891E8986E08C831A8309838FEF22
S11316509FE79E838D83CE014996AC016F89788D77
S1131660CE0101960E943D0BEF81F885E00FF11F3A
S113167010822E96E4E00C94290EACE0B0E0E3E492
S1131680FBE00C94FF0D7C016B018A01FC011782C5
S11316901682838181FFC6C188248394912C8C0E89
S11316A09D1EF7019381F60193FD859193FF81912E
S11316B06F01882309F4B2C1853239F493FD859111
S11316C093FF81916F01853229F4B70190E00E9464
S11316D0750DE7CF512C312C20E02032A8F48B3249
S11316E061F028F4803251F0833271F40BC08D32F2
S11316F039F0803349F4216028C02260246025C079
S1131700286023C0206121C027FD27C0382F305313
S11317103A3078F426FF06C0FAE05F9E300D1124BB
S1131720532E13C08AE0389E300D1124332E2062CC
S11317300CC08E3221F426FD71C1206406C08C36A3
S113174011F4206802C0883641F4F60193FD8591B6
S113175093FF81916F018111C0CF982F95549330DD
S113176018F09052933028F40C5F1F4FFFE3F98375
S11317700DC0833631F0833771F0833509F05EC0D4
S113178023C0F801808189830E5F1F4F4424439452
S1131790512C540115C03801F2E06F0E711CF80190
S11317A0A080B18026FF03C0652D70E002C06FEFFA
S11317B07FEFC5012C870E946A0D2C0183012C85C3
S11317C06FE7262E222218C03801F2E06F0E711C3A
S11317D0F801A080B18026FF03C0652D70E002C02F
S11317E06FEF7FEFC5012C870E945F0D2C012C85C4
S11317F050E8252E222A830123FC1CC006C0B70111
S113180080E290E00E94750D3A94832D90E0481692
S11318105906A8F30FC0F50127FC859127FE819195
S11318205F01B70190E00E94750D31103A94F1E028
S11318304F1A51084114510471F7EDC0843611F068
S1131840893641F5F80127FF07C0608171818281E3
S113185093810C5F1F4F08C060817181882777FDD9
S11318608095982F0E5F1F4F4FE6B42EB22297FF3C
S113187009C090958095709561957F4F8F4F9F4FCC
S1131880F0E8BF2A2AE030E0A4010E94A10DA82EAE
S1131890A81843C0853731F43FEEB32EB2222AE0B4
S11318A030E024C099EFB92EB2228F36B9F020F47B
S11318B0883509F0B3C00DC0803721F0883709F0AE
S11318C0ADC002C020E1B22AB4FE0BC084E0B82A45
S11318D008C024FF09C0E6E0BE2A06C028E030E0C4
S11318E005C020E130E002C020E132E0F801B7FE9B
S11318F007C060817181828193810C5F1F4F06C094
S11319006081718180E090E00E5F1F4FA4010E940E
S1131910A10DA82EA818FFE7BF22B6FE0BC02B2DE1
S11319202E7FA51450F4B4FE0AC0B2FC08C02B2DBF
S11319302E7E05C07A2C2B2D03C07A2C01C0752C69
S113194024FF0DC0FE01EA0DF11D8081803311F4E6
S1131950297E09C022FF06C07394739404C0822FA9
S1131960867809F0739423FD14C020FF0FC05A2C0D
S1131970731460F4530C5718732C08C0B70180E239
S113198090E02C870E94750D73942C857314B0F32A
S113199004C0731410F4371801C0312C24FF12C092
S11319A0B70180E390E02C870E94750D2C8522FFFF
S11319B01EC021FF03C088E590E002C088E790E0E4
S11319C0B7010CC0822F867891F021FD02C080E21D
S11319D001C08BE227FD8DE2B70190E00E94750DF6
S11319E006C0B70180E390E00E94750D5A94A514D7
S11319F0C0F3AA94F401EA0DF11DB701808190E0CF
S1131A000E94750DA110F5CF06C0B70180E290E0E9
S1131A100E94750D3A943110F8CF43CEF701268118
S1131A20378102C02FEF3FEFC9012C96E2E10C94FD
S1131A301B0EDC01CB01FC01F999FECF06C0F2BDFF
S1131A40E1BDF89A319600B40D9241505040B8F778
S1131A500895F999FECF92BD81BDF89A992780B572
S1131A600895A8E1B0E042E050E00C941B0DDC01C5
S1131A70A40FB51F4150504048F0CB01840F951F6F
S1131A802E910E94480D41505040D0F70895262FC2
S1131A90F999FECF92BD81BDF89A019700B4021660
S1131AA039F01FBA20BD0FB6F894FA9AF99A0FBE0E
S1131AB008950196272F0E94480D0C94470DFC01B0
S1131AC00590615070400110D8F7809590958E0F65
S1131AD09F1F0895FC016150704001900110D8F7D8
S1131AE0809590958E0F9F1F08950F931F93CF930A
S1131AF0DF938C01EB018B8181FD03C00FEF1FEF9E
S1131B001AC082FF0DC02E813F818C819D812817D0
S1131B10390764F4E881F9810193F983E88306C005
S1131B20E885F985802F0995892B41F78E819F815E
S1131B3001969F838E83C801DF91CF911F910F91EE
S1131B400895FA01AA27283051F1203181F1E8944F
S1131B506F936E7F6E5F7F4F8F4F9F4FAF4FB1E09C
S1131B603ED0B4E03CD0670F781F891F9A1FA11D97
S1131B70680F791F8A1F911DA11D6A0F711D811D98
S1131B80911DA11D20D009F468943F912AE0269F5D
S1131B9011243019305D3193DEF6CF010895462FBC
S1131BA04770405D4193B3E00FD0C9F7F6CF462F9D
S1131BB04F70405D4A3318F0495D31FD4052419306
S1131BC002D0A9F7EACFB4E0A695979587957795C3
S1131BD06795BA95C9F700976105710508959B014A
S1131BE0AC010A2E06945795479537952795BA95D3
S1131BF0C9F7620F731F841F951FA01D08952F92AC
S1131C003F924F925F926F927F928F929F92AF9288
S1131C10BF92CF92DF92EF92FF920F931F93CF93D5
S1131C20DF93CDB7DEB7CA1BDB0B0FB6F894DEBF6C
S1131C300FBECDBF09942A88398848885F846E8492
S1131C407D848C849B84AA84B984C884DF80EE80DC
S1131C50FD800C811B81AA81B981CE0FD11D0FB6E5
S1131C60F894DEBF0FBECDBFED010895F894FFCF09
S1131C701606090C0000059089785645342312E8AD
S1131C8003E803E803256323252E316623252E313B
S1131C906623252E316623252E30662325642325CD
S1071CA06423240091
S9030000FC
